:100000000C945A00189500001895000018950000EF
:10001000189500001895000018950000189500002C
:10002000189500001895000018950000189500001C
:10003000189500000C9421051895000018950000F3
:1000400018950000189500001895000018950000FC
:1000500018950000189500001895000018950000EC
:1000600018950000189500001895000018950000DC
:1000700018950000189500001895000018950000CC
:1000800018950000189500001895000018950000BC
:1000900018950000189500001895000018950000AC
:1000A000189500001895000018950000189500009C
:1000B000189500008FEF8DBFC0E0E8E14E2E88E07C
:1000C0008EBFD8E0F6E05F2EA89584B7082E877F14
:1000D00084BF88E199278093600090936000EEEFE1
:1000E000F7E0A0E0B1E088278D933197E9F787E644
:1000F0008093C40080E08093C50088E18093C100B4
:10010000662474B7777F74BF8FE197E080936000B7
:100110009093600080916000886080936000E0E0D0
:10012000F0E0A0E0B1E00E945B0BE1E0F0E0A1E0D4
:10013000B1E00E945B0B8AE0809387018AE08093A4
:1001400088018AE08093890181E080938A0181E0BF
:1001500080938B0184E080938D0183E080938E01F6
:1001600082E080938F0181E08093900180E0809312
:100170009101209A2898579A5F98559A5D9888E03F
:100180008093C40080E08093C50088E18093C10023
:1001900086E08093C20080E08093800083E08093BB
:1001A000810088E59EE9909385008093840080918A
:1001B00001018093DF0283E880937A0080E48093DA
:1001C0007C0070917A00706870937A0078947091D6
:1001D0006F00716070936F00A89581E08093DF02DB
:1001E0000E94ED09082F013011F00C9414030E94B5
:1001F0007605EAEBF1E0AAEBB1E00E948A0A86E616
:100200000E94400AEAEBF1E002E0A881B9810E9475
:100210003B0BA881B981E0E5F7E10E94650B0FB6C1
:1002200086E6481A80E0580A22960FBE11F00C9418
:100230005902289AEAEBF1E09DE300E135E0A4E8F9
:10024000B2E00E94810BA9EDB2E02C93A4E8B2E0E9
:10025000E4E5F7E10E94650B11F00C94E001D20196
:10026000EEE5F7E10E94500A85E60E94400A0E94EE
:100270006105229685E60E943C0AD201EAE7F7E191
:100280000E94500A85E60E94400A0E94610522965B
:1002900085E60E943C0AD201E2EBF7E10E94500A97
:1002A00085E60E94400A0E946105229685E60E942A
:1002B0003C0AD201E2EEF7E10E94500A85E60E9474
:1002C000400A0E946105229685E60E943C0AD201FE
:1002D000E6E0F8E10E94500A85E60E94400A0E948A
:1002E0006105229685E60E943C0AD201EEE3F8E120
:1002F0000E94500A85E60E94400A0E9461052296EB
:1003000085E60E943C0AD201E8E7F8E10E94500A23
:1003100085E60E94400A0E946105229685E60E94B9
:100320003C0AD201EEEAF8E10E94500AD2010E9492
:10033000CF09E6EBF8E10E94500A85E60E94400AE8
:100340000E946105229685E60E943C0AD201EAECF1
:10035000F8E10E94500AD2010E94CF09E0EDF8E1D5
:100360000E94500A85E60E94400A0E94610522967A
:1003700085E60E943C0AD201E8EDF8E10E94500AAD
:10038000D2010E94CF09E6EEF8E10E94500A85E60C
:100390000E94400A0E946105229685E60E943C0A5E
:1003A000D201EAEFF8E10E94500A85E60E94400A75
:1003B0000E946105229685E60E943C0A0C94580230
:1003C000EAE2F9E10E94650B11F00C94F701E0E01C
:1003D000F1E0D2010E94BE0A85E60E94400A0E9416
:1003E0006105229685E60E943C0A0C945802E4E3DB
:1003F000F9E10E94650B11F00C940E02E1E0F1E0CE
:10040000D2010E94BE0A85E60E94400A0E94610550
:10041000229685E60E943C0A0C945802E2E4F9E137
:100420000E94650B11F00C942502A5E9B2E00E9430
:10043000040BA1E0B1E00C93E1E0F0E0A1E0B1E059
:100440007BE70E944A0B0C945802EEE4F9E10E940B
:10045000650B11F00C944A02A5E9B2E00E94040B6E
:10046000A0E0B1E00C93E0E0F0E0A0E0B1E07BE7D9
:100470000E944A0BD201EAE5F9E10E94500A85E6A2
:100480000E94400A0E946105229685E60E943C0A6D
:100490000C945802D201EEE5F9E10E94500A85E67B
:1004A0000E94400A0E946105229685E60E943C0A4D
:1004B000289886E60E94400AEAEBF1E003E0A88172
:1004C000B9810E943B0BA881B981EAE6F9E10E945B
:1004D000650B0FB686E6481A80E0580A22960FBED2
:1004E00011F00C941403EAEBF1E09BE300E135E03A
:1004F000A4E8B2E00E94810BA9EDB2E02C93A5E93B
:10050000B2E00E94040BA0E0B1E04C9155276627B1
:1005100077270E949B0A11F00C941403289AA6EAEC
:10052000B2E0EEE6F9E10E94650B11F00C94AB022B
:1005300081E08093DF02D201EAE5F9E10E94500AEE
:1005400085E60E94400A0E946105229685E60E9487
:100550003C0A0C941303E2E7F9E10E94650B11F0E9
:100560000C94C50280E08093DF02D201EAE5F9E154
:100570000E94500A85E60E94400A0E946105229668
:1005800085E60E943C0A0C941303E8E7F9E10E9417
:10059000650B11F00C940503D201ECE7F9E10E9420
:1005A000500AE0E0F1E0D2010E94CF090E94BE0AA9
:1005B000D2010E94CF09EEE7F9E10E94500AE4E17E
:1005C000FBE0AFEDB2E08C9199270E94820AD20144
:1005D0000E94CF090E94500AD2010E94CF09EEE783
:1005E000F9E10E94500AE4E0F1E0D2010E94CF0953
:1005F0000E94360B85E60E94400A0E946105229601
:1006000085E60E943C0A0C941303D201EEE5F9E161
:100610000E94500A85E60E94400A0E9461052296C7
:1006200085E60E943C0A28980091DE02003080E0B6
:1006300010F009F081E08F930091DF02003080E03C
:1006400010F009F081E09F918923882311F40C9424
:100650001F055F9AA4E0B1E088278C9381E0809326
:100660008C0100918C01033018F011F00C9481047E
:1006700000917C00007FACE8B1E0AD90BB24ACE819
:10068000B1E0AA0DBB1D8C9190E0890F0827009363
:100690007C000E94560AACE8B1E0AD90BB24A0E912
:1006A000B1E0AA0CBB1CAA0DBB1D8D939C93ACE8BA
:1006B000B1E0AD90BB24A0E9B1E0AA0CBB1CAA0D2F
:1006C000BB1D8D919C91ACE8B1E0AD90BB24AAE933
:1006D000B1E0AA0CBB1CAA0DBB1D8D939C93ACE88A
:1006E000B1E0AD90BB24AAE9B1E0AA0CBB1CAA0DF5
:1006F000BB1D0D911C91ACE8B1E0AD90BB24A4EA08
:10070000B1E0AA0CBB1CAA0DBB1D4D915C91041B52
:10071000150BACE8B1E0AD90BB24A0E9B1E0AA0CA8
:10072000BB1CAA0DBB1D0D931C93ACE8B1E0AD90B2
:10073000BB24AEEAB1E0AA0CBB1CAA0DBB1D0D91F7
:100740001C91ACE8B1E0AD90BB24A0E9B1E0AA0CEB
:10075000BB1CAA0DBB1D4D915C91040F151FACE88D
:10076000B1E0AD90BB24AEEAB1E0AA0CBB1CAA0D6F
:10077000BB1D0D931C93ACE8B1E0AD90BB24AEEA79
:10078000B1E0AA0CBB1CAA0DBB1D0D911C91ACE8DD
:10079000B1E0AD90BB24A6E8B1E0AA0DBB1D4D9120
:1007A00055270E949509ACE8B1E0AD90BB24A0E9C3
:1007B000B1E0AA0CBB1CAA0DBB1D4D935C93ACE829
:1007C000B1E0AD90BB24A4EAB1E0AA0CBB1CAA0D19
:1007D000BB1D0D911C91ACE8B1E0AD90BB24A0E92C
:1007E000B1E0AA0CBB1CAA0DBB1D4D915C91040F7E
:1007F000151FACE8B1E0AD90BB24A4EAB1E0AA0CAF
:10080000BB1CAA0DBB1D0D931C93ACE8B1E0AD90D1
:10081000BB24A0E9B1E0AA0CBB1CAA0DBB1D0D9125
:100820001C91ACE8B1E0AD90BB24A6E8B1E0AA0D04
:10083000BB1D4D9155270E94460AACE8B1E0AD9032
:10084000BB24A0E9B1E0AA0CBB1CAA0DBB1D0D93F3
:100850001C93ACE8B1E0AD90BB24AEEAB1E0AA0CC9
:10086000BB1CAA0DBB1D0D911C91ACE8B1E0AD9075
:10087000BB24A0E9B1E0AA0CBB1CAA0DBB1D4D9185
:100880005C91041B150BACE8B1E0AD90BB24AEEA63
:10089000B1E0AA0CBB1CAA0DBB1D0D931C93ACE8C8
:1008A000B1E0AD90BB24A4EAB1E0AA0CBB1CAA0D38
:1008B000BB1D8D919C91AAEDB2E08D939C93EEE1CE
:1008C000FBE0AAEDB2E08D919C91A2E0B1E00E9424
:1008D0007D0AE2E0F1E0A4E0B1E00E94CF090E94CD
:1008E000B70AA4E0B1E00E94CF09EEE7F9E10E9467
:1008F000500AACE8B1E08C918F5F8C9310F40C94AB
:10090000310300E014E00F931F9300917C00007FFF
:100910008091900190E0890F082700937C000E944D
:10092000560A482F592F1F910F91041B150BA8E948
:10093000B1E00D931C93E8E9F1E0A4E0B1E00E947E
:10094000CF090E94B70AA4E0B1E00E94CF09EEE708
:10095000F9E10E94500A00E014E00F931F93009108
:100960007C00007F8091910190E0890F082700931F
:100970007C000E94560A482F592F1F910F91041B8B
:10098000150BAAE9B1E00D931C93EAE9F1E0A4E0AC
:10099000B1E00E94CF090E94B70AA4E0B1E00E9432
:1009A000CF09EEE7F9E10E94500A5F9880E080935A
:1009B000DE020091DF02013018F011F00C94E20425
:1009C0000C94E50481E08093DF020091DC020431A5
:1009D00018F011F00C94EE040C941A05D201E0E822
:1009E000F9E10E94500AE4E1FBE0AFEDB2E08C9146
:1009F00099270E94820AD2010E94CF090E94500AC0
:100A0000D2010E94CF09EEE7F9E10E94500AE4E02A
:100A1000F1E0D2010E94CF090E94360B85E60E94C8
:100A2000400A0E946105229685E60E943C0A80E009
:100A30008093DC02ACEDB2E08C918F5F8C930C94D0
:100A4000EC000F921F922F923F924F925F927F92F3
:100A5000AF92BF920F931F932F933F934F935F9348
:100A60006F937F938F939F93AF93BF93CF93DF93B6
:100A7000EF93FF938FB78F9388E59EE9909385005E
:100A80008093840081E08093DE028F918FBFFF917D
:100A9000EF91DF91CF91BF91AF919F918F917F9116
:100AA0006F915F914F913F912F911F910F91BF9047
:100AB000AF907F905F904F903F902F901F900F903E
:100AC00018955D9AA881B9810E941B0A0E94210A8B
:100AD0008091C00085FFFCCFEF93FF93E4ECF0E042
:100AE0000E942B0AFF91EF915D98089500EA16E8A5
:100AF00021E030E0A0EEB2E00D931D932D933C93E6
:100B00000E947C0BAAEBB1E0E4E60E94D8090E94A7
:100B1000790B089573746F700072756E0000BA05DA
:100B2000B005A5059A05900586057C057205680542
:100B30005F0555054C0543053A05310528051F0598
:100B400017050E050605FE04F604EE04E604DE04B1
:100B5000D604CF04C704C004B904B204AB04A4048F
:100B60009D0496048F04880482047B0475046F043A
:100B7000680462045C04560450044A0444043F04BC
:100B8000390433042E04280423041D041804130418
:100B90000D0408040304FE03F903F403EF03EA035E
:100BA000E503E103DC03D703D303CE03C903C50385
:100BB000C103BC03B803B303AF03AB03A703A30391
:100BC0009E039A03960392038E038A03860383038C
:100BD0007F037B037703730370036C036803650370
:100BE00061035E035A035703530350034C03490345
:100BF000460342033F033C033803350332032F030C
:100C00002C032903250322031F031C0319031603C6
:100C1000130310030D030B03080305030203FF0274
:100C2000FC02FA02F702F402F102EF02EC02E9021E
:100C3000E702E402E102DF02DC02DA02D702D502B7
:100C4000D202D002CD02CB02C802C602C302C10248
:100C5000BF02BC02BA02B802B502B302B102AE02D0
:100C6000AC02AA02A802A502A302A1029F029D0251
:100C70009A02980296029402920290028E028C02CC
:100C80008A02880286028402820280027E027C023C
:100C90007A02780276027402720270026E026C02AC
:100CA0006A02680266026502630261025F025D0217
:100CB0005B025A02580256025402520251024F027B
:100CC0004D024B024A0248024602450243024102DB
:100CD0003F023E023C023A02390237023602340237
:100CE000320231022F022D022C022A02290227028F
:100CF00026022402220221021F021E021C021B02E3
:100D000019021802160215021302120210020F0233
:100D10000D020C020B020902080206020502030280
:100D200002020102FF01FE01FC01FB01FA01F801D0
:100D3000F701F501F401F301F101F001EF01ED011B
:100D4000EC01EB01E901E801E701E501E401E30160
:100D5000E101E001DF01DE01DC01DB01DA01D901A3
:100D6000D701D601D501D301D201D101D001CF01E4
:100D7000CD01CC01CB01CA01C801C701C601C50123
:100D8000C401C201C101C001BF01BE01BC01BB0160
:100D9000BA01B901B801B701B501B401B301B2019B
:100DA000B101B001AF01AD01AC01AB01AA01A901D4
:100DB000A801A701A601A401A301A201A101A0010C
:100DC0009F019E019D019C019B019A019801970141
:100DD00096019501940193019201910190018F0177
:100DE0008E018D018C018B018A01890187018601A9
:100DF0008501840183018201810180017F017E01DF
:100E00007D017C017B017A0179017801770176010E
:100E10007501740173017201710170016F016E013E
:100E20006D016C016B016A0169016801670166016E
:100E300065016401630163016201610160015F0199
:100E40005E015D015C015B015A01590158015701C6
:100E500056015501540153015201510151015001F4
:100E60004F014E014D014C014B014A01490148011E
:100E70004701460145014501440143014201410149
:100E800040013F013E013D013C013B013B013A0174
:100E9000390138013701360135013401330132019E
:100EA0003201310130012F012E012D012C012B01C6
:100EB0002A012A01290128012701260125012401EF
:100EC000230123012201210120011F011E011D0117
:100ED0001C011C011B011A0119011801170116013F
:100EE0001601150114011301120111011001100165
:100EF0000F010E010D010C010B010A010A0109018C
:100F000008010701060105010401040103010201B2
:100F100001010001FF00FF00FE00FD00FC00FB00DE
:100F2000FA00F900F900F800F700F600F500F40007
:100F3000F400F300F200F100F000EF00EE00EE002C
:100F4000ED00EC00EB00EA00E900E900E800E70052
:100F5000E600E500E400E400E300E200E100E00078
:100F6000DF00DF00DE00DD00DC00DB00DA00DA009D
:100F7000D900D800D700D600D500D400D400D300C3
:100F8000D200D100D000CF00CF00CE00CD00CC00E9
:100F9000CB00CA00CA00C900C800C700C600C5000F
:100FA000C500C400C300C200C100C000C000BF0033
:100FB000BE00BD00BC00BB00BA00BA00B900B8005A
:100FC000B700B600B500B500B400B300B200B10080
:100FD000B000AF00AF00AE00AD00AC00AB00AA00A7
:100FE000AA00A900A800A700A600A500A400A400CC
:100FF000A300A200A100A0009F009E009E009D00F3
:101000009C009B009A009900980098009700960019
:1010100095009400930092009200910090008F0040
:101020008E008D008C008B008B008A008900880068
:101030008700860085008400840083008200810090
:1010400080007F007E007D007C007C007B007A00B9
:1010500079007800770076007500740073007300E3
:101060007200710070006F006E006D006C006B000C
:101070006A00690069006800670066006500640036
:1010800063006200610060005F005E005D005D0063
:101090005C005B005A00590058005700560055008C
:1010A000540053005200510050004F004E004D00BC
:1010B0004C004B004B004A004900480047004600E6
:1010C0004500440043004200410040003F003E0014
:1010D0003D003C003B003A00390038003700360044
:1010E0003500340033003200310030002F002E0074
:1010F0002D002C002B002A002900280027002500A5
:10110000240023002200210020001F001E001D00DB
:101110001C001B001A00190018001700160014000C
:1011200013001200110010000F000E000D000C0043
:101130000B000A0008000700060005000400030079
:1011400002000100FFFFFEFFFDFFFCFFFBFFFAFFB7
:10115000F9FFF7FFF6FFF5FFF4FFF3FFF2FFF0FFF3
:10116000EFFFEEFFEDFFECFFEAFFE9FFE8FFE7FF2F
:10117000E6FFE4FFE3FFE2FFE1FFDFFFDEFFDDFF6D
:10118000DCFFDBFFD9FFD8FFD7FFD5FFD4FFD3FFAC
:10119000D2FFD0FFCFFFCEFFCDFFCBFFCAFFC9FFED
:1011A000C7FFC6FFC5FFC3FFC2FFC1FFBFFFBEFF32
:1011B000BDFFBBFFBAFFB9FFB7FFB6FFB4FFB3FF78
:1011C000B2FFB0FFAFFFADFFACFFABFFA9FFA8FFC1
:1011D000A6FFA5FFA3FFA2FFA1FF9FFF9EFF9CFF0D
:1011E0009BFF99FF98FF96FF95FF93FF92FF90FF5B
:1011F0008FFF8DFF8CFF8AFF88FF87FF85FF84FFAD
:1012000082FF81FF7FFF7DFF7CFF7AFF78FF77FF02
:1012100075FF74FF72FF70FF6FFF6DFF6BFF69FF5B
:1012200068FF66FF64FF63FF61FF5FFF5DFF5CFFB8
:101230005AFF58FF56FF54FF53FF51FF4FFF4DFF1A
:101240004BFF49FF48FF46FF44FF42FF40FF3EFF80
:101250003CFF3AFF38FF36FF34FF32FF30FF2EFFEE
:101260002CFF2AFF28FF26FF24FF22FF20FF1EFF5E
:101270001CFF1AFF18FF16FF14FF11FF0FFF0DFFD1
:101280000BFF09FF06FF04FF02FF00FFFDFEFBFE50
:10129000F9FEF6FEF4FEF2FEEFFEEDFEEBFEE8FEDA
:1012A000E6FEE3FEE1FEDEFEDCFED9FED7FED4FE66
:1012B000D2FECFFECDFECAFEC7FEC5FEC2FEBFFEF9
:1012C000BDFEBAFEB7FEB4FEB2FEAFFEACFEA9FE96
:1012D000A6FEA3FEA1FE9EFE9BFE98FE95FE92FE3C
:1012E0008FFE8CFE89FE85FE82FE7FFE7CFE79FEEF
:1012F00076FE72FE6FFE6CFE68FE65FE62FE5EFEAE
:101300005BFE57FE54FE50FE4DFE49FE46FE42FE79
:101310003EFE3BFE37FE33FE2FFE2BFE28FE09D09D
:101320000E94460A00FC10D0089503D01ED001F898
:10133000F9CF0024E89457FF02C009D0689400F860
:101340000BD010F80124089502D009D008955095CB
:1013500040954F5F5F4F0895E89417FF08950095FB
:1013600010950F5F1F4F68940895352F242FE89430
:10137000452B11F468940895512F402F0027112711
:1013800080E1440F551F001F111F021B130B41600A
:1013900018F4020F131F4E7F8A9599F708958F93C3
:1013A0008D918823E9F711978F910895A0E0B6E019
:1013B0001AD0803079F08D3039F0EE23C9F38D9357
:1013C000EA9563FE41D0F4CF63FC04C08DE03CD0CD
:1013D0008AE03AD088278C93089581E00090C0007D
:1013E00007FE882708950F931F932F933F93AF9382
:1013F000BF93A0EEB2E00D911D912D913C91009014
:10140000C00007FC0BC08827802B812B822B832BED
:1014100041F00150104020403040F1CF8091C60093
:1014200001C08827BF91AF913F912F911F910F91DC
:101430000895A0E0B6E08D91882311F005D0FBCF90
:1014400008958DE001D08AE00090C00005FEFCCF39
:101450008093C60008953197F1F70895689462F873
:101460000895E89462F808950191119121913081D5
:101470000895481A590A0895481A8827580A08955D
:1014800099275A924A92480E591E08950F92B80110
:10149000469F8001479F100D569F100D0F90089595
:1014A0000E946D0A0D920020D9F7089570917A007C
:1014B000706470937A0000907A0006FCFCCF709103
:1014C0007A00706470937A0000907A0006FCFCCF7A
:1014D00080917800909179000895C8953196002008
:1014E000089591E005C092E003C094E001C098E047
:1014F000F4DF0D929A95E1F70895880F991FE80F90
:10150000F91FF1CF0196019721F00E946D0AE9F7CA
:10151000FACF0895819104D08D938823D9F7089547
:10152000813418F08B3508F480620895040F151F7C
:10153000261F371F08950417150726073707089534
:10154000000F111F221F331F08950095109520953D
:1015500030950F5F1F4F2F4F3F4F0895019110811E
:101560000FC00E94340A0EC00E94340A10C00191BC
:10157000108117FF05C03FEF2FEF04C00081112736
:101580002227332737FF03C0E0DF8DE28D93CF9210
:10159000DF92EF92AA24BB24CC24DD24EE2440E287
:1015A000EAE0FF2755E093E38081890F87FD9F7074
:1015B00083FD907F891B81935A95A9F7C1DFAA1CEF
:1015C000BB1CCC1CDD1CEE1C4A9551F7E894EFE0E7
:1015D000FF2782910CD0EB30E0F71EF068948A2D43
:1015E0000AD088278D93EF90DF90CF900895982FA1
:1015F000829501D0892F8F70805D26F0803309F4A9
:10160000089568948D930895002711272227332782
:101610001DD08A3328F4803318F005D015D0F9CFC7
:101620000EF493CF089580538F93402F512F622F44
:10163000732F86DF85DF7ADF83DF8F919927080F8D
:10164000191F291F391F08958D910895E894FCDF13
:101650008032E9F38B32D9F38930C9F38D3211F43A
:101660006894F2CF089588278D93089581918D9382
:101670008823E1F70895002331F081918D930A9535
:101680008823C9F70895EFCFF999FECFE1BDF2BDE8
:101690003196089591E001C092E07B3751F47FB715
:1016A000F894F2DF8D9180BDFA9AF99A9A95C9F76C
:1016B0007FBF7727089591E001C092E0E5DFF89AB7
:1016C00080B58D939A95D1F70895689401C0E894F8
:1016D000AF93BF938D9116F0919103C00E946D0A54
:1016E000902D891718F011F48823A1F7BF91AF91BD
:1016F0000895E89463F80895689463F808956894E9
:1017000001C0E8942227102F231709F4089526F426
:101710000E946D0A802D01C08191803081F089176F
:1017200041F070E08D931A9591F7239571E01D9328
:10173000EACF01D0E8CF703011F0772708957723F2
:1017400031F42395882713958D931A95E9F7089519
:101750006174000061742B68656C703F00006174F7
:101760002B616464723F202D2061736B206E6F6467
:101770006520616464726573730061742B646566CF
:1017800073746174653F202D2061736B20646566FE
:1017900020636F6E76657273696F6E207374617407
:1017A0006520616674657220706F776572206F6E58
:1017B000000061742B7365747374617465202D204F
:1017C00073657420302F31206465662E2073746138
:1017D000746520616674657220706F776572206F22
:1017E0006E0061742B73657461646472202D2073C4
:1017F000657420302D323535206E6F64652061644C
:10180000647265737300636D643B6E3B72756E202A
:101810002D2052554E20636F6E74696E756520637E
:101820006F6E76657273696F6E2E206E202D206D3F
:101830006F64756C65206164647265737300636DB9
:10184000643B6E3B73746F70202D2053544F5020B7
:10185000636F6E74696E756520636F6E7665727303
:10186000696F6E2E206E202D206D6F64756C652063
:101870006164647265737300636D643B6E3B67659E
:1018800074202D2041736B20646174612066726F37
:101890006D206D6F64756C652E206E202D206D6F30
:1018A00064756C65206164647265737300006461C3
:1018B00074653A20000030392D30342D3230323406
:1018C0002032323A34343A3038007665723A2000A9
:1018D000322E312E32380000736F757263652066C8
:1018E000696C653A20003543485F53454E534F526B
:1018F00020554E49542E424153004976616E205086
:1019000072696E74733B202B333830363631353480
:10191000323239343B207072696E632E76614067D3
:101920006D61696C2E636F6D000061742B6164647E
:10193000723F000061742B64656673746174653F67
:10194000000061742B736574737461746500617455
:101950002B7365746164647200004F4B0000626118
:1019600064207265717965737400636D64007275CB
:101970006E0073746F7000006765740053003B0065
:0419800053303B00A5
:00000001FF
