:100000000C94FE001895000018950000189500004B
:10001000189500001895000018950000189500002C
:1000200018950000189500000C9459501895000080
:10003000189500001895000018950000189500000C
:1000400018950000189500001895000018950000FC
:1000500018950000189500001895000018950000EC
:1000600018950000189500001895000018950000DC
:1000700018950000189500001895000018950000CC
:1000800018950000189500001895000018950000BC
:1000900018950000189500001895000018950000AC
:1000A000189500001895000018950000189500009C
:1000B000189500001895000018950000189500008C
:1000C000189500001895000018950000189500007C
:1000D000189500001895000018950000189500006C
:1000E000189500001895000018950000189500005C
:1000F000189500001895000018950000189500004C
:10010000189500001895000018950000189500003B
:10011000189500001895000018950000189500002B
:10012000189500001895000018950000189500001B
:10013000189500001895000018950000189500000B
:1001400018950000189500001895000018950000FB
:1001500018950000189500001895000018950000EB
:1001600018950000189500001895000018950000DB
:1001700018950000189500001895000018950000CB
:1001800018950000189500001895000018950000BB
:1001900018950000189500001895000018950000AB
:1001A000189500001895000018950000189500009B
:1001B000189500001895000018950000189500008B
:1001C000189500001895000018950000189500007B
:1001D000189500001895000018950000189500006B
:1001E000189500001895000018950000189500005B
:1001F0001895000018950000189500008FEF8DBF2E
:10020000C0E8E8E94E2E8FE58EBFDDE5F9E55F2E0B
:10021000009078008FE38093780081E078ED74BFE0
:1002200080938000EEEFFFE3A0E0B0E288278D939B
:100230003197E9F7662470E07093520087E0A0E5FB
:10024000B0E08D939C9197708917E1F780915100F0
:1002500081FFFCCF78ED74BF71E07093400078EDC2
:1002600074BF70E07093410070E47093A1067091C8
:10027000CC0178607093CC0172E07093220672E03A
:100280007093250671E07093220671E07093250645
:1002900071E07093020671E07093050672E070934E
:1002A000020672E07093050674E07093020674E033
:1002B0007093050674E07093210678E07093210630
:1002C00070E27093010670E17093010672E0709322
:1002D000610671E07093410671E07093450672E02B
:1002E0007093410672E07093450674E07093420685
:1002F00078E07093A10688E1A4EABBE08D9383E0E7
:100300008D938EE28D9388E98C9374E07093A506AB
:1003100078E07093A50670EB7093410670E17093DE
:10032000450680ED8093C00870E17093810671E00E
:100330007093A10670E17093A10672E07093A1061C
:1003400070E2709381060E94D04C81EA0E94FC4CBE
:1003500086EA0E94FC4C80EC0E94FC4C82EA0E94DF
:10036000FC4C86E20E94FC4C81E090E00E94D44B61
:1003700087E80E94FC4C87E20E94FC4C81E090E000
:100380000E94D44B88EF0E94FC4C80E00E94FC4C01
:100390008FE20E94FC4C81E090E00E94D44B80E40C
:1003A0000E94FC4C80EB0E94FC4C80E00E94FC4CC4
:1003B00080E10E94FC4C88EC0E94FC4C80EA0E9488
:1003C000FC4C81E80E94FC4C81E20E94FC4C0E94A3
:1003D000404DE0E0FCE20E944350A2EAB0E2ED931F
:1003E000FD938BB78C9378ED74BF81E0A0EFB0E004
:1003F0008C9382E08C9384608C93EF93FF93ECE377
:10040000F6E00E94AA4BFF91EF918EE18C938091D0
:10041000F10083FFFCCF0FEF13E020E030E0A8E213
:10042000B4E00D931D932D933C9300E010E020E089
:1004300030E0ACE2B4E00D931D932D933C9371E05A
:10044000709320048091210480FDFCCF80912204D0
:100450008C7F81608093220470912004716070937E
:100460002004A7EBB0E2ECE2F7EA0E9443500E94BE
:10047000524F0E9438500E94064E83E0E0E0F6E0C2
:100480000E94C34FA9ECB0E20E943850E5EDF0E2C3
:1004900098E00E94C2510E943850E0E0F0E0A1ECE8
:1004A000B0E20E94A74E0E943850E1E0F0E0A2ECDA
:1004B000B0E20E94A74E0E943850E2E0F0E0A3ECC8
:1004C000B0E20E94A74E0E943850E3E0F0E0A4ECB6
:1004D000B0E20E94A74E0E943850E4E0F0E0A6ECA3
:1004E000B0E20E94A74E0E943850E5E0F0E0A0EC98
:1004F000B0E20E94A74E0091C4200A3580E010F0BF
:1005000009F081E08F930091C6200A3081E008F065
:1005100080E09F91892B882311F40C9401030E94A1
:100520003850E0E0F0E070E070930220A2E0B0E22A
:100530000E948A4E0E943850E1E0F0E070E0709333
:100540000220A2E0B0E20E948A4E0E943850E2E00F
:10055000F0E070E070930220A2E0B0E20E948A4EC8
:100560000E943850E3E0F0E070E070930220A2E0D7
:10057000B0E20E948A4E0E943850E4E0F0E074E15C
:1005800070930220A2E0B0E20E948A4E0E9438508E
:10059000E4E0F0E074EB70930220A2E0B0E20E948D
:1005A0008A4E0E943850E0E0F0E0A1ECB0E20E94F8
:1005B000A74E0E943850E1E0F0E0A2ECB0E20E94C9
:1005C000A74E0E943850E2E0F0E0A3ECB0E20E94B7
:1005D000A74E0E943850E3E0F0E0A4ECB0E20E94A5
:1005E000A74E0E943850E4E0F0E0A6ECB0E20E9492
:1005F000A74E0E943850E5E0F0E0A0ECB0E20E9487
:10060000A74E8091C6208093EE2078ED74BF75E2EE
:100610007093800071E07093A200789480918000C4
:10062000836078ED74BF80938000ABEEB0E2E6E3C8
:10063000F7EA0E9443500E94524F72E070936506A1
:10064000E0E0FCE20E944350A2EAB0E2ED93FD93A9
:100650008BB78C9382E08093A52085E08093A620C1
:1006600088278093A720A0E8B9E50E943850E9ECDC
:10067000F0E20E94A0510E94934BA0E8B9E50E94CD
:100680003850EAECF0E20E94A0510E94934BA0E89F
:10069000B9E50E943850EBECF0E20E94A0510E94B4
:1006A000934BA0E8B9E50E943850ECECF0E20E94D0
:1006B000A0510E94934BA0E8B9E50E943850EDECA0
:1006C000F0E20E94A0510E94934BA0E8B9E50E947D
:1006D0003850EEECF0E20E94A0510E94934BA0E84B
:1006E000B9E50E943850EFECF0E20E94A0510E9460
:1006F000934BA0E8B9E50E943850E0EDF0E20E948B
:10070000A0510E94934BA8E6B0E2BA93AA930E942C
:100710006C12229684E190E00E94D44BA8E6B0E2ED
:10072000BA93AA930E9487152296E2E0F0E00E9415
:10073000A24B0E94404DA6E0B1E20E94634BA895F7
:100740000091C4204091C320041BA5ECB0E20C939F
:10075000A8E2B6E00C9101FB16F00C94BD03ADE6E7
:10076000B0E28C9186FBA4E2B6E08C9183F98C9385
:1007700070E2709306060C94C90378E07093260625
:10078000A7E0B1E28C9186FBA4E0B6E08C9185F9FC
:100790008C9300917B200A3018F011F00C94D20356
:1007A0000C94DB03A7E0B1E28C9185FBA4E0B6E0FA
:1007B0008C9184F98C930091EE20003011F00C9410
:1007C000E60372E0709366060C94E90372E070939E
:1007D0006506A8E2B6E00C9100FB16F00C94130439
:1007E00086E990E00E94D44B81E0809305217091CE
:1007F0006D20706470936D2081E08093EF20A0ECF9
:10080000B0E20D9111274AE050E00E94484FA7EC5A
:10081000B0E20D931C93ABEEB0E2E8E3F7EA0E947E
:1008200043500E94524F00910521003011F00C946A
:10083000260470916D207F7B70936D20ABEEB0E24B
:10084000E6E3F7EA0E9443500E94524F4091C120D4
:1008500000919F20041710F40C94310482E08093DF
:10086000052100910521023011F00C946E04409195
:10087000C42000919F20041710F40C944C04ABEE9C
:10088000B0E2E6E3F7EA0E9443500E94524F7091B3
:100890006D207F7B70936D204091C52000919F203B
:1008A000041718F011F00C946204ABEEB0E2E8E328
:1008B000F7EA0E9443500E94524F70916D2070647D
:1008C00070936D204091C22000919F20041718F072
:1008D00011F00C946E0480E08093052100910521B5
:1008E000053011F00C947C0488E08093ED20709129
:1008F0006D207F7B70936D2000910521033011F0F6
:100900000C94850480E080930521A8E0B6E00C916A
:1009100001FB81E00EF080E08F93A8E0B6E00C913F
:1009200002FB81E00EF080E09F91892B8F93A8E07D
:10093000B6E00C9100FB81E00EF080E09F91892BE6
:100940008F93A8E2B6E00C9100FB81E00EF080E00E
:100950009F91892B882311F40C94B5048091C620B3
:100960008093EE2081E08093EF20A8E0B6E00C9128
:1009700001FB81E00EF080E08F930091ED200130CB
:1009800081E009F080E09F9189238F930091C4203A
:10099000003581E010F009F080E09F9189238823E1
:1009A00011F40C94DC0486E990E00E94D44BA4EC92
:1009B000B0E28C918F5F8C93A8E0B6E00C9102FBC3
:1009C00081E00EF080E08F930091ED20013081E016
:1009D00009F080E09F9189238F930091C42000301B
:1009E00081E008F480E09F918923882311F40C941E
:1009F000020586E990E00E94D44B8091C42081508A
:100A00008093C420A8E0B6E00C9101FB81E00EF0D9
:100A100080E08F930091ED20023081E009F080E0CA
:100A20009F9189238F930091C3200A3081E010F0B9
:100A300009F080E09F918923882311F40C94290503
:100A400086E990E00E94D44BA3ECB0E28C918F5FDA
:100A50008C93A8E0B6E00C9102FB81E00EF080E000
:100A60008F930091ED20023081E009F080E09F91AA
:100A700089238F930091C320003081E008F480E047
:100A80009F918923882311F40C944F0586E990E007
:100A90000E94D44B8091C32081508093C320A8E052
:100AA000B6E00C9101FB81E00EF080E08F930091A5
:100AB000ED20033081E009F080E09F9189238F933E
:100AC0000091C120003581E010F009F080E09F9195
:100AD0008923882311F40C94760586E990E00E941E
:100AE000D44BA1ECB0E28C918F5F8C93A8E0B6E080
:100AF0000C9102FB81E00EF080E08F930091ED20DD
:100B0000033081E009F080E09F9189238F93009169
:100B1000C120003081E008F480E09F918923882380
:100B200011F40C949C0586E990E00E94D44B8091CE
:100B3000C12081508093C120A8E0B6E00C9101FB58
:100B400081E00EF080E08F930091ED20043081E091
:100B500009F080E09F9189238F930091C220003596
:100B600081E010F009F080E09F918923882311F43F
:100B70000C94C30586E990E00E94D44BA2ECB0E24D
:100B80008C918F5F8C93A8E0B6E00C9102FB81E022
:100B90000EF080E08F930091ED20043081E009F0A9
:100BA00080E09F9189238F930091C220003081E0E3
:100BB00008F480E09F918923882311F40C94E905BF
:100BC00086E990E00E94D44B8091C22081508093AE
:100BD000C220A8E0B6E00C9101FB81E00EF080E0BD
:100BE0008F930091ED20053081E009F080E09F9126
:100BF00089238F930091C6200C3381E010F009F017
:100C000080E09F918923882311F40C94100686E9D3
:100C100090E00E94D44BA6ECB0E28C918F5F8C9355
:100C2000A8E0B6E00C9102FB81E00EF080E08F932B
:100C30000091ED20053081E009F080E09F9189234B
:100C40008F930091C6200A3081E008F480E09F91E4
:100C50008923882311F40C94360686E990E00E94DB
:100C6000D44B8091C62081508093C620A8E0B6E086
:100C70000C9101FB81E00EF080E08F930091ED205C
:100C8000063081E009F080E09F9189238F930091E5
:100C9000C0200F3F81E008F080E09F9189238823E6
:100CA00011F40C945C0686E990E00E94D44BA0EC11
:100CB000B0E28C918F5F8C93A8E0B6E00C9102FBC0
:100CC00081E00EF080E08F930091ED20063081E00E
:100CD00009F080E09F9189238F930091C0200A3012
:100CE00081E008F480E09F918923882311F40C941B
:100CF000820686E990E00E94D44B8091C02081500A
:100D00008093C020A8E0B6E00C9101FB81E00EF0DA
:100D100080E08F93A8E0B6E00C9102FB81E00EF03A
:100D200080E09F91892B882311F40C94FE0686E9BC
:100D300090E00E94D44B0091ED20073011F00C940C
:100D4000FE060E943850E0E0F0E0A1ECB0E20E9424
:100D50008A4E0E943850E1E0F0E0A2ECB0E20E943E
:100D60008A4E0E943850E2E0F0E0A3ECB0E20E942C
:100D70008A4E0E943850E3E0F0E0A4ECB0E20E941A
:100D80008A4E0E943850E4E0F0E0A6ECB0E20E9407
:100D90008A4E0E943850E5E0F0E0A0ECB0E20E94FC
:100DA0008A4E0E943850E0E0F0E0A1ECB0E20E94F0
:100DB000A74E0E943850E1E0F0E0A2ECB0E20E94C1
:100DC000A74E0E943850E2E0F0E0A3ECB0E20E94AF
:100DD000A74E0E943850E3E0F0E0A4ECB0E20E949D
:100DE000A74E0E943850E4E0F0E0A6ECB0E20E948A
:100DF000A74E80E08093ED200E94404DA8E0B6E031
:100E00000C9100FB16F00C94170786E990E00E9405
:100E1000D44BADEEB0E28C918F5F8C938091C62065
:100E20008093EE2081E08093EF200E94404D00915E
:100E3000ED20083011F00C94200781E08093ED2024
:100E40008091052180939520A4E2B6E08C9182FBED
:100E5000A5E9B0E28C9185F98C93ADE6B0E28C9176
:100E600086FBA5E9B0E28C9187F98C93A8E2B6E005
:100E70008C9181FBA5E9B0E28C9186F98C9300916D
:100E8000EF20013011F00C94A20A80E08093EF2053
:100E90000091ED20003011F00C94A208EEE3F1E394
:100EA0000E944350A2EAB0E2ED93FD938BB78C937E
:100EB00082E08093A52085E08093A62088278093F8
:100EC000A720ABEEB0E20E94954B82E08093A52074
:100ED00083E28093A62088278093A7200E94385021
:100EE000EFE9F0E2A0E8B9E50E945E510E94934B61
:100EF000EAE3F7EA0E9443500E949B4B0E9438505D
:100F0000E0E0FCE20E944350A2EAB0E2ED93FD93E0
:100F10008BB78C9300910521003011F00C94A10740
:100F200081E08093A52085E08093A6208827809388
:100F3000A720ECE3F7EA0E9443500E949B4B0E94DB
:100F4000385000910521013011F00C94CA0781E05E
:100F50008093A52085E08093A62088278093A720F2
:100F6000E2E5F7EA0E9443500E949B4B0E943850F2
:100F70000E943850E7ECF0E2A0E8B9E50E944E513B
:100F80000E94934BE6E3F7EA0E9443500E949B4B7A
:100F90000E94385000910521023011F00C94E107B5
:100FA00081E08093A52085E08093A6208827809308
:100FB000A720E4E6F7EA0E9443500E949B4B0E9460
:100FC000385086E08093A52085E08093A62088276E
:100FD0008093A720EAE7F7EA0E9443500E949B4BC8
:100FE0000E943850A0E8B9E5AF93BF930E943850F3
:100FF000EAE9F0E20E94F5510E94E34B11E002E0C1
:10100000BF91AF910E94F850E0E8F9E5A0E8B9E59A
:101010000E94BC510E94934BEEE7F7EA0E944350B6
:101020000E949B4B0E94385087E08093A52085E06A
:101030008093A62088278093A720E2E8F7EA0E9401
:1010400043500E949B4B0E9438500E943850E4EC61
:10105000F0E2A0E8B9E50E945E510E94934BEEE7F2
:10106000F7EA0E9443500E949B4B0E94385088E050
:101070008093A52085E08093A62088278093A720D1
:10108000E6E8F7EA0E9443500E949B4B0E943850CA
:101090000E943850E5ECF0E2A0E8B9E50E945E510C
:1010A0000E94934BEEE7F7EA0E9443500E949B4B4D
:1010B0000E94385087E08093A52087E38093A62084
:1010C00088278093A720EAE8F7EA0E9443500E940D
:1010D0009B4B0E9438500E943850E1ECF0E2A0E8AF
:1010E000B9E50E945E510E94934BEEE7F7EA0E9439
:1010F00043500E949B4B0E94385088E08093A5206B
:1011000087E38093A62088278093A720E2E9F7EA67
:101110000E9443500E949B4B0E9438500E943850BE
:10112000E2ECF0E2A0E8B9E50E945E510E94934B28
:10113000EEE7F7EA0E9443500E949B4B0E94385012
:101140000C94A20A0091ED20013081E008F480E0C7
:101150008F930091ED20073081E010F009F080E0DE
:101160009F918923882311F40C94120AE0E0FCE299
:101170000E944350A2EAB0E2ED93FD938BB78C93AB
:1011800081E08093F0200091F0200A3018F011F0F7
:101190000C9400094091ED200091F020041711F00B
:1011A0000C94E608A0EFB0E20D91112742E050E068
:1011B0000E94484FAFEEB0E2A00FB11FEAE9F7EA94
:1011C0000E9443500E94524F0C94F808A0EFB0E2E6
:1011D0000D91112742E050E00E94484FAFEEB0E27F
:1011E000A00FB11FE6E3F7EA0E9443500E94524F5E
:1011F000A0EFB0E28C918F5F8C9310F40C94C30835
:1012000081E08093A52085E08093A62088278093A5
:10121000A720ECE9F7EA0E9443500E949B4B0E94F2
:10122000385082E08093A52085E08093A62088270F
:101230008093A720A1EFB0E20E94954BE6EAF7EA7F
:101240000E9443500E949B4B0E9438500E9438508D
:10125000E4ECF0E2A0E8B9E50E945E510E94934BF5
:10126000E6E3F7EA0E9443500E949B4B0E943850ED
:1012700083E08093A52085E08093A6208827809333
:10128000A720A3EFB0E20E94954BE8EBF7EA0E949B
:1012900043500E949B4B0E9438500E943850E3EC10
:1012A000F0E2A0E8B9E50E945E510E94934BE6E3AC
:1012B000F7EA0E9443500E949B4B0E94385084E002
:1012C0008093A52085E08093A62088278093A7207F
:1012D000A5EFB0E20E94954BEAECF7EA0E9443507A
:1012E0000E949B4B0E9438500E943850E1ECF0E283
:1012F000A0E8B9E50E945E510E94934BE6E3F7EA4D
:101300000E9443500E949B4B0E94385085E080937E
:10131000A52085E08093A62088278093A720A7EFAB
:10132000B0E20E94954BECEDF7EA0E9443500E9418
:101330009B4B0E9438500E943850E2ECF0E2A0E84B
:10134000B9E50E945E510E94934BE6E3F7EA0E94E2
:1013500043500E949B4B0E94385086E08093A5200A
:1013600085E08093A62088278093A720A9EFB0E28C
:101370000E94954BEEEEF7EA0E9443500E949B4B71
:101380000E9438500E943850E6ECF0E2A0E8B9E53F
:101390000E945E510E94934BE6E3F7EA0E9443509D
:1013A0000E949B4B0E94385087E08093A52085E0E7
:1013B0008093A62088278093A720ABEFB0E20E94FD
:1013C000954BE0E0F8EA0E9443500E949B4B0E943C
:1013D00038500E943850E0ECF0E2A0E8B9E50E94F5
:1013E0005E510E94934BE2E1F8EA0E9443500E9452
:1013F0009B4B0E94385088E08093A52085E0809325
:10140000A62088278093A720ADEFB0E20E94954BDD
:10141000E6E1F8EA0E9443500E949B4B0E9438503C
:101420000C94A20A083011F00C94A20AE2ECF8E83D
:101430000E944350A2EAB0E2ED93FD938BB78C93E8
:1014400082E08093A52085E08093A6208827809362
:10145000A720E8E2F8EA0E9443500E949B4B0E94BA
:10146000385083E0E0E0F6E00E94C34FA9ECB0E220
:101470000E943850E5EDF0E298E00E94C251E0E0B1
:10148000FCE20E944350A2EAB0E2ED93FD938BB7D9
:101490008C9384E08093A52085E08093A620882704
:1014A0008093A720A0E8B9E50E943850E9ECF0E26B
:1014B0000E94A0510E94934BA0E8B9E50E943850C9
:1014C000EAECF0E20E94A0510E94934BA0E8B9E53B
:1014D0000E943850EBECF0E20E94A0510E94934B26
:1014E000A0E8B9E50E943850ECECF0E20E94A0516F
:1014F0000E94934BA0E8B9E50E943850EDECF0E271
:101500000E94A0510E94934BA0E8B9E50E94385078
:10151000EEECF0E20E94A0510E94934BA0E8B9E5E6
:101520000E943850EFECF0E20E94A0510E94934BD1
:10153000A0E8B9E50E943850E0EDF0E20E94A05129
:101540000E94934B00916920013011F00C94E20A43
:101550008091952080934A20A0EAB0E211968C9168
:10156000ABE4B0E28C93A0EAB0E28C91ACE4B0E2E0
:101570008C938091C42080934D208091C5208093CE
:101580004E208091C12080934F208091C220809373
:1015900050208091C32080935120A8E6B0E2BA93F6
:1015A000AA9387E492E0D2018D939C9382E00E94FB
:1015B000424F0E94B410249682E00E943E4F80E089
:1015C00080936920A8E4B6E00C9102FB16F40C9419
:1015D000EC0A81E080936A20A8E6B0E2BA93AA936D
:1015E0000E94C50E2296A8E6B0E20C9100FB81E0B5
:1015F0000EF080E08F93A8E6B0E20C9101FB81E051
:101600000EF080E09F91892B882311F40C941E0B1F
:10161000A8E6B0E2BA93AA930E946C12229684E1E3
:1016200090E00E94D44BA8E6B0E2BA93AA930E943D
:101630008715229684E190E00E94D44BA8E6B0E2A0
:10164000BA93AA93AEE6B0E2BA93AA930E94000FAF
:10165000249600916820003018F011F00C94320BA1
:101660000C94320DAEE6B0E20D911C91083452E0BC
:10167000150711F00C94C70CA0E8B9E50E9438508A
:10168000EEE6F0E20E94A25186E08A930E94364E76
:10169000E8E3F8EA0E94435086E08A930E943F4EB6
:1016A0000E9438500E943850E8E6F0E2A0E8B9E520
:1016B0000E945E5186E08A930E94364EECE3F8EA7F
:1016C0000E94435086E08A930E943F4E0E94385009
:1016D000A0E8B9E50E943850E4E5F0E20E94A0518C
:1016E00086E08A930E94364EE0E4F8EA0E94435076
:1016F00086E08A930E943F4E0E943850A0E8B9E5E8
:101700000E943850E5E5F0E20E94A05186E08A93FD
:101710000E94364EE0E4F8EA0E94435086E08A9345
:101720000E943F4E0E943850A0E8B9E50E94385010
:10173000E6E5F0E20E94A05186E08A930E94364ED0
:10174000E0E4F8EA0E94435086E08A930E943F4E0C
:101750000E943850A0E8B9E50E943850E7E5F0E271
:101760000E94A05186E08A930E94364EE0E4F8EA97
:101770000E94435086E08A930E943F4E0E94385058
:10178000A0E8B9E50E943850E8E5F0E20E94A051D7
:1017900086E08A930E94364EE0E4F8EA0E944350C5
:1017A00086E08A930E943F4E0E943850A0E8B9E537
:1017B0000E943850E9E5F0E20E94A05186E08A9349
:1017C0000E94364EE0E4F8EA0E94435086E08A9395
:1017D0000E943F4E0E943850A0E8B9E50E94385060
:1017E000EAE5F0E20E94A05186E08A930E94364E1C
:1017F000E0E4F8EA0E94435086E08A930E943F4E5C
:101800000E943850A0E8B9E50E943850EBE5F0E2BC
:101810000E94A05186E08A930E94364E86E08A9309
:101820000E94474E00915420043010F00C94200C7C
:1018300080915420809305218091C6208093EE20D2
:10184000009155200F3F10F00C942A0C80915520E8
:101850008093C420009156200F3F10F00C94340C5C
:10186000809156208093C320009157200F3F10F0A5
:101870000C943E0C809157208093C12000915820F9
:101880000F3F10F00C94480C809158208093C22098
:10189000009159200F3F10F00C94550C81E080937B
:1018A000EF20809159208093C020009105210130C4
:1018B00011F00C94770CABEEB0E2E8E3F7EA0E948B
:1018C00043500E94524F81E08093EF20A0ECB0E2A1
:1018D0000D9111274AE050E00E94484FA7ECB0E27A
:1018E0000D931C9370916D20706470936D200E9415
:1018F0003850E0E0F0E0A1ECB0E20E948A4E0E9495
:101900003850E1E0F0E0A2ECB0E20E948A4E0E9482
:101910003850E2E0F0E0A3ECB0E20E948A4E0E9470
:101920003850E3E0F0E0A4ECB0E20E948A4E0E945E
:101930003850E5E0F0E0A0ECB0E20E948A4E0E9450
:101940003850E0E0F0E0A1ECB0E20E94A74E0E9427
:101950003850E1E0F0E0A2ECB0E20E94A74E0E9415
:101960003850E2E0F0E0A3ECB0E20E94A74E0E9403
:101970003850E3E0F0E0A4ECB0E20E94A74E0E94F1
:101980003850E5E0F0E0A0ECB0E20E94A74EAEE6F1
:10199000B0E20D911C91093452E0150711F00C943E
:1019A000DE0CA4E5B0E28C9180FBA4E2B6E08C9161
:1019B00082F98C938091552080930020AEE6B0E2AE
:1019C0000D911C91033450E0150711F00C94F90CA3
:1019D00000915420043618F011F00C94F10C0C9482
:1019E000F60C70E1709305060C94F90C70E170939D
:1019F0000606AEE6B0E20D911C91093650E01507DF
:101A000011F00C94320D8091542080937A208091B3
:101A10005520809377208091562080937620809166
:101A2000572080937120809158208093702080915E
:101A300059208093792080915A208093782080E0EB
:101A400080937B200E943850E8E7F0E2A0E8B9E5F7
:101A50000E944E5186E08A930E94364E86E08A9319
:101A60000E94474E0C949B0308950895089581E0C9
:101A7000809369200091EE20003011F40C94470D02
:101A80008091EE2081508093EE200C944C0D80E0EC
:101A90008093ED200E94404D00910020003018F00E
:101AA00011F00C94550D0C945C0D80910020815028
:101AB000809300200C945F0D74E0709326060091D3
:101AC0007B200F3F10F00C946A0DABE7B0E28C91D5
:101AD0008F5F8C9300910521013011F00C94860DDD
:101AE000A7ECB0E20D911C91003050E0150718F002
:101AF00011F00C947D0D0C94830DA7ECB0E20E94C4
:101B00006A4B0C94860D80E08093052170E47093FD
:101B1000A706ADE6B0E28C9185FB16F40C94A30DFC
:101B200083E0E0E0F6E00E94C14E5CEC83E0E0E0A0
:101B3000F6E00E94E64E54E483E0E0E0F6E00E9426
:101B4000E64E0C948B0E83E0E0E0F6E00E94C14E7E
:101B500062FA16F00C94AF0D85E0809305215CECE1
:101B600083E0E0E0F6E00E94E64E5EEB83E0E0E03A
:101B7000F6E00E94E64EA7E1B0E283E0E0E0F6E0A6
:101B800021E02A930E94134FA7E1B0E28C91809349
:101B90009620A7E1B0E283E0E0E0F6E021E02A93BE
:101BA0000E94134FA7E1B0E28C918093972000919F
:101BB0009720083F18F011F00C94E00D0C94F80DEC
:101BC0000FEF40919620041BA6E9B0E20C930FEFB3
:101BD00040919720041BA7E9B0E20C93A8E9B0E27A
:101BE000E2E4F8EA0E9443500E94524F0C94000E27
:101BF000A8E9B0E2E4E4F8EA0E9443500E94524FA0
:101C0000E0E2F7EA0E9443500E9483530E9438505A
:101C1000E6E9F0E2D080EE24FF2400270E945D5226
:101C20000E949552AAE9B0E2DD92ED92FD920D93E9
:101C30000091972040E1049FAEE9B0E20C920E942F
:101C40003850EEE9F0E2D080EE24FF2400270E9415
:101C50005D520E94FF510E943850EAE9F0E20E9472
:101C6000F5510E943553AAE9B0E2DD92ED92FD9262
:101C70000D93A8E9B0E2E2E4F8EA0E9443500E9422
:101C8000D35111F00C94580EE4E2F7EA0E9443504D
:101C90000E9483530E943850EAE9F0E20E94F55115
:101CA0000E943553AAE9B0E2DD92ED92FD920D93C8
:101CB000E8E2F7EA0E9443500E9483530E943850A2
:101CC000EAE9F0E20E94F5510E94EE52DD2CEE2C82
:101CD000FF2C002F0E940652A0EAB0E2DD92EC92A7
:101CE0000E943850EAE9F0E20E940552AFE9B0E202
:101CF000DC920E943850EAE9F0E2A0E8B9E50E94DF
:101D0000F5510E94E34B86E08A930E94364E86E0AE
:101D10008A930E94474EADE6B0E28C9185FB8827FE
:101D200080F9809580FBADE6B0E28C9185F98C93CB
:101D300081E08093EF20089582E080932A2080E65E
:101D400080932B2080E080932C2072E070934606D5
:101D500093E0AAE2B0E20E94B84B72E070934506AD
:101D600082E080932A2080E780932B2080E080937C
:101D70002C2072E07093460693E0AAE2B0E20E9443
:101D8000B84B72E070934506089583E080932A2053
:101D90008DE280932B2080E080932C2072E0709362
:101DA000460692E0AAE2B0E20E94B84B91E0AAE3B4
:101DB000B0E20E94AD4B72E07093450680913A20EC
:101DC000A881B9818C93089583E080932A208CE2C6
:101DD00080932B2072E07093460692E0AAE2B0E274
:101DE0000E94B84B91E0AAE3B0E20E94AD4B72E0D2
:101DF0007093450680913A20A881B9818C9308950B
:101E000083E080932A208CE280932B2072E07093F1
:101E1000460692E0AAE2B0E20E94B84B92E0AAE342
:101E2000B0E20E94AD4B72E070934506AAE3B0E2C7
:101E30008C9183708C9300913A20013011F00C94B6
:101E4000A30F83E080932A2081E680932B2072E009
:101E50007093460692E0AAE2B0E20E94B84B95E089
:101E6000AAE3B0E20E94AD4B72E07093450695E0A4
:101E7000ABE3B0E20E94634FAAE3B0E28C91A88189
:101E8000B9818D9388278C9393E0A881B9810E94B2
:101E9000584FA881B9810D911C91ABE3B0E24D91EF
:101EA0005527040F151FA881B9810D931C9383E05A
:101EB00080932A2080E680932B2080E080932B2043
:101EC00072E07093460693E0AAE2B0E20E94B84B3B
:101ED00092E0AAE3B0E20E94AD4B72E07093450637
:101EE00083E080932A2085E680932B2072E0709314
:101EF000460693E0AAE2B0E20E94B84B98E0A4E55F
:101F0000B0E20E94AD4B72E07093450685E080938D
:101F10002A208CE280932B2081E080932C2080E08B
:101F200080932D2072E07093460694E0AAE2B0E21E
:101F30000E94B84B72E07093450681E0AA81BB8194
:101F40008C930C94B310023011F00C94291083E0A0
:101F500080932A2081E780932B2072E070934606BD
:101F600092E0AAE2B0E20E94B84B95E0AAE3B0E2A8
:101F70000E94AD4B72E07093450695E0ABE3B0E292
:101F80000E94634FAAE3B0E28C91A881B9818D933E
:101F900088278C9393E0A881B9810E94584FA8812B
:101FA000B9810D911C91ABE3B0E24D915527040F1F
:101FB000151FA881B9810D931C9383E080932A207B
:101FC00080E780932B2080E080932B2072E0709339
:101FD000460693E0AAE2B0E20E94B84B92E0AAE380
:101FE000B0E20E94AD4B72E07093450683E08093AF
:101FF0002A2085E780932B2072E07093460693E0B9
:10200000AAE2B0E20E94B84B98E0A4E5B0E20E94D8
:10201000AD4B72E07093450685E080932A208CE2F8
:1020200080932B2082E080932C2080E080932D20D1
:1020300072E07093460694E0AAE2B0E20E94B84BC8
:1020400072E07093450682E0AA81BB818C930C9468
:10205000B310033011F00C94AF1083E080932A206A
:1020600081E780932B2072E07093460692E0AAE20B
:10207000B0E20E94B84B95E0AAE3B0E20E94AD4BFB
:1020800072E07093450695E0ABE3B0E20E94634FC7
:10209000AAE3B0E28C91A881B9818D9388278C93B3
:1020A00093E0A881B9810E94584FA881B9810D9110
:1020B0001C91ABE3B0E24D915527040F151FA88189
:1020C000B9810D931C9383E080932A2080E780934D
:1020D0002B2080E080932B2072E07093460693E0E3
:1020E000AAE2B0E20E94B84B92E0AAE3B0E20E94FA
:1020F000AD4B72E07093450683E080932A2085E71C
:1021000080932B2072E07093460693E0AAE2B0E23F
:102110000E94B84B98E0A4E5B0E20E94AD4B72E09B
:102120007093450685E080932A208CE280932B20D3
:1021300082E080932C2080E080932D2072E07093C9
:10214000460694E0AAE2B0E20E94B84B72E07093B7
:10215000450681E0AA81BB818C930C94B31080E08A
:10216000AA81BB818C93089583E080932A2080E329
:1021700080932B2072E07093460692E0AAE2B0E2D0
:102180000E94B84B91E0A4E5B0E20E94AD4B72E032
:102190007093450682E00E94424FAA81BB8111964E
:1021A0008C91082F112740E051E00E94484FA881F0
:1021B000B9810D931C93A881B9810D911C910F9346
:1021C0001F93AA81BB818C91482F55271F910F9196
:1021D000040F151FA881B9810D931C9395E0A88168
:1021E000B9810E94584F82E080932A2081E3809336
:1021F0002B20A881B98111968C91ACE2B0E28C932E
:10220000A881B9818C91ADE2B0E28C9380E080939B
:102210002E2080E080932F2088E0809330208091D2
:102220004A208093312080914B20809332208091EE
:102230004C208093332080914D20809334208091D6
:102240004E208093352080914F20809336208091BE
:10225000502080933720809151208093382072E065
:10226000709346069FE0AAE2B0E20E94B84B72E08B
:102270007093450685E080932A2080E380932B208D
:1022800088E080932C2088E080932D2072E070936A
:10229000460694E0AAE2B0E20E94B84B72E0709366
:1022A000450683E080932A2080E380932B2072E010
:1022B0007093460692E0AAE2B0E20E94B84B91E029
:1022C000A4E5B0E20E94AD4B72E07093450682E057
:1022D000481A80E0580A2296089582E00E94424FF0
:1022E00081E00E94424F81E3A881B9818C9383E011
:1022F00080932A2080E380932B2072E0709346061F
:1023000092E0AAE2B0E20E94B84B91E0A4E5B0E20C
:102310000E94AD4B72E070934506A4E5B0E20C91CB
:1023200003FB16F00C94AE1183E080932A2080E426
:1023300080932B2072E07093460692E0AAE2B0E20E
:102340000E94B84B91E0A4E5B0E20E94AD4B72E070
:102350007093450681E4A881B9818C93A4E5B0E22D
:102360000C9103FB16F00C94CF1183E080932A208C
:1023700080E580932B2072E07093460692E0AAE2FB
:10238000B0E20E94B84B91E0A4E5B0E20E94AD4BF0
:1023900072E07093450681E5A881B9818C93A4E52C
:1023A000B0E20C9103FB16F40C946212AC81BD8177
:1023B00011968C91082F112740E051E00E94484F60
:1023C000AA81BB810D931C93AA81BB810D911C91A5
:1023D0000F931F93AC81BD818C91482F55271F917E
:1023E0000F91040F151FAA81BB810D931C9395E0DB
:1023F000AA81BB810E94584F82E080932A20A88145
:10240000B9818C9180932B20AA81BB8111968C91EC
:10241000ACE2B0E28C93AA81BB818C91ADE2B0E2D8
:102420008C9380E080932E2080E080932F2082E0A8
:102430008093302080914A208093312080914B20DE
:102440008093322080914C208093332080914D20C6
:102450008093342080914E208093352080914F20AE
:102460008093362080915020809337208091512096
:102470008093382072E0709346069FE0AAE2B0E2B3
:102480000E94B84B72E07093450685E080932A2045
:1024900080E380932B2088E080932C2088E0809339
:1024A0002D2072E07093460694E0AAE2B0E20E940A
:1024B000B84B72E07093450680E0AE81BF818C938B
:1024C0000C94661285E0AE81BF818C9383E0481A3C
:1024D00080E0580A2496089580EC80932A2072E0C8
:1024E0007093460691E0AAE2B0E20E94B84BEF93E7
:1024F000FF93ECE3F0E00E94AA4BFF91EF9172E0B2
:10250000709345068AE090E00E94D44B82E080936D
:102510002A2080E380932B2080E080932C2072E09F
:102520007093460693E0AAE2B0E20E94B84B72E0D4
:102530007093450682E080932A2080E480932B20CC
:1025400080E080932C2072E07093460693E0AAE22C
:10255000B0E20E94B84B72E07093450682E080932F
:102560002A2080E580932B2080E080932C2072E04D
:102570007093460693E0AAE2B0E20E94B84B72E084
:102580007093450682E080932A2080E680932B207A
:1025900080E080932C2072E07093460693E0AAE2DC
:1025A000B0E20E94B84B72E07093450682E08093DF
:1025B0002A2080E780932B2080E080932C2072E0FB
:1025C0007093460693E0AAE2B0E20E94B84B72E034
:1025D0007093450682E080932A208BE280932B2023
:1025E00083E080932C2072E07093460693E0AAE289
:1025F000B0E20E94B84B72E07093450685E080938C
:102600002A2080E680932B2087E680932C2084E08C
:1026100080932D2072E07093460694E0AAE2B0E227
:102620000E94B84B72E07093450685E080932A20A3
:1026300080E780932B2087E680932C2081E0809395
:102640002D2072E07093460694E0AAE2B0E20E9468
:10265000B84B72E07093450685E080932A208FE0A6
:1026600080932B2080EE80932C2080E880932D2077
:1026700072E07093460694E0AAE2B0E20E94B84B82
:1026800072E070934506A881B981BA93AA930E941B
:102690006815229682E080932A2080E080932B2088
:1026A00080E080932C2080E080932D2080E0809338
:1026B0002E2080E080932F2072E07093460696E0F3
:1026C000AAE2B0E20E94B84B72E07093450685E042
:1026D00080932A208FE080932B2080EE80932C2003
:1026E00080E880932D2072E07093460694E0AAE281
:1026F000B0E20E94B84B72E070934506A881B981A0
:10270000BA93AA930E946815229682E080932A20A9
:1027100084E080932B2080E080932C2088E08093BD
:102720002D2080E080932E2080E080932F2072E087
:102730007093460696E0AAE2B0E20E94B84B72E0BF
:102740007093450685E080932A208FE080932B20AC
:1027500080EE80932C2080E880932D2072E070938F
:10276000460694E0AAE2B0E20E94B84B72E0709391
:102770004506A881B981BA93AA930E94681522964A
:1027800082E080932A2088E080932B2080E0809351
:102790002C2080E080932D2080E080932E2080E00C
:1027A00080932F2072E07093460696E0AAE2B0E292
:1027B0000E94B84B72E07093450685E080932A2012
:1027C0008FE080932B2080EE80932C2080E88093F4
:1027D0002D2072E07093460694E0AAE2B0E20E94D7
:1027E000B84B72E07093450683E080932A208EE018
:1027F00080932B2080E080932C2072E0709346061B
:1028000092E0AAE2B0E20E94B84B92E0AAE3B0E202
:102810000E94AD4B72E070934506EF93FF93ECE39B
:10282000F0E00E94AA4BFF91EF9182E080932A2072
:1028300080E180932B2080E080932C2080E08093A7
:102840002D2080E080932E2080E080932F2072E066
:102850007093460696E0AAE2B0E20E94B84B72E09E
:102860007093450685E080932A208FE080932B208B
:1028700080EE80932C2080E880932D2072E070936E
:10288000460694E0AAE2B0E20E94B84B72E0709370
:102890004506A881B981BA93AA930E946815229629
:1028A00082E080932A2084E180932B2080E0809333
:1028B0002C2080E080932D2080E080932E2080E0EB
:1028C00080932F2072E07093460696E0AAE2B0E271
:1028D0000E94B84B72E07093450685E080932A20F1
:1028E0008FE080932B2080EE80932C2080E88093D3
:1028F0002D2072E07093460694E0AAE2B0E20E94B6
:10290000B84B72E070934506A881B981BA93AA9337
:102910000E946815229682E080932A2088E18093A5
:102920002B2080E080932C2080E080932D2080E07D
:1029300080932E2080E080932F2072E070934606D3
:1029400096E0AAE2B0E20E94B84B72E070934506AE
:1029500085E080932A208FE080932B2080EE809367
:102960002C2080E880932D2072E07093460694E03E
:10297000AAE2B0E20E94B84B72E070934506A881CB
:10298000B981BA93AA930E946815229682E0809337
:102990002A2080E280932B2080E080932C2088E006
:1029A00080932D2080E080932E2080E080932F2044
:1029B00072E07093460696E0AAE2B0E20E94B84B3D
:1029C00072E07093450685E080932A208FE0809323
:1029D0002B2080EE80932C2080E880932D2072E0C5
:1029E0007093460694E0AAE2B0E20E94B84B72E00F
:1029F0007093450683E080932A208EE080932B20FD
:102A000080E080932C2072E07093460692E0AAE268
:102A1000B0E20E94B84B92E0AAE3B0E20E94AD4B54
:102A200072E07093450682E080932A2084E28093CE
:102A30002B2080E080932C2088E080932D2080E064
:102A400080932E2080E080932F2072E070934606C2
:102A500096E0AAE2B0E20E94B84B72E0709345069D
:102A600085E080932A208FE080932B2080EE809356
:102A70002C2080E880932D2072E07093460694E02D
:102A8000AAE2B0E20E94B84B72E07093450682E081
:102A900080932A208CE080932B208FE080932C2041
:102AA00072E07093460693E0AAE2B0E20E94B84B4F
:102AB00072E070934506A881B981BA93AA930E94E7
:102AC0006815229680913A20A881B9818C93089547
:102AD00083E080932A208EE080932B2080E08093F7
:102AE0002C2072E07093460692E0AAE2B0E20E94C7
:102AF000B84B91E0AAE3B0E20E94AD4B72E0709354
:102B0000450680913A20A881B9818C93089585E08B
:102B100080932A208FE080932B2080EE80932C20BE
:102B200080E880932D2072E07093460694E0AAE23C
:102B3000B0E20E94B84B72E070934506A881B9815B
:102B4000BA93AA930E946815229682E080932A2065
:102B50008AE280932B2080E080932C2072E0709397
:102B6000460693E0AAE2B0E20E94B84B72E070938E
:102B7000450682E080932A2089E280932B2080EF13
:102B800080932C2072E07093460693E0AAE2B0E2B4
:102B90000E94B84B72E07093450682E080932A2031
:102BA00088E280932B2086E880932C2072E070933B
:102BB000460693E0AAE2B0E20E94B84B72E070933E
:102BC000450685E080932A208FE080932B2080EEBD
:102BD00080932C2080E080932D2072E07093460635
:102BE00094E0AAE2B0E20E94B84B72E0709345060E
:102BF000A881B981BA93AA930E9468152296089574
:102C0000010606000000000000000000BF000000F8
:102C1000030003000000147F147F140026497F493D
:102C200032006058465860003649552250000C006A
:102C3000000000001C2241000000000041221C0096
:102C400044281E28440008083E08080000600000D0
:102C500000000808080000000040000000006010AC
:102C6000080403003E5149453E0000427F400000F9
:102C70006251494946002249494936001814127FD9
:102C800010002745454539003E454545380061114E
:102C900009050300364949493600264949493E009D
:102CA000000024000000000064000000000814225E
:102CB0004100001414141400004122140800020101
:102CC000590906003E415D514E007C1211127C00F4
:102CD0007F49494E30003E41414122007F41414100
:102CE0003E007F49494141007F09090101003E4101
:102CF00049493A007F0808087F0000417F410000F1
:102D00003141413F01007F08142241007F40404093
:102D100040007F020C027F007F0608307F003E41AA
:102D200041413E007F09090906003E4151215E00F4
:102D30007F091929460026494949320001017F01CE
:102D400001003F4040403F000718601807007F2007
:102D500018207F00631408146300274848483F0088
:102D600061514945430008043E040800030408106B
:102D7000600010207C201000060909060000404079
:102D800040404000020400000000006454547C00F5
:102D9000007F48483000003844442800003048484C
:102DA0007F000038545458000010FE110200002C1F
:102DB00052523E00007F080870000000007A0000B8
:102DC0000020403A0000007C102844000000007FF2
:102DD00000007C047C047800007C04047800003847
:102DE00044443800007C24241800001824247C006B
:102DF000007C0804040000485454240000083F48A4
:102E00004000003C40407C00001C20601C003C4016
:102E100078403C00006C10106C00004C50503C009E
:102E2000006454544C0000000877410000007F000B
:102E3000000041770800000000180810180000701A
:102E400048700000000000000000000000000000CA
:102E50000000000000000000000000000000000072
:102E60000000000000000000000000000000000062
:102E70000000000000000000000000000000000052
:102E80000000000000000000000000000000000042
:102E90000000000000000000000000000000000032
:102EA0000000000000000000000000000000000022
:102EB0000000000000000000000000000000000012
:102EC0000000000000000000000000000000000002
:102ED00000000000000000000000000000000000F2
:102EE00000000000000000000000000000000000E2
:102EF00000000000000000000000000000000000D2
:102F000000000000000000000000000000000000C1
:102F100000000000000000000000000000000000B1
:102F200000000000000000000000000000000000A1
:102F3000000000007E4B4A434200000000000000F9
:102F40000000000000000000000000000000000081
:102F50000000000000000000000000000000000071
:102F60000000000000000000000000000000000061
:102F70000000000000000000000000000000000051
:102F80000000000000000000000000000000000041
:102F9000000000000039545459007E04087E4C4C57
:102FA0000000000000000000000000000000000021
:102FB0000000000000000000000000000000000011
:102FC00000000000781412117F007F45454539004C
:102FD0007F49494936007F0101010100603E213FE0
:102FE00060007F494941410063147F14630022411E
:102FF000494936007F1008047F007F1009047F00D4
:103000007F0814224100403C02017F007F020C0235
:103010007F007F0808087F003E4141413E007F015C
:1030200001017F007F09090906003E41414122005C
:1030300001017F010100274848483F000F097F092F
:103040000F006314081463003F20203F600007084E
:1030500008087F007F407C407F003F203E207F00AB
:10306000017F484830007F4848307F007F4848480B
:103070003000224149493E007F083E413E0046293A
:1030800019097F00003454547800003C4A4931004B
:10309000007C54582000007C040404006038243C68
:1030A000600000385454580044287C28440000280C
:1030B00044542800003C40207C00003C41217C001E
:1030C000007C10284400004038047C007C08100874
:1030D0007C00007C10107C00003844443800007CE8
:1030E00004047C00007C14140800003844442800C8
:1030F00004047C040400000C50503C0008147C14B0
:103100000800006C10106C00003C203C4000000CDB
:1031100010107C007C4078407C003C2038207C00F3
:10312000047C505020007C5050207C00007C50508B
:1031300020000028445438007C103844380004191A
:10314000640000000000000000000000000000001B
:10315000000000000000000000000000000000006F
:10316000000000000000000000000000000000005F
:10317000000000000000000000000000000000004F
:10318000000000000000000000000000000000003F
:10319000000000000000000000000000000000002F
:1031A0000000000000000000000000000000E0F847
:1031B000FCFCFCFCF8E00000000000000000000047
:1031C00000000000000000FFFFFFFFFFFFFFFF0007
:1031D00000000000000000000000000000000000EF
:1031E00000031F3F3F1F030000000000000000001D
:1031F0000000000000000000000000183C3C180027
:1032000000000000000000000000000000000000BE
:10321000C0C0C0C000000000C0C0C0C000000000AE
:103220000000000000000000003F3F3F3F000000A2
:10323000003F3F3F3F000000000000000000000092
:10324000000000000000000000000000000000007E
:10325000000000000000000000000000000000006E
:10326000000000000000000000000000000000005E
:103270000000000000000000F0F0F0F0000000008E
:10328000F0F0F0F0000000000000000C0C0C0CFC52
:10329000FCFFFF0F0F0C0CFCFCFFFF0F0F0C0C00D2
:1032A00000003030F0F0FFFF3F3F3030F0F0FFFF24
:1032B0003F3F30300000000000000000000F0F0F03
:1032C0000F000000000F0F0F0F00000000000000B3
:1032D0000000000000000080C0C0C0C0FCFCFCFC7E
:1032E000C0C0C0C08000000000000000000000FF5F
:1032F000FFFFFFC3C3FFFFFFFFC3C3C3C3830300BD
:103300000000000000000000C0C1C3C3C3C3FFFF32
:10331000FFFFC3C3FFFFFFFF00000000000000002D
:10332000000001030303033F3F3F3F030303030187
:10333000000000000000000000000000000000008D
:10334000000000000000000000000080C0C000007D
:103350000000001E3F3F3F3F1E00000080C0E0F025
:10336000F8FCFE7F3F1F0F00000000000080C0E05F
:10337000F0F8FCFE7F3F1F0F070301000000000074
:103380000000003C3E3F3F1F0F070301000000000C
:10339000001E3F3F3F3F1E000000000000000000F5
:1033A0000080C0E0E070303070F0E0C0000000004D
:1033B0000000000000000000003E7FFFE3C0C0E00E
:1033C000F0783F1F0F000000000000000000000028
:1033D000F0FCFEFF1F0F0F1F3DF8F0E0C0C0E070D3
:1033E000303000000000000000030F1F1F3C383089
:1033F00030381C0F07070F1C383030000000000069
:1034000000000000000078FCFCFCFCF8000000005C
:10341000000000000000000000000000000000208C
:10342000303F1F1F070000000000000000000000E8
:10343000000000000000000000000000000000008C
:10344000000000000000000000000000000000007C
:10345000000000000000000000000000000000006C
:1034600000000000000000000000C0E0F0F8F83CA0
:103470001C0C0C0C0000000000000000000000000C
:1034800000FCFFFFFFFFFF00000000000000000045
:10349000000000000000000000003FFFFFFFFFFFF2
:1034A000000000000000000000000000000000001C
:1034B000000000000003070F1F1F3C3830303000B1
:1034C0000000000000000000000000000C0C0C1CBC
:1034D0003CF8F8F0E0C00000000000000000000030
:1034E0000000000000000000000000FFFFFFFFFFE1
:1034F000FC000000000000000000000000000000D0
:1035000000000000FFFFFFFFFF3F00000000000081
:1035100000000000000000303030383C1F1F0F0753
:103520000300000000000000000000000000000098
:10353000000000000000000000000000000000008B
:10354000000000000000000F1F3F7FF8F0FFFFFFAA
:10355000FFF0F87F3F1F0F00000000000000000098
:10356000C3E3F3F37F3FFFFFFFFF3F7FF3F3E3C3CB
:10357000000000000000000000030303030000033C
:103580000303030000030303030000000000000026
:10359000000000000000000000000000000000002B
:1035A000000000000000000000000000000000001B
:1035B00000FCFCFCFC00000000000000000000001B
:1035C000000000000F0F0F0F0F0FFFFFFFFF0F0F87
:1035D0000F0F0F0F000000000000000000000000AF
:1035E00000000003030303000000000000000000CF
:1035F00000000000000000000000000000000000CB
:1036000000000000000000000000000000000000BA
:1036100000000000000000000000000000000000AA
:1036200000000000000000000000000080C0C0C0DA
:10363000C08000000000000000000000000000004A
:10364000000000000087CFFF7F3F1F000000000048
:10365000000000000000000000000000000000006A
:10366000000000000000000000000000000000005A
:10367000000000000000000000000000000000004A
:103680000000000000000000000000000F0F0F0FFE
:103690000F0F0F0F0F0F0F0F0F0F0F0F0000000076
:1036A000000000000000000000000000000000001A
:1036B000000000000000000000000000000000000A
:1036C00000000000000000000000000000000000FA
:1036D00000000000000000000000000000000000EA
:1036E00000000000000000000000000000000000DA
:1036F00000000000000000000000000000000000CA
:10370000000000000000000000000000001E3F3F1D
:103710003F3F1E000000000000000000000000000D
:103720000000000000000000000000000000000099
:103730000080C0E0F0F00000000000000000000089
:10374000000080C0E0F0F8FC7E3F1F0F070301007F
:1037500000000080C0E0F0F8FC7E3F1F0F0703016F
:1037600000000000000000000000000F0F0F070322
:103770000100000000000000000000000000000048
:1037800000000000F0E8DCBC3C3C3C3C3C3C3C3CE9
:103790003C3C3C1CECF4F8F000000000003F7FFFD4
:1037A0007F0000000000000000000000007FFF7F9D
:1037B0003F0000000000FCFEFFFE000000000000D3
:1037C000000000000000FEFFFEFC00000000000FF3
:1037D000173B3D3C3C3C3C3C3C3C3C3C3C3C383757
:1037E0002F1F0F000000000000000000000000007C
:1037F0000000000000000000E0F0F8F00000000011
:1038000000000000000000000000000000000000B8
:10381000007FFF7F3F00000000000000000000006C
:1038200000000000000000000000FEFFFEFC0000A1
:103830000000000000000000000000000000000088
:10384000000000070F1F0F000000000000081C3CD4
:103850003C3C3C3C3C3C3C3C3C3C3C1CECF4F8F0F0
:1038600000000000000000000080C0C0C0C0C0C058
:10387000C0C0C0C0807FFF7F3F0000000000FCFE92
:10388000FFFE01030303030303030303030100001B
:10389000000000000000000F173B3D3C3C3C3C3C5E
:1038A0003C3C3C3C3C3C3830200000000000000028
:1038B00000081C3C3C3C3C3C3C3C3C3C3C3C3C1CF8
:1038C000ECF4F8F000000000000000000080C0C030
:1038D000C0C0C0C0C0C0C0C0807FFF7F3F0000002C
:1038E00000000000000001030303030303030303BC
:1038F0000301FEFFFEFC00000000000010383C3C0D
:103900003C3C3C3C3C3C3C3C3C3C38372F1F0F0093
:1039100000000000F0E0C080000000000000000097
:1039200000000000E0F0F8F000000000003F7FFF22
:103930007F80C0C0C0C0C0C0C0C0C0C0807FFF7F8B
:103940003F00000000000000000001030303030328
:10395000030303030301FEFFFEFC00000000000060
:103960000000000000000000000000000000000750
:103970000F1F0F0000000000F0E8DCBC3C3C3C3CAA
:103980003C3C3C3C3C3C3C1C0C0400000000000067
:10399000003F7FFF7F80C0C0C0C0C0C0C0C0C0C0EB
:1039A0008000000000000000000000000000010393
:1039B00003030303030303030301FEFFFEFC0000F4
:1039C0000000000010383C3C3C3C3C3C3C3C3C3C57
:1039D0003C3C38372F1F0F0000000000F0E8DCBC33
:1039E0003C3C3C3C3C3C3C3C3C3C3C1C0C04000017
:1039F00000000000003F7FFF7F80C0C0C0C0C0C08B
:103A0000C0C0C0C080000000000000000000FCFE3C
:103A1000FFFE010303030303030303030301FEFF8C
:103A2000FEFC00000000000F173B3D3C3C3C3C3CD2
:103A30003C3C3C3C3C3C38372F1F0F000000000052
:103A400000081C3C3C3C3C3C3C3C3C3C3C3C3C1C66
:103A5000ECF4F8F00000000000000000000000009E
:103A60000000000000000000007FFF7F3F0000001A
:103A70000000000000000000000000000000000046
:103A80000000FEFFFEFC000000000000000000003F
:103A90000000000000000000000000070F1F0F00E2
:103AA00000000000F0E8DCBC3C3C3C3C3C3C3C3CC6
:103AB0003C3C3C1CECF4F8F000000000003F7FFFB1
:103AC0007F80C0C0C0C0C0C0C0C0C0C0807FFF7FFA
:103AD0003F0000000000FCFEFFFE010303030303A0
:103AE000030303030301FEFFFEFC00000000000FC0
:103AF000173B3D3C3C3C3C3C3C3C3C3C3C3C383734
:103B00002F1F0F0000000000F0E8DCBC3C3C3C3CF8
:103B10003C3C3C3C3C3C3C1CECF4F8F0000000001D
:103B2000003F7FFF7F80C0C0C0C0C0C0C0C0C0C059
:103B3000807FFF7F3F0000000000000000000103C5
:103B400003030303030303030301FEFFFEFC000062
:103B50000000000010383C3C3C3C3C3C3C3C3C3CC5
:103B60003C3C38372F1F0F00000000000000000011
:103B70000000008080808000000000000000000045
:103B800000000000000000000000000F1F1F1F1FAA
:103B90000F00000000000000000000000000000016
:103BA00000000000F0F8F8F8F8F000000000000055
:103BB0000000000000000000000000000000010103
:103BC00001010000000000000000000000000000F3
:103BD00000000000000000000000000000000000E5
:103BE0000000000000000000000000000000001EB7
:103BF0003F3F3F3F1E0000000000000000000000AB
:103C00000000000000000000E0F0F0F0F0E0000034
:103C100000000000000000000000000000000000A4
:103C20000081C3FF7F3F1F00000000000000000074
:103C30000000000000000000000000000080C0E064
:103C4000F0F8FC7C3C1C000000000000000080C07C
:103C5000E0F0F8FC7E3F1F0F0703010000000000AA
:103C6000000000000000000103070F1F3F7EFCF86A
:103C7000F0E0C08000000000000000000000000034
:103C800000000000000000000103070F1F3F3E3C42
:103C900038000000000000000000000000000000EC
:103CA0000000000000000000000000000000000014
:103CB0000000F0F0F0F0F0F0F0F0F0F0F0F0F0F0E4
:103CC000F0F0F0F000000000000000F0F0F0F0F084
:103CD000F0F0F0F0F0F0F0F0F0F0F0F0F0000000B4
:103CE00000000000000000000000000000000000D4
:103CF00000000000000000000000000000001C3C6C
:103D00007CFCF8F0E0C08000000000000000000033
:103D100000000000000000000000000103070F1F6A
:103D20003F7EFCF8F0E0C0800000000000000000D2
:103D30000000000080C0E0F0F8FC7E3F1F0F07038A
:103D4000010000000000000000383C3E3F1F0F074C
:103D5000030100000000000000000000000000005F
:103D6000C0F0F8F8FC7C3C3C3C3C3C3C3C3C7CFCE3
:103D7000F8F8F0C000000000000F0F0F0F00000067
:103D800000000080C0E0F0F8FC7F3F1F070000004B
:103D900000000000000000000000FCFFFFFF070320
:103DA0000100000000000000000000000000000012
:103DB0000000003C3C3C3C00000000000000000013
:103DC0000000000080E0F0F8F87C3C3C3C3C3C3CCF
:103DD0003C3C3C3C7CF8F8F0E080000000FFFFFF3A
:103DE000FF0000FCFEFFFF0F0FFFFFFFFE0000FFC4
:103DF000FFFFFF000000FFFFFFFFC0000F3F7F7FBE
:103E0000F0F0FF7F7FFFF0F87F7F3F0F00000000A2
:103E100003070F1F1F3E3C3C3C3C3C3C3C3C3C3CB5
:103E20003C00000000000000C0E0F0F8FC7C3C3CDE
:103E30003C3C3C3C3C3C7CFCF8F0E0C0000000001A
:103E400000FFFFFFFF000000000000000000000076
:103E500000FFFFFFFF0000000000FFFFFFFF3C3CF2
:103E60003C3C3C3C3C3C3C3C3C3CFFFFFFFF0000FE
:103E70000000003F3F3F3F00000000000000000046
:103E80000000003F3F3F3F0000000000FCFCFCFC46
:103E90003C3C3C3C3C3C3C3C7CFCF8F0C0800000A2
:103EA0000000000000FFFFFFFFC0C0C0C0C0C0C0D6
:103EB000C0E0F0FFFF3F1F00000000000000FFFF18
:103EC000FFFF03030303030303030303070FFFFEC3
:103ED000FCF800000000003F3F3F3F3C3C3C3C3CC6
:103EE0003C3C3C3C3C3E1F0F07030100000000002F
:103EF000000080C0E0F0F87C3C3C3C3C3C3C7CFC5E
:103F0000F8F0E0800000000000FCFFFFFF0301006C
:103F10000000000000000000000103030300000097
:103F200000003FFFFFFFC080000000000000000015
:103F3000000080C0C0C000000000000000010307B6
:103F40000F1F3E3C3C3C3C3C3C3E1F0F0703010026
:103F500000000000FCFCFCFC3C3C3C3C3C3C3C3C91
:103F60007CF8F0E0C08000000000000000FFFFFFD0
:103F7000FF000000000000000000000107FFFFFF3D
:103F8000FC0000000000FFFFFFFF00000000000039
:103F90000000000080E0FFFFFF3F00000000003F46
:103FA0003F3F3F3C3C3C3C3C3C3C3C3E1F0F0703FE
:103FB0000100000000000000FCFCFCFC3C3C3C3C20
:103FC0003C3C3C3C3C3C3C3C3C3C3C3C0000000021
:103FD00000FFFFFFFFC0C0C0C0C0C0C0C0C0C0C0A5
:103FE000C0000000000000000000FFFFFFFF03030F
:103FF00003030303030303030303000000000000A3
:104000000000003F3F3F3F3C3C3C3C3C3C3C3C3C98
:104010003C3C3C3C3C3C3C0000000000FCFCFCFC0C
:104020003C3C3C3C3C3C3C3C3C3C3C3C3C3C3C3CD0
:104030000000000000FFFFFFFFC0C0C0C0C0C0C044
:10404000C0C0C0C0C0000000000000000000FFFFB2
:10405000FFFF03030303030303030303030300003E
:10406000000000000000003F3F3F3F000000000054
:104070000000000000000000000000000000000040
:10408000000080C0E0F0F8783C3C3C3C3C3C3C3CD0
:104090007CF8F0E00000000000FCFFFFFF030100DF
:1040A000000000C0C0C0C0C0C0C0C0C0C000000090
:1040B00000003FFFFFFFC080000000000303030378
:1040C0000303FFFFFFFF00000000000000010307E3
:1040D0000F1F1E3C3C3C3C3C3C3C3C3F3F3F3F00B8
:1040E00000000000FCFCFCFC0000000000000000E0
:1040F00000000000FCFCFCFC0000000000FFFFFFD3
:10410000FFC0C0C0C0C0C0C0C0C0C0C0C0FFFFFFB3
:10411000FF0000000000FFFFFFFF03030303030392
:10412000030303030303FFFFFFFF00000000003F42
:104130003F3F3F0000000000000000000000003F83
:104140003F3F3F0000000000000000003C3C3C3CC2
:10415000FCFCFCFC3C3C3C3C00000000000000007F
:10416000000000000000000000FFFFFFFF00000053
:10417000000000000000000000000000000000003F
:104180000000FFFFFFFF0000000000000000000033
:10419000000000000000003C3C3C3C3F3F3F3F3CF7
:1041A0003C3C3C000000000000000000000000005B
:1041B000000000000000000000000000FCFCFCFC0F
:1041C00000000000000000000000000000000000EF
:1041D0000000000000FFFFFFFF0000000000F0F003
:1041E000F0F0000000000000000000000000FFFFF1
:1041F000FFFF00000000000003070F1F1E3C3C3CB7
:104200003C3C3C3C3C1E1F0F07030000000000002C
:10421000FCFCFCFC000000000000000080C0E0F09E
:10422000F87C3C1C0000000000FFFFFFFFC0C0E066
:10423000F0F87C3E1F0F07030100000000000000A3
:104240000000FFFFFFFF0303070F1F3E7CF8F0E0B5
:10425000C0800000000000000000003F3F3F3F0022
:10426000000000000000000103070F1F3E3C380063
:1042700000000000FCFCFCFC00000000000000004E
:1042800000000000000000000000000000FFFFFF31
:10429000FF0000000000000000000000000000001F
:1042A000000000000000FFFFFFFF00000000000012
:1042B0000000000000000000000000000000003FBF
:1042C0003F3F3F3C3C3C3C3C3C3C3C3C3C3C3C3C25
:1042D0003C3C3C0000000000FCFCFCFCF0C000008A
:1042E000000000000000C0F0FCFCFCFC000000002E
:1042F00000FFFFFFFF0F1F7FFCF0C0C0F0FC7F1F1F
:104300000FFFFFFFFF0000000000FFFFFFFF0000A6
:104310000001071F1F0701000000FFFFFFFF000053
:104320000000003F3F3F3F00000000000000000091
:104330000000003F3F3F3F0000000000FCFCFCFC91
:10434000E0C080000000000000000000FCFCFCFC5D
:104350000000000000FFFFFFFF070F1F3F7EFCF87B
:10436000F0E0C08000FFFFFFFF0000000000FFFF43
:10437000FFFF0000000000000103070F1F3FFFFFC9
:10438000FFFF00000000003F3F3F3F000000000033
:10439000000000000000003F3F3F3F000000000021
:1043A000000080C0E0F0F87C3C3C3C3C7CF8F0E055
:1043B000C08000000000000000F8FEFFFF030100C5
:1043C000000000000000000103FFFFFEF8000000F5
:1043D00000001F7FFFFFC080000000000000000001
:1043E00080C0FFFF7F1F00000000000000010307E6
:1043F0000F1F3E3C3C3C3C3E1F0F0F0301000000E2
:1044000000000000FCFCFCFC3C3C3C3C3C3C3C3CDC
:104410003C3C78F8F0E0C0000000000000FFFFFF27
:10442000FF0000000000000000000080C0FFFFFF50
:104430003F0000000000FFFFFFFF0F0F0F0F0F0FE7
:104440000F0F0F0F07070301000000000000003FDF
:104450003F3F3F000000000000000000000000009F
:104460000000000000000000000080C0E0F0F87CC8
:104470003C3C3C3C7CF8F0E0C080000000000000C8
:1044800000F8FEFFFF07010000000000000000012F
:1044900007FFFFFEF800000000001F7FFFFFE08025
:1044A0000000000070F0F0E0C080FFFFFF3F000060
:1044B00000000000000103070F1F3E3C3C3C3C3D58
:1044C0001F0F0F1F3F3C380000000000FCFCFCFCED
:1044D0003C3C3C3C3C3C3C3C3C3C78F8F0E0C00084
:1044E0000000000000FFFFFFFF00000000000000D0
:1044F00000000080C0FFFFFF3F0000000000FFFF42
:10450000FFFF0F0F0F0F1F3F7FFFFFEFC787030155
:10451000000000000000003F3F3F3F00000000009F
:104520000000000103070F1F3E3C380000000000A0
:1045300000C0E0F0F8783C3C3C3C3C3C3C3C78F82B
:10454000F0E0C08000000000000F3F7FFFF0E0C0FF
:10455000C0C0C0C0C0C0C080800103030300000011
:104560000000C0C0C0800101030303030303030371
:10457000070FFFFEFCF800000000000103070F1FFB
:104580001E3C3C3C3C3C3C3C3C1E1F0F07030100D6
:104590000000000000003C3C3C3C3C3CFCFCFCFCC3
:1045A0003C3C3C3C3C3C00000000000000000000A3
:1045B0000000000000FFFFFFFF00000000000000FF
:1045C0000000000000000000000000000000FFFFED
:1045D000FFFF0000000000000000000000000000DD
:1045E000000000000000003F3F3F3F0000000000CF
:1045F0000000000000000000FCFCFCFC00000000CB
:104600000000000000000000FCFCFCFC00000000BA
:1046100000FFFFFFFF00000000000000000000009E
:1046200000FFFFFFFF0000000000FFFFFFFF000092
:1046300000000000000000000000FFFFFFFF00007E
:104640000000000003070F1F3E3C3C3C3C3C3C3C50
:104650003C3E1F0F07030000000000007CFCFCFC38
:10466000800000000000000000000080FCFCFC7CDA
:10467000000000000000031FFFFFFCE0000000003E
:104680000000E0FCFFFF1F0300000000000000002E
:104690000000073FFFFFF0C0C0F0FFFF3F07000032
:1046A0000000000000000000000000000000031FE8
:1046B0003F3F1F030000000000000000000000005A
:1046C000FCFCFCFC000000000000000000000000FA
:1046D000FCFCFCFC0000000000FFFFFFFF000000EE
:1046E000000080800000000000FFFFFFFF000000CE
:1046F0000000FFFFFFFFC0C0F0FC7F3F3F7FFCF0EA
:10470000C0C0FFFFFFFF00000000003F3F3F1F0F42
:10471000070100000000000001070F1F3F3F3F009E
:10472000000000007CFCFCFC800000000000000099
:1047300000000080FCFCFC7C000000000000000188
:1047400003070F1E3CF8F0F0F83C1E0F07030100B2
:10475000000000000000000080C0E0F0783C0F0F77
:104760000F0F1C3870E0C080000000000000003E09
:104770003F3F3F0100000000000000000000003F3C
:104780003F3F3E00000000001C7CFCF8E080000081
:1047900000000000000080E0F8FC7C1C000000002D
:1047A00000000001071F7FFEF8E0C0C0E0F8FE7FB8
:1047B0001F070100000000000000000000000000D2
:1047C0000103FFFFFFFF03010000000000000000E5
:1047D00000000000000000000000003F3F3F3F00DD
:1047E0000000000000000000000000003C3C3C3CD9
:1047F0003C3C3C3C3C3C3C3C3C3C3C3C3CFCFCFCB9
:10480000000000000000000000000000000080C068
:10481000E0F0783C1E0F070301000000000000805C
:10482000C0E0F0783C1E0F0703010000000000000C
:10483000000000000000003F3F3F3D3C3C3C3C3C52
:104840003C3C3C3C3C3C3C3C3C3C3C0000000000D4
:1048500000000000FCFCFCFC3C3C3C3C3C3C3C3C88
:1048600000000000000000000000000000FFFFFF4B
:10487000FF00000000000000000000000000000039
:10488000000000000000FFFFFFFF0000000000002C
:104890000000000000000000000000000000003FD9
:1048A0003F3F3F3C3C3C3C3C3C3C3C00000000006B
:1048B00000000000F0F0E0C08000000000000000F8
:1048C00000000000000000000000000000010307DD
:1048D0000F1F3F7EFCF8F0E0C080000000000000E9
:1048E00000000000000000000000000000000103C4
:1048F000070F1F3F7EFCF8F0E0C0800000000000C2
:1049000000000000000000000000000000000001A6
:1049100003070F0F0F000000000000003C3C3C3C70
:104920003C3C3C3CFCFCFCFC0000000000000000A7
:1049300000000000000000000000000000FFFFFF7A
:10494000FF00000000000000000000000000000068
:10495000000000000000FFFFFFFF0000000000005B
:10496000000000000000003C3C3C3C3C3C3C3C3F28
:104970003F3F3F000000000000000000000000007A
:104980000080C0E0F0F8FCFCF8F0E0C0800000001F
:104990000000000000F0F8FC7E3F1F0F070301003D
:1049A000000103070F1F3F7EFCF8F000000000002D
:1049B00000000000000000000000000000000000F7
:1049C00000000000000000000000000000000000E7
:1049D00000000000000000000000000000000000D7
:1049E00000000000000000000000000000000000C7
:1049F00000000000000000000000000000000000B7
:104A000000000000000000000000000000000000A6
:104A10000000000000000000000000000000000096
:104A20000000000000000000000000F0F0F0F0F0D6
:104A3000F0F0F0F0F0F0F0F0F0F0F0F0F0F0F0F076
:104A4000F00000000000000000000000E0F0F0F0C6
:104A5000F0E0000000000000000000000000000086
:104A600000000000001F3F7FFFC381000000000026
:104A70000000000000000000000000000000000036
:104A80000000000000000000000000000000000026
:104A90000000000000000000000000000000000016
:104AA0000000000000000000000000000000000006
:104AB00000000000000000000000000000000000F6
:104AC000000000C0E0F0F0F0F0F0F0F0F0F0F0F0F6
:104AD000F0F0F0E0C0000000000080E0F0F8783C6A
:104AE0003C3C3C3C3C3C3C3C3C3CFFFFFFFF000072
:104AF000000000071F1F3F3E3C3C3C3C3C3C3C3C14
:104B00003C3C3C3F3F3F3F0000000000FCFCFCFC05
:104B10000000000000000000000000000000000095
:104B20000000000000FFFFFFFFE0F0F0F0F0F0F009
:104B3000F0F0F0F0F0E0E0C0000000000000FFFF47
:104B4000FFFF030100000000000000000103FFFF61
:104B5000FFFF00000000003F3F3F3F3C3C3C3C3C2F
:104B60003C3C3C3C3C3E3F1F1F0F0300000000004C
:104B70000000000000000000000000000000000035
:104B800000000000000000000000C0E0E0F0F0F0D5
:104B9000F0F0F0F0F0F0F0F0F0E0E0C00000000025
:104BA0000000FFFFFFFF0301000000000000000005
:104BB0000000030303030000000000030F1F1F3F5A
:104BC0003E3C3C3C3C3C3C3C3C3C3E1F1F0F0300FD
:104BD00000000000000000000000000000000000D5
:104BE00000000000FCFCFCFC000000000000C0E035
:104BF000E0F0F0F0F0F0F0F0F0F0F0F0E0FFFFFFA8
:104C0000FF0000000000FFFFFFFF030100000000A5
:104C1000000000000103FFFFFFFF00000000000391
:104C20000F1F1F3F3E3C3C3C3C3C3C3C3C3C3C3F23
:104C30003F3F3F00000000000000000000000000B7
:104C40000000000000000000000000000000000064
:104C50000000C0E0E0F0F0F0F0F0F0F0F0F0F0F084
:104C6000F0E0E0C0000000000000FFFFFFFF3D3C5F
:104C70003C3C3C3C3C3C3C3C3C3D3F3F3F3F0000DF
:104C8000000000030F1F1F3F3E3C3C3C3C3C3C3CB3
:104C90003C3C3C3C1C0C00000000000000000000FC
:104CA0000000C0F0F8F8FC7C3C3C3C3C3C3C3C3C0C
:104CB000000000000000C0C0C0C0C0FFFFFFFFC078
:104CC000C0C0C0C0C0000000000000000000000321
:104CD00003030303FFFFFFFF0303030303030000BA
:104CE000000000000000000000000000003F3F3F07
:104CF0003F00000000000000000000000000000075
:104D000000000000000000000000000000000000A3
:104D100000000000000000000000C0E0E0F0F0F043
:104D2000F0F0F0F0F0F0F0F0F0F0F0F0F000000053
:104D300000003FFFFFFFF3E1C0C0C0C0C0C0C0C063
:104D4000E0F0FFFFFFFF00000000000000F1F1F3C2
:104D5000F3F3F3F3F3F3F3F3F3F3F1FFFF7F1F0048
:104D600000000000FCFCFCFC000000000000000053
:104D700000000000000000000000000000FFFFFF36
:104D8000FFE0F0F0F0F0F0F0F0F0F0F0F0E0E0C074
:104D9000000000000000FFFFFFFF03010000000013
:104DA000000000000103FFFFFFFF00000000003FC4
:104DB0003F3F3F0000000000000000000000003FF7
:104DC0003F3F3F0000000000000000000000000026
:104DD000C0C0C0C0000000000000000000000000D3
:104DE00000000000000000F0F0F3F3F3F300000017
:104DF00000000000000000000000000000000000B3
:104E00000000FFFFFFFF00000000000000000000A6
:104E1000000000000000003C3C3C3C3F3F3F3F3C6A
:104E20003C3C3C00000000000000000000000000CE
:104E30000000000000000000C0C0C0C00000000072
:104E4000000000000000000000000000000000F072
:104E5000F0F3F3F3F3000000000000000000000096
:104E600000000000000000000000FFFFFFFF000046
:104E700000000000000000000000003C7CFCFCF092
:104E8000F0F0F87F7F3F0F000000000000000000FE
:104E90000000FCFCFCFC0000000000000000000022
:104EA0000000000000000000000000FFFFFFFF0006
:104EB000000080C0E0F0F0F0700000000000000092
:104EC00000000000FFFFFFFF3C7EFFFFFFFFC381EC
:104ED000000000000000000000000000003F3F3F15
:104EE0003F0000000103070F1F3F3E3C3800000059
:104EF000000000000000000000003C3CFCFCFCFC4A
:104F000000000000000000000000000000000000A1
:104F10000000000000FFFFFFFF0000000000000095
:104F20000000000000000000000000000000FFFF83
:104F3000FFFF000000000000000000000000000073
:104F40000000003C3C3C3C3F3F3F3F3C3C3C3C0085
:104F50000000000000000000000000000000000051
:104F60000000000000000000000000000000000041
:104F700000F0F0F0E0F0F0F0F0E0C0C0E0F0F0F0B1
:104F8000F0E0E0C0000000000000FFFFFFFF0301B1
:104F90000103FFFFFFFF03010103FFFFFFFF00000D
:104FA0000000003F3F3F3F000000003F3F3F3F0009
:104FB0000000003F3F3F3F000000000000000000F5
:104FC00000000000000000000000000000000000E1
:104FD0000000000000F0F0F0F0F0F0F0F0F0F0F081
:104FE000F0F0F0F0F0E0E0C0000000000000FFFF93
:104FF000FFFF000000000000000000000103FFFFB1
:10500000FFFF00000000003F3F3F3F0000000000A6
:10501000000000000000003F3F3F3F000000000094
:105020000000000000000000000000000000000080
:1050300000000000000000000000C0E0E0F0F0F020
:10504000F0F0F0F0F0F0F0F0F0E0E0C00000000070
:105050000000FFFFFFFF0100000000000000000053
:105060000001FFFFFFFF0000000000030F1F1F3EB5
:105070003C3C3C3C3C3C3C3C3C3C3E1F1F0F03004A
:105080000000000000000000000000000000000020
:1050900000000000000000000000000000F0F0F040
:1050A000F0F0F0F0F0F0F0F0F0F0F0F0F0E0E0C050
:1050B000000000000000FFFFFFFFC08000000000B4
:1050C0000000000081C3FFFFFFFF0000000000FFA1
:1050D000FFFFFF070F0F0F0F0F0F0F0F0F0F0F0720
:1050E00007030000000000000000000000000000B6
:1050F00000000000000000000000000000000000B0
:105100000000C0E0E0F0F0F0F0F0F0F0F0F0F0F0CF
:10511000F0F0F0F0F00000000000FFFFFFFFC3819F
:10512000000000000000000080C0FFFFFFFF000043
:10513000000000000307070F0F0F0F0F0F0F0F0FD7
:105140000F0F07FFFFFFFF0000000000000000003E
:10515000000000000000000000000000000000004F
:1051600000000000000000F0F0F0F0E0F0F0F0F0DF
:10517000F0F0F0F0F0F0F0E0C000000000000000FF
:10518000FFFFFFFF03010000000000000000030319
:105190000303000000000000003F3F3F3F0000000D
:1051A00000000000000000000000000000000000FF
:1051B00000000000000000000000000000000000EF
:1051C000000000000000000000C0E0F0F0F0F0F08F
:1051D000F0F0F0F0F0F0F0E0C0000000000000009F
:1051E00000000F1F3F7F7D787878787878F8F8F89E
:1051F000F0E00000000000000000000E1E3E3E3CFB
:105200003C3C3C3C3C3C3E3F3F1F0F00000000004C
:10521000000000000000000000F0F0F0F0000000CE
:105220000000000000000000000000000000F0F09E
:10523000F0F0FFFFFFFFF0F0F0F0F0F000000000F2
:105240000000000000000000000000FFFFFFFF0062
:10525000000000000000000000000000000000004E
:10526000000000000F1F3F3F3C3C3C3C3C3C3C3CB2
:10527000000000000000000000000000000000002E
:10528000000000000000000000000000000000001E
:1052900000F0F0F0F000000000000000000000004E
:1052A00000F0F0F0F00000000000FFFFFFFF000042
:1052B00000000000000000000000FFFFFFFF0000F2
:1052C000000000030F1F1F3F3E3C3C3C3C3C3C3C6D
:1052D0003C3E1F3F3F3F3F00000000000000000039
:1052E00000000000000000000000000000000000BE
:1052F000000000000030F0F0F0C0000000000000EE
:1053000000000000C0F0F0F03000000000000000DD
:10531000030F3FFFFCF0C00000C0F0FCFF3F0F0395
:1053200000000000000000000000000000030F3F2C
:105330003F3F3F0F0300000000000000000000009E
:10534000000000000000000000000000000000005D
:10535000000000000000000000F0F0F0F00000008D
:1053600000F0F0F0F000000000F0F0F0F0000000BD
:105370000000FFFFFFFF800080C0FFFFFFFFC08035
:105380000080FFFFFFFF000000000000030F1F3F31
:105390003F1F0F070303070F1F3F3F1F0F030000AF
:1053A00000000000000000000000000000000000FD
:1053B0000000000000000000000000000070F0F09D
:1053C000F0E0C0800000000080C0E0F0F0F070006D
:1053D0000000000000000000010387CFFFFFFCFC7D
:1053E000FFFFCF870301000000000000000000382D
:1053F0003C3E3F1F0F0703000003070F1F3F3E3CCB
:105400003800000000000000000000000000000064
:10541000000000000000000000000000000000008C
:105420000000003CFCFCFCC0000000000000C0FCD0
:10543000FCFC3C0000000000000000000000030F26
:105440003FFFFCF0F0FCFF3F0F03000000000000F6
:1054500000000000000000C0E0F0FC7F3F0F0300F0
:10546000000000000000000000000000000000003C
:10547000000000000000000000000000000000002C
:105480000000000000F0F0F0F0F0F0F0F0F0F0F0CC
:10549000F0F0F0F0F0F070301000000000000000BC
:1054A000000080C0E0F0F87C3E1F0F070301000001
:1054B00000000000000000383C3E3F3F3F3F3D3CC5
:1054C0003C3C3C3C3C3C3C3C3C3C3C000000000048
:1054D000000000000000E0F8FCFC7E3E1E1E1E1EC8
:1054E0001E1E0000000000000000008080C0F0FFD1
:1054F000FF7F1F000000000000000000000000000F
:10550000000000000101030FFFFFFEF80000000093
:10551000000000000000000000000000000000008B
:1055200000071F3F3F7E7C7878787878780000000D
:105530000000000000804020101090D0D0D0D0900B
:105540001020408000000000000000F806F1F8F094
:10555000E0C0C047EFFFE3416070F0F0F0E102FC13
:1055600000000000030C10214181012070787F7E33
:105570003C0000000103494825254948240000005B
:10558000000000010101010101010101010101010E
:10559000010101010000000000001E1E1E1E1E1E53
:1055A0003E7EFCFCF8E0000000000000000000006F
:1055B00000000000000000000000001F7FFFFFF05F
:1055C000C08080000000000000000000000000001B
:1055D00000000000F8FEFFFF0F03010100000000C3
:1055E00000000000007878787878787C7E3F3F1F54
:1055F000070000000000000000000078FCCE868656
:10560000CEFC780000000000000000000000000058
:105610000000000000000101010100E0F0F8FC3E84
:105620001E1E1E1E1E3E7E7C7870000000000000C4
:1056300000000000FFFFFFFF00000000000000006E
:1056400000000000000000000000000000070F1F25
:105650003F7C7878787878787E3E1E0E00000000D7
:10566000000000000000000000000000000000003A
:10567000000000000000000000000000000000002A
:10568000000000000000000000000000000000001A
:10569000000000000000000000000000000000000A
:1056A00000000000000000000000000000000000FA
:1056B00000000000000000000000000000000000EA
:1056C00000000000000000000000000000000000DA
:1056D00000000000000000000000000000000000CA
:1056E00000000000000000000000000000000000BA
:1056F00000000000000000000000000000000000AA
:105700000000000000000000000000000000000099
:105710000000000000000000000000000000000089
:105720000000000000000000E0E0E0E0E0E0E0EF6A
:10573000E7E3E1E0E0E0E0E0E0E0E0E000000000DE
:1057400000FFFFFFFF010101010101010101010152
:10575000010103070F0000000000FFFFFFFF000032
:105760000000000000000000000000000000000039
:105770000000003F3F3F3F0000000000000000002D
:105780000000000000000000000000000000000019
:105790000000000000000000000000000000000009
:1057A00000000000000000000000000000000000F9
:1057B00000000000000000000000000000000000E9
:1057C00000000000000000000000000000000000D9
:1057D00000000000000000000000000000000000C9
:1057E00000000000000000000000000000000000B9
:1057F00000000000000000008080808000000000A9
:105800000000000000000000000000F0F0F0F0F0E8
:10581000F0F7F3F1F0F0F0F0F0F0F0F0F00000004D
:1058200000000000FFFFFFFF00000000000000007C
:10583000000000000103000000000000003F3F3FA7
:105840003F00000000000000000000000000000019
:105850000000000000000000000000000000000048
:105860000000000000000000000000000000000038
:105870000000000000000000000000000000000028
:105880000000000000000000000000000000000018
:105BD0000000000000000000FCFCFCFC00000000D5
:105BE0000F07030180C0E0F0F87C3C1C00000000BF
:105BF00000FFFFFFFFC0C0E0F0F87C3E1F0F07036F
:105C000001000000000000000000FFFFFFFF030391
:105C1000070F1F3E7CF8F0E0C0800000000000008D
:105C20000000003F3F3F3F00000000000000000177
:105C300003070F1F3E3C380000000000000000007A
:105C40000000000000000000000000000000000054
:105C50000000000000000000000000000000000044
:105C60000000000000000000000000000000000034
:105C70000000000000000000000000000000000024
:105C80000000000000000000000000000000000014
:105C90000000000000000000000000000000000004
:105CA000FCFCFCFC00000000000000000000000004
:105CB000FCFCFCFC0000000000FFFFFFFF000000F8
:105CC000000000000000000000FFFFFFFF000000D8
:105CD0000000FFFFFFFF00000000000000000000C8
:105CE0000000FFFFFFFF00000000003F3F3F3F3C80
:105CF0003C3C3C78F0783C3C3C3C3C3F3F3F3F00E8
:105D00000000000000000000000000000000000093
:105D10000000000000000000000000000000000083
:105D20000000000000000000000000000000000073
:105D30000000000000000000000000000000000063
:10623000000000F0F0F0F000001E8EC6E2F0F0F07A
:10624000703010000000000000000000FFFFFFFFA2
:106250003C7EFFFFFFE7C38100000000000000005C
:1062600000000000003F3F3F3F0000000103070F18
:106270001F3F3E3C3800000000000000000000000E
:10628000000000000000000000000000000000000E
:1062900000000000000000000000000000000000FE
:1062A00000000000000000000000000000000000EE
:1062B00000000000000000000000000000000000DE
:1062C00000000000000000000000000000000000CE
:1062D00000000000000000000000000000000000BE
:1062E00000000000000000000000000000000000AE
:1062F000000000000000000000F0F0F0F0000000DE
:10630000000000000000000000F0F0F0F0000000CD
