:100000000C94FE001895000018950000189500004B
:10001000189500001895000018950000189500002C
:10002000189500001895000018950000189500001C
:1000300018950000189500000C94D707189500003B
:1000400018950000189500001895000018950000FC
:1000500018950000189500001895000018950000EC
:1000600018950000189500001895000018950000DC
:1000700018950000189500001895000018950000CC
:1000800018950000189500001895000018950000BC
:1000900018950000189500001895000018950000AC
:1000A000189500001895000018950000189500009C
:1000B000189500001895000018950000189500008C
:1000C000189500001895000018950000189500007C
:1000D000189500001895000018950000189500006C
:1000E000189500001895000018950000189500005C
:1000F000189500001895000018950000189500004C
:10010000189500001895000018950000189500003B
:10011000189500001895000018950000189500002B
:10012000189500001895000018950000189500001B
:10013000189500001895000018950000189500000B
:1001400018950000189500001895000018950000FB
:1001500018950000189500001895000018950000EB
:1001600018950000189500001895000018950000DB
:1001700018950000189500001895000018950000CB
:1001800018950000189500001895000018950000BB
:1001900018950000189500001895000018950000AB
:1001A000189500001895000018950000189500009B
:1001B000189500001895000018950000189500008B
:1001C000189500001895000018950000189500007B
:1001D000189500001895000018950000189500006B
:1001E000189500001895000018950000189500005B
:1001F0001895000018950000189500008FEF8DBF2E
:10020000C0E0E8E14E2E8FE58EBFDEE5FAE55F2E19
:10021000009078008FE38093780081E078ED74BFE0
:1002200080938000EEEFFFE3A0E0B0E288278D939B
:100230003197E9F7662470E07093520083E0A0E5FF
:10024000B0E08D939C9193708917E1F780915100F4
:1002500081FFFCCF78ED74BF71E07093400078EDC2
:1002600074BF70E0709341000E948714E1E0F0E0F9
:100270000E94041370E47093010670E47093050605
:1002800070E87093010670E87093060672E0709350
:10029000210672E07093250672E07093610672E0A9
:1002A0007093660674E07093010674E0709305061F
:1002B00078E07093010678E07093050672E0709321
:1002C000010672E07093050670E27093810671E09A
:1002D0007093220671E07093220671E070934106DC
:1002E00071E07093450672E07093410672E070937E
:1002F000450674E07093420670EB7093410670E11E
:100300007093450680ED8093C008A0E0B2E081E0E4
:100310008D9384E08D9380E18D9380E08D9383E0D5
:100320008D9381E08093200281E08093372080E0EC
:100330008093362084E699E1AFE8B0E28D939C93F8
:1003400088E893E1A1E9B0E28D939C9378E0709303
:10035000810688E1A4EABAE08D9383E08D9385EC71
:100360008D938CEA8C9378E07093A10688E1A4EADF
:10037000BBE08D9383E08D9385EC8D938CEA8C9319
:1003800077E07093000888E19FE1809326089093BE
:100390002708809106088C7F81608093060885E09D
:1003A000809334210E944F16ECEBF0E20E94731709
:1003B000EEEEF2E30E945A160E941E190E945A178E
:1003C00010F00C94EB01ACEBB0E2E2EFF2E30E9430
:1003D0005A160E9439168AE08093C8208AEB99E069
:1003E000AEEAB0E28D939C9380E090E0A6EAB0E2A2
:1003F0008D939C9396E0A6EAB0E20E941816A6EAB6
:10040000B0E20D911C910C5F1F4FA6EAB0E20D9374
:100410001C9393E0A6EAB0E20E941816A6EAB0E2A6
:100420000D911C910A5F1F4FA6EAB0E20D931C9339
:1004300093E0A6EAB0E20E941816A6EAB0E20D9197
:100440001C910A5F1F4FA6EAB0E20D931C9393E044
:10045000A6EAB0E20E941816A6EAB0E20D911C913D
:10046000095F1F4FA6EAB0E20D931C9380E08093D2
:10047000A820A6E7B0E2BA93AA930E94470F22965B
:1004800084E190E00E948B13A6E7B0E2BA93AA93AE
:100490000E946212229678ED74BF75E2709380001C
:1004A00071E07093A200789480918000836078ED71
:1004B00074BF809380000E949C1410E80E94D614A0
:1004C00015E00E94D6141091AF200E94D61410910E
:1004D000AE200E94D6140E94BB140E949C1410E807
:1004E0000E94D61410E00E94D6141091A7200E94FA
:1004F000D6141091A6200E94D6140E94BB14EAE0E4
:10050000F3E30E945A1686E08A930E9465150E94C2
:100510004F1686E08A930E946D15A895A6E7B0E273
:10052000BA93AA930E94A00B2296A6E7B0E20C9180
:1005300000FB81E00EF080E08F93A6E7B0E20C9123
:1005400001FB81E00EF080E09F91892B8F93009159
:100550009F200A3F80E010F009F081E09F91892BF5
:10056000882311F40C94CA02A6E7B0E2BA93AA93C6
:100570000E94470F229684E190E00E948B13A6E729
:10058000B0E2BA93AA930E946212229684E190E0AC
:100590000E948B1300917E20003018F011F00C9413
:1005A000D3020C94F10280E080937E2081E080935E
:1005B000582083E080935920A6E7B0E2BA93AA932B
:1005C00089E492E0D2018D939C9382E00E94DF1532
:1005D0000E948F0D249682E00E94DB1572E07093DA
:1005E000050600917F20003018F011F00C94FA02FB
:1005F0000C943B0380E080937F2072E070930606AA
:10060000A8E2B6E00C9100FB16F40C9417030091DD
:100610002D20003018F011F00C9410030C941503E9
:1006200080912D20815080932D200C9422030091E5
:100630002D200A3010F00C942203ADE2B0E28C9130
:100640008F5F8C9372E07093050600912D200A3025
:1006500011F00C943003A2E3B1E28C9181608C9391
:1006600000912D20003011F00C943B03A2E3B1E285
:100670008C918E7F8C93A6E7B0E2BA93AA93ACE7F5
:10068000B0E2BA93AA930E94DB0B249600917620E5
:10069000003018F011F00C944F030C94C803ACE731
:1006A000B0E20D911C91073452E0150711F00C9443
:1006B000A50380E080938120A3E6B0E28C91A7E8B7
:1006C000B0E28D9388278C9398E0A7E8B0E20E946F
:1006D0001816A7E8B0E20D911C91A4E6B0E24D9186
:1006E0005527040F151FA7E8B0E20D931C93009146
:1006F00062204FE00423A0E8B0E20C93E6EFF2E3BF
:100700000E945A160E941E190E944F16E7E8F0E256
:10071000D190E080FF2400270E94E0170E9430184B
:10072000A1EAB0E2DD92ED92FD920D930E944F1688
:10073000E1EAF0E20E946E19DD2CEE2CFF2C002F76
:100740000E948917A5EAB0E2DC92ACE7B0E20D9115
:100750001C91093650E0150711F00C94BA038091F2
:10076000622080939E20809165208093372180E0D5
:1007700080939F20ACE7B0E20D911C91083450E0CB
:10078000150711F00C94C8038091622080933421E6
:100790000091A820013011F00C94D50727E080E0EB
:1007A000ABE2B0E20E944F16E0E0F2E00E94AB152F
:1007B0000E94D8080E943A090E947809ACE3B1E28D
:1007C0000D911D9117FB1EF42FEF3FEF02C0222762
:1007D0003327A2E4B1E24D915D9157FB1EF46FEF18
:1007E0007FEF02C0662777270E94EF15A8EBB0E2E3
:1007F0000D931D932D933D93A8EBB0E20D911D91A8
:100800002D913C9148EE53E060E070E00E940D13A2
:10081000A8EBB0E24D935D936D937D93EAEFF2E325
:100820000E945A160E941E190E944F16E2E4F1E23D
:10083000D190E0808FEFE7FE8827F82E082F0E94E6
:10084000F8170E943018A4ECB0E2DD92ED92FD9210
:100850000D930E944F16E4ECF0E20E9478170E947C
:100860004F16ECEBF0E20E9473170E94D018ACEB2D
:10087000B0E2DD92ED92FD920D930E944F16ECEBEB
:10088000F0E20E947317E2EFF2E30E945A160E9410
:100890001E190E945A1718F011F00C9451040C9470
:1008A0005904ACEBB0E2E2EFF2E30E945A160E9468
:1008B000391600918120083280E010F009F081E0C3
:1008C0008F9300919F20083280E010F009F081E0C2
:1008D0009F91892B882311F40C947504A8EDB0E244
:1008E0008C9181608C930C947A04A8EDB0E28C9189
:1008F0008E7F8C9300913721023310F40C9488047E
:10090000A5E3B1E28C9188608C938CE380933421D1
:1009100000913721083210F00C949304A5E3B1E262
:100920008C91877F8C930091A520033281E008F49D
:1009300080E08F9300919E20033281E008F480E0F4
:100940009F91892B882311F40C94AE04A5E3B1E2A6
:100950008C9184608C938CE3809334210091A5204A
:100960000E3181E008F080E08F9300919E200332E9
:1009700081E008F080E09F918923882311F40C9492
:10098000C604A5E3B1E28C918B7F8C93009180200B
:10099000003018F011F00C94CF040C94D604A5E3A9
:1009A000B1E28C9182608C930C94DB04A5E3B1E2FC
:1009B0008C918D7F8C930091D820003018F011F02D
:1009C0000C94E4040C94F50481E08093D72081E03A
:1009D000D2018C9381E00E94DF150E947A08229652
:1009E00081E00E94DB150C94270580E08093D720DE
:1009F00000913521003080E010F009F081E08F9304
:100A000000913421003080E010F009F081E09F91E6
:100A1000892B882311F40C941B0581E0D2018C935F
:100A200081E00E94DF150E947A08229681E00E94F0
:100A3000DB150C94270580E0D2018C9381E00E94A5
:100A4000DF150E947A08229681E00E94DB1581E082
:100A50008093D520EEEFF2E30E945A160E941E19F1
:100A60000E944F16ECE3F1E2D190E0808FEFE7FEB9
:100A70008827F82E082F0E94F8170E943018ACE241
:100A8000B1E2DD92ED92FD920D93A0E0BAE5AF9355
:100A9000BF930E944F16ECE2F1E20E9473170E948E
:100AA0009A1311E001E0BF91AF910E947316E0E04C
:100AB000FAE5ABE1B1E20E944717ABE1B1E20E9477
:100AC000FD12EEE3F3E30E945A160E9412160E94F2
:100AD0004F16EBE1F1E2A9EDB0E20E944717EEEF0D
:100AE000F2E30E945A160E941E190E944F16E2E479
:100AF000F1E2D190E0808FEFE7FE8827F82E082FF3
:100B00000E94F8170E943018ACE2B1E2DD92ED923B
:100B1000FD920D93A0E0BAE5AF93BF930E944F16EC
:100B2000ECE2F1E20E9473170E949A1311E001E0D7
:100B3000BF91AF910E947316E0E0FAE5ABE1B1E23C
:100B40000E944717ABE1B1E20E94FD12E2E4F3E339
:100B50000E945A160E9412160E944F16EBE1F1E213
:100B6000A9EDB0E20E94FD120E944717EEEFF2E3FA
:100B70000E945A160E941E190E944F16ECEBF0E2DA
:100B80000E9473170E943018ADECB0E2DD92ED9236
:100B9000FD920D93A0E0BAE5AF93BF930E944F166C
:100BA000EDECF0E20E9473170E949A1311E001E04D
:100BB000BF91AF910E947316E0E0FAE5ABE1B1E2BC
:100BC0000E944717ABE1B1E20E94FD12E6E4F3E3B5
:100BD0000E945A160E9412160E944F16EBE1F1E293
:100BE000A9EDB0E20E94FD120E9447170E944F1625
:100BF000ECEBF0E20E942E19DD2CEE2CFF2C002FE6
:100C00000E948917A9ECB0E2DD92ED92FD920D935E
:100C1000E6EFF2E30E945A160E941E190E944F1638
:100C2000ECE3F1E2D190E0808FEFE7FE8827F82E29
:100C3000082F0E94F8170E943018ACE2B1E2DD9252
:100C4000ED92FD920D938091D1208093D2200E944D
:100C50004F16ECE2F1E20E942E19DD2CEE2CFF2C57
:100C6000002F0E948917A1EDB0E2DC92A2E4B1E26C
:100C70008D919C91A3EDB0E28D939C9300912B20DC
:100C80000E3181E008F080E08F9300913121013036
:100C900081E009F080E09F918923882311F40C946E
:100CA0005E06009130210A3010F00C945C06A0E33F
:100CB000B1E28C918F5F8C930C94610680E08093FD
:100CC0003021009130210A3018F011F00C946A069E
:100CD0000C947606A2E3B1E28C9182608C93A8ED2D
:100CE000B0E28C9182608C930C948006A2E3B1E216
:100CF0008C918D7F8C93A8EDB0E28C918D7F8C933D
:100D000000913121013011F00C948B0681E0809329
:100D1000D6200C948E0680E08093D620AAEFB0E215
:100D2000EEE4F3E30E945A160E9412160E944F1638
:100D3000E5EAF0E2AAEFB0E20E94FD120E94D916A5
:100D4000AAEFB0E20E94FD12E2E5F3E30E945A1618
:100D50000E9412160E944F16EEE9F0E2AAEFB0E2EE
:100D60000E94FD120E94D916AAEFB0E20E94FD1265
:100D7000E8E5F3E30E945A160E9412160E944F16ED
:100D8000E7E3F1E2AAEFB0E20E94FD120E94D91659
:100D9000AAEFB0E20E94FD12EEE5F3E30E945A16BC
:100DA0000E941216A9EDB0E286E08A930E945E15B9
:100DB000E0E6F3E30E945A1686E08A930E946515E6
:100DC0000E944F16AAEFB0E286E08A930E945E1559
:100DD000E0E6F3E30E945A1686E08A930E946515C6
:100DE0000E944F160E944F16E7EDF0E2A0E0BAE530
:100DF0000E94D91686E08A930E945C15E0E6F3E330
:100E00000E945A1686E08A930E9465150E944F162A
:100E10000E944F16E5EDF0E2A0E0BAE50E94D91677
:100E200086E08A930E945C15E0E6F3E30E945A167E
:100E300086E08A930E9465150E944F160E944F1605
:100E4000E6EDF0E2A0E0BAE50E94D91686E08A93CA
:100E50000E945C15E0E6F3E30E945A1686E08A934E
:100E60000E9465150E944F1686E08A930E946D15B8
:100E700080E08093A82083E08093C82000913321F4
:100E8000003011F00C948C07A3E3B1E28C918F5FDA
:100E90008C930091D1200A3518F011F00C94520770
:100EA0000C9458078091D120809358200C945C07B3
:100EB0008091D220809358208091D4208093592013
:100EC0008091D32080935A208091CC2080935B2006
:100ED0008091CB2080935C208091CA2080935D20FC
:100EE0008091C92080935E208091322180935F2081
:100EF000A6E7B0E2BA93AA9383E390E0D2018D9380
:100F00009C9382E00E94DF150E948F0D249682E060
:100F10000E94DB150C94D507013011F00C94C30727
:100F2000A3E3B1E28C918F5F8C9380912B2080930F
:100F3000582080E08093592080E080935A2080E000
:100F400080935B2080E080935C2080E080935D2034
:100F500080E080935E208091322180935F20A6E71D
:100F6000B0E2BA93AA9383E490E0D2018D939C936C
:100F700082E00E94DF150E948F0D249682E00E947D
:100F8000DB150C94D507023011F00C94CE07A3E3C7
:100F9000B1E28C918F5F8C930C94D507033010F4E1
:100FA0000C94D50780E0809333210C948D020F922E
:100FB0001F922F923F924F925F927F92AF92BF9279
:100FC0000F931F932F933F934F935F936F937F9351
:100FD0008F939F93AF93BF93CF93DF93EF93FF9341
:100FE0008FB78F938BB78F9388278BBF88E19FE153
:100FF000809326089093270881E080937F200091BA
:1010000081200F3F10F00C940A08A1E8B0E28C9107
:101010008F5F8C9300919F200F3F10F00C94150868
:10102000AFE9B0E28C918F5F8C9300913421003056
:1010300080E010F009F081E08F93009136210530B7
:1010400081E009F080E09F918923882311F40C94BA
:1010500031088091342181508093342180E0809345
:101060003621A9EAB0E28C918F5F8C93A6E3B1E2BE
:101070008C918F5F8C934091C8200091A920041718
:1010800018F011F00C9446080C944C0881E0809301
:10109000A82080E08093A92070E27093870678E012
:1010A000709307068F918BBF8F918FBFFF91EF9148
:1010B000DF91CF91BF91AF919F918F917F916F9170
:1010C0005F914F913F912F911F910F91BF90AF90E2
:1010D0007F905F904F903F902F901F900F901895AA
:1010E00008950895089581E080937E2078E07093BC
:1010F00007060895A881B9810C91013011F00C9474
:10110000B90800912D20083018F011F00C948A08CD
:101110000C94A50870E47093060670E870930606B8
:10112000A2E4B1E20D911C91083B5BE015071CF0B5
:1011300011F00C949D080C94A20872E0709326069E
:101140000C94A50872E07093250600912D200230C2
:1011500010F00C94B40870E47093050670E8709376
:10116000050672E07093260681E0809331210C948D
:10117000D70870E47093050670E870930606A2E441
:10118000B1E20D911C91083B5BE015071CF011F0DA
:101190000C94CC080C94D10872E0709326060C9441
:1011A000D40872E07093250680E080933121089581
:1011B0000E949C1410E80E94D61412E00E94D614DB
:1011C0000E949C1411E80E94D6140E941715ADEAE3
:1011D000B0E21C930E941515ACEAB0E21C930E9489
:1011E000BB14E2E0F3E30E945A160E941E190E940B
:1011F0004F16ECEAF0E2D190E0808FEFE7FE88270F
:10120000F82E082F0E94F8170E948918A8E3B1E26F
:10121000DD92ED92FD920D930E944F16E8E3F1E20C
:101220000E942E19DD2CEE2CFF2C002F0E94891716
:10123000ACE3B1E2EE0C000FE794DD92EC9208957E
:101240000E949C1410E80E94D61411E00E94D6144B
:101250000E949C1411E80E94D6140E941715ABEA54
:10126000B0E21C930E941515AAEAB0E21C930E94FA
:10127000BB1408950E949C1410E80E94D61414E038
:101280000E94D6140E949C1411E80E94D6140E9459
:101290001715A1EBB0E21C930E941515A0EBB0E26C
:1012A0001C930E94BB140E944F16E0EBF0E2D19019
:1012B000E0808FEFE7FE8827F82E082F0E94F817AE
:1012C000AEE3B1E20E947D170E944F16EEE3F1E219
:1012D0000E942E19DD2CEE2CFF2C002F0E94891766
:1012E000A2E4B1E2EE0C000FE794DD92EC920895D7
:1012F0000E949C1410E80E94D61413E00E94D61499
:101300000E949C1411E80E94D6140E941715A3EBAA
:10131000B0E21C930E941515A2EBB0E21C93E6E02C
:10132000F3E30E945A160E941E190E944F16E2EB28
:10133000F0E2D190E0808FEFE7FE8827F82E082FAB
:101340000E94F8170E943018A4EBB0E2DD92ED92F3
:10135000FD920D93EEEFF2E30E945A160E941E19C1
:101360000E944F16E4EBF0E20E9473170E94891866
:10137000DD2CEE2CFF2C002F0E948917A2EBB0E28F
:10138000EE0C000FE794DD92EC920E94BB140895DE
:1013900081E00E94DF15E2E6F3E30E945A1686E040
:1013A0008A930E9465150E944F1686E08A930E94D8
:1013B0006D1580E0A881B9818C93A881B9810C91C9
:1013C0000E3F18F011F00C94400A0E949C14A88162
:1013D000B9811C910E94D61462FA16F40C94360A54
:1013E000EEE6F3E30E945A1686E08A930E946515A2
:1013F0000E944F160E944F16E881F981A0E0BAE5DD
:101400000E94D91686E08A930E945C15EAE7F3E30E
:101410000E945A1686E08A930E9465150E944F1614
:10142000A0E0BAE50E944F16E881F9810E941B17DF
:1014300086E08A930E945C15E2E8F3E30E945A1664
:1014400086E08A930E9465150E944F16D2010E9481
:101450004F16E881F9810E943417D20186E08A9301
:101460000E945E1586E08A930E946D150E94BB144F
:10147000A881B9818C918E5F8C9310F40C94DD0956
:10148000EAE8F3E30E945A1686E08A930E94651503
:101490000E944F1686E08A930E946D1581E0AA8112
:1014A000BB818C9381E0481A80E0580A2296089507
:1014B00081E00E94DF15AA81BB810C91003011F000
:1014C0000C94680A82ECA881B9818C930C94840AEC
:1014D000013011F00C94720A82EDA881B9818C93CD
:1014E0000C94840A023011F00C947C0A88EEA881D6
:1014F000B9818C930C94840A033011F00C94840A03
:1015000082EFA881B9818C930E949C1410E90E94FB
:10151000D61411E00E94D614A881B9811C910E94B2
:10152000D61413E80E94D6140E94BB1481E0481A16
:1015300080E0580A229608950E949C1410E90E94A7
:10154000D61410E00E94D6140E949C1411E90E9447
:10155000D6140E941715A1E0B0E21C930E94151545
:10156000A0E0B0E21C930E94BB14A1E0B0E20C9199
:1015700007FB16F00C94CC0A80E090E0A881B981BA
:10158000AD90BB24ACE2B0E2AA0CBB1CAA0DBB1D03
:101590008D939C930C94DC0AA0E0B0E28D919C9119
:1015A000A881B981AD90BB24ACE2B0E2AA0CBB1C0F
:1015B000AA0DBB1D8D939C93089581E00E94DF15B9
:1015C000AA81BB810C91003011F00C94ED0A82ECE1
:1015D000A881B9818C930C94090B013011F00C9403
:1015E000F70A82EDA881B9818C930C94090B023023
:1015F00011F00C94010B82EEA881B9818C930C94AC
:10160000090B033011F00C94090B82EFA881B9810A
:101610008C930E949C1410E90E94D61411E00E9441
:10162000D614A881B9811C910E94D61413E80E9497
:10163000D6140E94BB1488E290E00E948B130E9493
:101640009C1410E90E94D61410E00E94D6140E9447
:101650009C1411E90E94D6140E941715A1E0B0E273
:101660001C930E941515A0E0B0E21C930E94BB14CD
:10167000A1E0B0E20C9107FB16F00C945F0B0FEFAA
:101680001FEFA0E0B0E24D915C91041B150BA0E0B0
:10169000B0E20D931C93AC81BD81E4E9F3E30E94B9
:1016A0005A160E9412160E944F16E0E0F0E2AC813A
:1016B000BD810E94FD120E94C9160C94710BAC8171
:1016C000BD81E6E9F3E30E945A160E9412160E94B9
:1016D0004F16E0E0F0E2AC81BD810E94FD120E9455
:1016E000C91681E0481A80E0580A2296089582E0DF
:1016F0008093382080E68093392080E080933A20E0
:1017000072E07093460693E0A8E3B0E20E946F1384
:1017100072E07093450682E08093382080E78093E2
:10172000392080E080933A2072E07093460693E07F
:10173000A8E3B0E20E946F1372E07093450608952B
:1017400083E0809338208DE28093392080E080937D
:101750003A2072E07093460692E0A8E3B0E20E945D
:101760006F1391E0A8E4B0E20E94641372E07093FA
:10177000450680914820A881B9818C93089583E023
:10178000809338208CE28093392072E07093460673
:1017900092E0A8E3B0E20E946F1391E0A8E4B0E207
:1017A0000E94641372E07093450680914820A881DE
:1017B000B9818C93089583E0809338208CE28093E4
:1017C000392072E07093460692E0A8E3B0E20E94EE
:1017D0006F1392E0A8E4B0E20E94641372E0709389
:1017E0004506A8E4B0E28C9183708C930091482068
:1017F000013011F00C947E0C83E08093382081E658
:101800008093392072E07093460692E0A8E3B0E23C
:101810000E946F1395E0A8E4B0E20E94641372E0A6
:101820007093450695E0A9E4B0E20E942316A8E46F
:10183000B0E28C91A881B9818D9388278C9393E035
:10184000A881B9810E941816A881B9810D911C91B7
:10185000A9E4B0E24D915527040F151FA881B98165
:101860000D931C9383E08093382080E68093392089
:1018700080E08093392072E07093460693E0A8E3FD
:10188000B0E20E946F1392E0A8E4B0E20E946413F9
:1018900072E07093450683E08093382085E680935C
:1018A000392072E07093460693E0A8E3B0E20E940C
:1018B0006F1398E0A2E6B0E20E94641372E07093A6
:1018C000450685E0809338208CE28093392081E0C2
:1018D00080933A2080E080933B2072E0709346062C
:1018E00094E0A8E3B0E20E946F1372E070934506A3
:1018F00081E0AA81BB818C930C948E0D023011F093
:101900000C94040D83E08093382081E78093392084
:1019100072E07093460692E0A8E3B0E20E946F1373
:1019200095E0A8E4B0E20E94641372E0709345066B
:1019300095E0A9E4B0E20E942316A8E4B0E28C91FD
:10194000A881B9818D9388278C9393E0A881B98170
:101950000E941816A881B9810D911C91A9E4B0E2EA
:101960004D915527040F151FA881B9810D931C9324
:1019700083E08093382080E78093392080E0809353
:10198000392072E07093460693E0A8E3B0E20E942B
:101990006F1392E0A8E4B0E20E94641372E07093C7
:1019A000450683E08093382085E78093392072E0F4
:1019B0007093460693E0A8E3B0E20E946F1398E0AC
:1019C000A2E6B0E20E94641372E07093450685E0DF
:1019D000809338208CE28093392082E080933A20F3
:1019E00080E080933B2072E07093460694E0A8E389
:1019F000B0E20E946F1372E07093450682E0AA8104
:101A0000BB818C930C948E0D033011F00C948A0DD5
:101A100083E08093382081E78093392072E07093CF
:101A2000460692E0A8E3B0E20E946F1395E0A8E4B6
:101A3000B0E20E94641372E07093450695E0A9E459
:101A4000B0E20E942316A8E4B0E28C91A881B9818B
:101A50008D9388278C9393E0A881B9810E941816F2
:101A6000A881B9810D911C91A9E4B0E24D9155274F
:101A7000040F151FA881B9810D931C9383E08093F7
:101A8000382080E78093392080E08093392072E00D
:101A90007093460693E0A8E3B0E20E946F1392E0D1
:101AA000A8E4B0E20E94641372E07093450683E0FC
:101AB0008093382085E78093392072E07093460642
:101AC00093E0A8E3B0E20E946F1398E0A2E6B0E2D0
:101AD0000E94641372E07093450685E0809338207D
:101AE0008CE28093392082E080933A2080E08093DA
:101AF0003B2072E07093460694E0A8E3B0E20E94B7
:101B00006F1372E07093450681E0AA81BB818C93CC
:101B10000C948E0D80E0AA81BB818C93089583E0A4
:101B20008093382080E38093392072E070934606DA
:101B300092E0A8E3B0E20E946F1391E0A2E6B0E267
:101B40000E94641372E07093450682E00E94DF15E4
:101B5000AA81BB8111968C91082F112740E051E09A
:101B60000E94E515A881B9810D931C93A881B981C4
:101B70000D911C910F931F93AA81BB818C91482FCB
:101B800055271F910F91040F151FA881B9810D933F
:101B90001C9395E0A881B9810E94181682E0809379
:101BA000382081E380933920A881B98111968C91E6
:101BB000AAE3B0E28C93A881B9818C91ABE3B0E247
:101BC0008C9380E080933C2080E080933D2088E0EF
:101BD00080933E208091582080933F20809159200F
:101BE0008093402080915A208093412080915B20F7
:101BF0008093422080915C208093432080915D20DF
:101C00008093442080915E208093452080915F20C6
:101C10008093462072E0709346069FE0A8E3B0E20E
:101C20000E946F1372E07093450685E08093382020
:101C300080E38093392088E080933A2088E0809385
:101C40003B2072E07093460694E0A8E3B0E20E9465
:101C50006F1372E07093450683E08093382080E331
:101C60008093392072E07093460692E0A8E3B0E2D8
:101C70000E946F1391E0A2E6B0E20E94641372E04A
:101C80007093450682E0481A80E0580A229608952B
:101C900082E00E94DF1581E00E94DF1581E3A881C8
:101CA000B9818C9383E08093382080E3809339203E
:101CB00072E07093460692E0A8E3B0E20E946F13D0
:101CC00091E0A2E6B0E20E94641372E070934506D0
:101CD000A2E6B0E20C9103FB16F00C94890E83E0AF
:101CE0008093382080E48093392072E07093460618
:101CF00092E0A8E3B0E20E946F1391E0A2E6B0E2A6
:101D00000E94641372E07093450681E4A881B98152
:101D10008C93A2E6B0E20C9103FB16F00C94AA0E91
:101D200083E08093382080E58093392072E07093BF
:101D3000460692E0A8E3B0E20E946F1391E0A2E6AB
:101D4000B0E20E94641372E07093450681E5A881B9
:101D5000B9818C93A2E6B0E20C9103FB16F40C94CB
:101D60003D0FAC81BD8111968C91082F112740E069
:101D700051E00E94E515AA81BB810D931C93AA81B5
:101D8000BB810D911C910F931F93AC81BD818C91F0
:101D9000482F55271F910F91040F151FAA81BB8152
:101DA0000D931C9395E0AA81BB810E94181682E0D6
:101DB00080933820A881B9818C9180933920AA81A1
:101DC000BB8111968C91AAE3B0E28C93AA81BB816E
:101DD0008C91ABE3B0E28C9380E080933C2080E078
:101DE00080933D2082E080933E2080915820809314
:101DF0003F20809159208093402080915A208093E9
:101E0000412080915B208093422080915C208093D0
:101E1000432080915D208093442080915E208093B8
:101E2000452080915F208093462072E070934606A3
:101E30009FE0A8E3B0E20E946F1372E07093450642
:101E400085E08093382080E38093392088E0809378
:101E50003A2088E080933B2072E07093460694E03D
:101E6000A8E3B0E20E946F1372E07093450680E031
:101E7000AE81BF818C930C94410F85E0AE81BF8110
:101E80008C9383E0481A80E0580A2496089580ECE9
:101E90008093382072E07093460691E0A8E3B0E2A8
:101EA0000E946F13EF93FF93ECE3F0E00E94611345
:101EB000FF91EF9172E0709345068AE090E00E94F6
:101EC0008B1382E08093382080E38093392080E078
:101ED00080933A2072E07093460693E0A8E3B0E264
:101EE0000E946F1372E07093450682E08093382061
:101EF00080E48093392080E080933A2072E07093F0
:101F0000460693E0A8E3B0E20E946F1372E070937C
:101F1000450682E08093382080E58093392080E078
:101F200080933A2072E07093460693E0A8E3B0E213
:101F30000E946F1372E07093450682E08093382010
:101F400080E68093392080E080933A2072E070939D
:101F5000460693E0A8E3B0E20E946F1372E070932C
:101F6000450682E08093382080E78093392080E026
:101F700080933A2072E07093460693E0A8E3B0E2C3
:101F80000E946F1372E07093450682E080933820C0
:101F90008BE28093392083E080933A2072E0709343
:101FA000460693E0A8E3B0E20E946F1372E07093DC
:101FB000450685E08093382080E68093392087E6C7
:101FC00080933A2084E080933B2072E07093460631
:101FD00094E0A8E3B0E20E946F1372E070934506AC
:101FE00085E08093382080E78093392087E68093CE
:101FF0003A2081E080933B2072E07093460694E0A3
:10200000A8E3B0E20E946F1372E07093450685E08A
:10201000809338208FE08093392080EE80933A209F
:1020200080E880933B2072E07093460694E0A8E33A
:10203000B0E20E946F1372E070934506A881B981E7
:10204000BA93AA930E944312229682E0809338208A
:1020500080E08093392080E080933A2080E0809374
:102060003B2080E080933C2080E080933D2072E024
:102070007093460696E0A8E3B0E20E946F1372E008
:102080007093450685E0809338208FE08093392057
:1020900080EE80933A2080E880933B2072E070933A
:1020A000460694E0A8E3B0E20E946F1372E07093DA
:1020B0004506A881B981BA93AA930E944312229639
:1020C00082E08093382084E08093392080E0809300
:1020D0003A2088E080933B2080E080933C2080E0A1
:1020E00080933D2072E07093460696E0A8E3B0E24C
:1020F0000E946F1372E07093450685E0809338204C
:102100008FE08093392080EE80933A2080E880939E
:102110003B2072E07093460694E0A8E3B0E20E9490
:102120006F1372E070934506A881B981BA93AA93A0
:102130000E944312229682E08093382088E08093A8
:10214000392080E080933A2080E080933B2080E03B
:1021500080933C2080E080933D2072E0709346069F
:1021600096E0A8E3B0E20E946F1372E07093450618
:1021700085E0809338208FE08093392080EE809333
:102180003A2080E880933B2072E07093460694E00A
:10219000A8E3B0E20E946F1372E07093450683E0FB
:1021A000809338208EE08093392080E080933A201D
:1021B00072E07093460692E0A8E3B0E20E946F13CB
:1021C00092E0A8E4B0E20E94641372E070934506C6
:1021D000EF93FF93ECE3F0E00E946113FF91EF9126
:1021E00082E08093382080E18093392080E08093E2
:1021F0003A2080E080933B2080E080933C2080E088
:1022000080933D2072E07093460696E0A8E3B0E22A
:102210000E946F1372E07093450685E0809338202A
:102220008FE08093392080EE80933A2080E880937D
:102230003B2072E07093460694E0A8E3B0E20E946F
:102240006F1372E070934506A881B981BA93AA937F
:102250000E944312229682E08093382084E180938A
:10226000392080E080933A2080E080933B2080E01A
:1022700080933C2080E080933D2072E0709346067E
:1022800096E0A8E3B0E20E946F1372E070934506F7
:1022900085E0809338208FE08093392080EE809312
:1022A0003A2080E880933B2072E07093460694E0E9
:1022B000A8E3B0E20E946F1372E070934506A88114
:1022C000B981BA93AA930E944312229682E0809326
:1022D000382088E18093392080E080933A2080E0A4
:1022E00080933B2080E080933C2080E080933D20E1
:1022F00072E07093460696E0A8E3B0E20E946F1386
:1023000072E07093450685E0809338208FE08093DB
:10231000392080EE80933A2080E880933B2072E061
:102320007093460694E0A8E3B0E20E946F1372E057
:1023300070934506A881B981BA93AA930E9443126B
:10234000229682E08093382080E28093392080E0DA
:1023500080933A2088E080933B2080E080933C206B
:1023600080E080933D2072E07093460696E0A8E3FB
:10237000B0E20E946F1372E07093450685E080938F
:1023800038208FE08093392080EE80933A2080E8D7
:1023900080933B2072E07093460694E0A8E3B0E29D
:1023A0000E946F1372E07093450683E0809338209B
:1023B0008EE08093392080E080933A2072E0709321
:1023C000460692E0A8E3B0E20E946F1392E0A8E410
:1023D000B0E20E94641372E07093450682E080933D
:1023E000382084E28093392080E080933A2088E08E
:1023F00080933B2080E080933C2080E080933D20D0
:1024000072E07093460696E0A8E3B0E20E946F1374
:1024100072E07093450685E0809338208FE08093CA
:10242000392080EE80933A2080E880933B2072E050
:102430007093460694E0A8E3B0E20E946F1372E046
:102440007093450682E0809338208CE08093392099
:102450008FE080933A2072E07093460693E0A8E301
:10246000B0E20E946F1372E070934506A881B981B3
:10247000BA93AA930E944312229680914820A88181
:10248000B9818C93089583E0809338208EE0809307
:10249000392080E080933A2072E07093460692E003
:1024A000A8E3B0E20E946F1391E0A8E4B0E20E94BA
:1024B000641372E07093450680914820A881B98129
:1024C0008C93089585E0809338208FE080933920A5
:1024D00080EE80933A2080E880933B2072E07093F6
:1024E000460694E0A8E3B0E20E946F1372E0709396
:1024F0004506A881B981BA93AA930E9443122296F5
:1025000082E0809338208AE28093392080E08093B3
:102510003A2072E07093460693E0A8E3B0E20E948E
:102520006F1372E07093450682E08093382089E251
:102530008093392080EF80933A2072E070934606B2
:1025400093E0A8E3B0E20E946F1372E07093450637
:1025500082E08093382088E28093392086E8809357
:102560003A2072E07093460693E0A8E3B0E20E943E
:102570006F1372E07093450685E0809338208FE0FA
:102580008093392080EE80933A2080E080933B2036
:1025900072E07093460694E0A8E3B0E20E946F13E5
:1025A00072E070934506A881B981BA93AA930E94FC
:1025B00043122296089505D00E94E51500FC0CD028
:1025C00008950024E89457FF02C009D0689400F8E9
:1025D0000BD010F80124089502D009D00895509529
:1025E00040954F5F5F4F0895E89417FF0895009559
:1025F00010950F5F1F4F689408958F938D918823D6
:10260000E9F711978F91089588EE93E084D0319780
:10261000D9F7089500FC05D0089530D005D001F811
:10262000F9CF37D03FD00895842F952FA62FB72FFD
:10263000E894452B462B472B11F468940895402FBE
:10264000512F622F732F0027112722273327F0E203
:10265000440F551F661F771F001F111F221F331FB6
:10266000081B190B2A0B3B0B416028F4080F191F9C
:102670002A1F3B1F4E7FFA9559F708950024E894CE
:1026800077FF02C006D0689400F809D010F8012442
:10269000089512D04F5F5F4F6F4F7F4F0895E894BA
:1026A00037FF089500951095209530950F5F1F4FC7
:1026B0002F4F3F4F689408954095509560957095C1
:1026C00008953197F1F708950E947A138C910E9432
:1026D0007C138D939A95D1F70E947B1308950E94E5
:1026E0007A138D910E947C139A95D9F70E947B13DF
:1026F00008950895089508958093C3088091C208AD
:1027000087FFFCCF8091C3080895689462F808950C
:10271000E89462F80895EF93FF93EE27E82BE92BF6
:1027200031F0E0E4FFE13197F1F70197D1F7FF9144
:10273000EF9108958DE207FD8D938F2D881F802FD7
:10274000881F8F57082F6894F7F8802F87FF17C0CE
:1027500080958395082F80E38D938EE28D93802F53
:10276000815238F080E38D9399279C930E944F16F5
:10277000089544270A95802F09F19ED01FC08052EA
:1027800030F09EE49D9381E48D939D93EDCF44279B
:10279000DF92EF92FF920F938FE1801B11F0082FD1
:1027A0008BD091D09EE29D930F91FF90EF90DF90A0
:1027B00044270395003209F4D5CF33D03F93E8E5A1
:1027C000F8E20E945A1638E12F2D1E2D0D2DFF2400
:1027D000EE24DD244427000F111F221FB8F42F928E
:1027E0003F920E942B16102C0E942B16202C0E9428
:1027F0002B16302C0E942B1631970E944816410D43
:10280000D21CE31CF01C3F902F9003C033960E9413
:10281000411631960E9441163A95E9F63F9107D04C
:10282000A5CFDD0CEE1CFF1C0A95D9F708950027F3
:1028300019E058D08F93802B11F0039501C08F9130
:102840001A95B9F7802F882309F48CCF8F91805D7A
:102850008D930A95D9F788CF0065CD1D80B2E60E1D
:1028600040597307A0ACB90350D6DC01286BEE00C9
:1028700094357700CA9A3B0065CD1D00B2E60E0084
:1028800059730700ACB90300D6DC01006BEE000001
:10289000357700009A3B0000CD1D0000E60E0000D9
:1028A00073070000B9030000DC010000EE00000027
:1028B000770000003B000000F694E794D79447951A
:1028C0000A95D1F7089500270DD08F9303958F2D8A
:1028D0008E298D29842BC1F78F91805D8D930A9568
:1028E000D9F742CF1F930F93002710E2440FDD1C4E
:1028F000EE1CFF1C001F802F9AE0890B10F0082FA0
:1029000043951A9599F7802F0F911F910895709113
:1029100060067E7F70936006709160067D7F709385
:102920006006709164067E7F709364067091640601
:102930007D7F709364060895709160067260709355
:102940006006709160067E7F709360060BD0709178
:1029500060067D7F7093600605D07091600671609F
:1029600070936006EF93FF93ECE4F0E00E94611334
:10297000FF91EF9108957091600672607093600608
:1029800070916006716070936006ECDF7091600674
:102990007D7F709360060090680601FEFCCFE2DF49
:1029A000709160067E7F70936006DCCF0894111FE3
:1029B00001C0110FF9F070916006726070936006AB
:1029C00038F40000709160067E7F7093600606C048
:1029D0007091600671607093600600C0C3DF7091F3
:1029E00060067D7F709360060090680601FEFCCF54
:1029F000B9DFDFCF709160067260709360067091EE
:102A000060067E7F70936006ADDF709160067D7F0B
:102A1000709360060090680601FEFCCFE894009079
:102A2000680600FC689462F89DCF089401C0889401
:102A3000331F11E0709160067260709360067091B0
:102A400060067E7F709360068DDF709160067D7FEB
:102A5000709360060090680601FEFCCF83DF8894C7
:102A60000090680600FC0894111F20F77091600622
:102A7000726070936006379530F4709160067E7FC7
:102A80007093600605C07091600671607093600677
:102A900069DF709160067D7F709360060090680624
:102AA00001FEFCCF5FDF08957991A0EA769508F4E6
:102AB000A0EBB8E0B70F0895A0E0BAE58D918823A8
:102AC00011F00FD0FBCF219608950E942B16802D78
:102AD00011F007D0FACF219608958DE002D08AE058
:102AE00002C078817A93BF93AF93DEDF11967C9119
:102AF00075FFFDCF11978C93AF91BF9108958F9380
:102B00009F93AF93BF93882790E2A3E0B0E28D93A9
:102B10009A95E9F7BF91AF919F918F9108958F9307
:102B200080910320881F8093032080910420881FB8
:102B30008093042080910520881F80930520809138
:102B40000620881F8093062080910720881F80938D
:102B500007208F9108953327982F990F01E088233C
:102B600021F0000F385F8A95E1F72F3F39F0BF0160
:102B7000B196E30F3327F31F2083FB010683802FD9
:102B8000880F880F81601081107C182B108386813C
:102B90008023E9F37096E90F9927F91F81918D93AE
:102BA00081918D9308950191119121913081089522
:102BB000481A590A0895481A8827580A08959927E3
:102BC0005A924A92480E591E08950F92B801469F94
:102BD0008001479F100D569F100D0F9008950F9282
:102BE0001F922F92C801D901489F80014A9F9001EE
:102BF0004B9F202C499F100D211D321D5A9F202CC8
:102C0000589F100D211D321D599F200D311D689FA9
:102C1000200D311D699F300D789F300D2F901F9032
:102C20000F9008950E942B160D920020D9F7089559
:102C3000903041F00D911C91000F111F9A95E1F712
:102C40001C930E930895903029F08C9186959A9557
:102C5000E9F78C930895D895319628F48F938BB724
:102C600083958BBF8F910020089591E005C092E07D
:102C700003C094E001C098E0EEDF0D929A95E1F771
:102C8000089528F48F938BB783958BBF8F91089508
:102C900028F48F938BB78A958BBF8F9108950F92ED
:102CA00000240BBE0F9008950F9301E00BBF0F910E
:102CB000889408950F930027F9CF0F9302E0F6CF81
:102CC0000F9303E0F3CF0F9304E0F0CF99278D919A
:102CD00093958823E1F7939511968C9311978E9194
:102CE0009A95D1F70895EA2FFB2F00244C918D91EE
:102CF00003948E32E1F711248D9113948823E1F728
:102D00001A94101640F41197202F2119239580E36F
:102D10008D932A95E9F7113039F59927AE2FBF2FFA
:102D2000A00DB91FA00FB91F8C919C93853308F497
:102D300021C031E08E918E32E9F38D3241F0830F64
:102D40008A3319F480E331E001C033278C93AE1746
:102D500089F7332341F0AE2FBF2FB8DF81E34D3227
:102D600009F43196808308958827E00DF81FE00F5D
:102D7000F81F80830895000F111F221F331F08952D
:102D800000951095209530950F5F1F4F2F4F3F4FA7
:102D90000895019110810FC00E94D3150EC00E94AA
:102DA000D31510C00191108117FF05C03FEF2FEF21
:102DB00004C0008111272227332737FF03C0E0DF3B
:102DC0008DE28D930E947F1540E20E944F16E3E052
:102DD000F0E255E093E38081890F87FD9F7083FDCA
:102DE000907F891B81935A95A9F7C5DF0E948F15A3
:102DF0004A9559F7E8940E944F16E3E0F0E20E2E50
:102E00000394359682910AD0E015E0F726F0689495
:102E10008091032007D088278D930895982F82955D
:102E200001D0892F8F70805D26F0803309F40895DA
:102E300068948D93089541E003C042E001C044E0EE
:102E4000E40F8827F81F8291982F829506D0892F4A
:102E500004D04A95C1F70C9444178F708A3008F05B
:102E6000895F805D8D93089541E0E40F8827F81F06
:102E7000829138E098E1880F991F9D933A95D1F798
:102E80004A95B1F70C94441788278D930895819142
:102E90008D938823E1F70895B7FE089590E8B91659
:102EA00011F4D0FE08959FEFD91AE90AF90A09F43E
:102EB000039508950F928F939F93D216E306F4061D
:102EC0000FB680E890E8802795270FBE890739F074
:102ED0000FB6892B87FD02C081E008260FBE9F91A7
:102EE0008F910F900895D190E190F1900191089504
:102EF00021913191419151910895DD92ED92FD9290
:102F00000C930895502F2D2D3E2D4F2D612F089598
:102F1000EADF992711278F2D880F80E8F82A802F64
:102F2000881F08F41FEF41F08F57082F07FD04C0DA
:102F3000003240F08FEF01C08827982FD82EE82E5E
:102F4000F82E09C08FE1801B082FF694E794D794E0
:102F500097950A95D1F7112351F09095D094E0946C
:102F6000F09481E0980F8827D81EE81EF81E0F2DD8
:102F7000FE2CED2CD92E0895D094E094F09491E09D
:102F8000D90E9927E91EF91E10950895652F90E82E
:102F9000440F551F5927990F47956078102F90E8D7
:102FA000FF0C001F0927990FF79410780038089537
:102FB000FF0C90E89027110F9795F794092F08952B
:102FC0001127BD2CDE2CEF2CF02E0EE1FF2039F462
:102FD000FE2CED2CDB2CBB240850C2F775C032F060
:102FE0000A95BB0CDD1CEE1CFF1CF9CF55DFE0CFB2
:102FF000102FBD2CDE2CEF2CF02E11234AF4B094B0
:10300000D094E094F0949FEFB91AD90AE90AF90A2A
:103010000EE1FF2039F4FE2CED2CDB2CBB240850F4
:10302000C2F752C032F00A95BB0CDD1CEE1CFF1C2F
:10303000F9CF32DFBDCF2DEC3CEC4CEC5DE36627E5
:103040000FC051DF5FDFDD24EE2490E8F92E0FE39F
:1030500007C04EDF05C02227332740E251E4662730
:10306000552351F1002381F191DF71F116270058AA
:1030700050580894050B18F407FD03C025C007FD40
:1030800023C0469537952795F694E794D79425D095
:10309000FF202AF0DD0CEE1CFF1C015073F09D2D6B
:1030A000969548F0DD203AF4EE202AF491E0D90E0E
:1030B0009927E91EF91E7CCF07C09FE7092FF92A3F
:1030C0009FEFD92EE92E0895DD24EE24FF2400275A
:1030D000112708950FE79FEFF2CF9F929924AA241A
:1030E000BB2488E1D216E306F40628F0D21AE30ADC
:1030F000F40A089401C08894991CAA1CBB1CDD0C1E
:10310000EE1CFF1C8A9571F7D92CEA2CFB2C9F90A2
:1031100008953CDFD9F05038C9F016270058952F94
:1031200090580894091F12F418F40EC008F00EC04D
:103130000FD0FF202AF0BB0CDD1CEE1CFF1C02C0D0
:10314000039513F0A9DE34CF0C945D180C94641829
:103150009F92FF92EF928D2DFF24EE24DD24BB245D
:1031600093E0849F1001829FB00CD11CE21CF31CE1
:10317000839FD00CE11C2224F21C9A9531F0BD2CC7
:10318000DE2CEF2CFF248F91ECCF9F9008950AF056
:1031900045D00ECF5FE322273327442701C0A8DEA6
:1031A000F5DE5038B1F3003899F3902F951B8BF36F
:1031B00012F434D0FACF983118F02227332744275D
:1031C000983028F0232F342F44279850F9CF992393
:1031D00029F04695379527959A95D9F7912F9627F7
:1031E00042F014D0B0F6F794E794D7940F5F8BF6C3
:1031F00064CF10D051F008F4BFDEFF2052F2DD0C96
:10320000EE1CFF1C0150CBF758CF5ECFD20EE31E51
:10321000F41E0895D21AE30AF40A0895DF92EF9299
:10322000FF920F931F93D22EE32EF42E052F162F0D
:103230006F915F914F913F912F9108950E942B16AE
:10324000202D0E942B16302D0E942B16402D0E94FF
:103250002B16502D089547DE80E003C044DE802FFA
:103260008078882321F0DF92EF92FF920F938F9363
:103270000E94C617802F839512F426DF1BC080950D
:103280008A95885E0AF415C088501AF40CD0D922A9
:1032900010C0DD2488501AF406D0E9220AC0EE24BA
:1032A00002D0F92206C09FEF8770990F8A95EAF73E
:1032B00008957EDE8F918823D9F35F914F913F91DE
:1032C0002F910F93F7DD0F9199F390F302D050688F
:1032D00067CF5FE340E833272227089504DE0F938A
:1032E0000F7758DFBCDF8F918078082B089500009E
:1032F00020410050C3470000C84200006145000063
:103300007A44E2D99F3F0000204220202020202044
:103310002020202020202020202020202020202F9E
:10332000202020202020202020202020202020209D
:1033300020202020202F322F302F302F0000562029
:103340000000412000004168202020200000546B34
:103350003A002054703A00002053633A00002000E5
:103360002F005363616E2073746172740000536C9C
:10337000617665206174203A200020686578203AE3
:1033800020002062696E203A2000456E642053635D
:08339000616E00002D002B000E
:00000001FF
