:100000000C94FE001895000018950000189500004B
:10001000189500001895000018950000189500002C
:1000200018950000189500000C94CC20189500003D
:1000300018950000189500000C943C1118950000CC
:1000400018950000189500001895000018950000FC
:1000500018950000189500001895000018950000EC
:10006000189500000C945E2118950000189500006A
:100070000C948C211895000018950000189500002C
:1000800018950000189500001895000018950000BC
:1000900018950000189500001895000018950000AC
:1000A000189500001895000018950000189500009C
:1000B000189500001895000018950000189500008C
:1000C000189500001895000018950000189500007C
:1000D000189500001895000018950000189500006C
:1000E000189500001895000018950000189500005C
:1000F000189500001895000018950000189500004C
:10010000189500001895000018950000189500003B
:10011000189500001895000018950000189500002B
:10012000189500001895000018950000189500001B
:10013000189500001895000018950000189500000B
:1001400018950000189500001895000018950000FB
:1001500018950000189500001895000018950000EB
:100160000C94BE2118950000189500000C94F22103
:1001700018950000189500001895000018950000CB
:1001800018950000189500001895000018950000BB
:1001900018950000189500001895000018950000AB
:1001A000189500001895000018950000189500009B
:1001B000189500001895000018950000189500008B
:1001C000189500001895000018950000189500007B
:1001D000189500001895000018950000189500006B
:1001E000189500001895000018950000189500005B
:1001F0001895000018950000189500008FEF8DBF2E
:10020000C0E0E8E14E2E8FE58EBFDEE5FAE55F2E19
:10021000009078008FE38093780081E078ED74BFE0
:1002200080938000EEEFFFE3A0E0B0E288278D939B
:100230003197E9F7662470E07093520087E0A0E5FB
:10024000B0E08D939C9197708917E1F780915100F0
:1002500081FFFCCF78ED74BF71E07093400078EDC2
:1002600074BF70E07093410070E47093A10671E078
:100270007093010674E07093010674E070930506B4
:1002800072E07093010672E07093050678E0709357
:10029000010678E07093050670E17093010670E145
:1002A0007093050670E27093010670E27093050684
:1002B00074E07093210678E07093210671E07093EA
:1002C000220672E07093220671E07093410671E09D
:1002D0007093450672E07093410672E07093450694
:1002E00074E07093420678E07093810688E1A4EA96
:1002F000BAE08D9383E08D938EE28D9388E98C93A1
:1003000078E07093A10688E1A4EABBE08D9383E0D6
:100310008D938EE28D9388E98C938091A3088F7CD6
:1003200080628093A3088091B3088F7C8062809361
:10033000B3088091A3098F7C80628093A309809188
:10034000B3098F7C80628093B30974E07093A50633
:1003500078E07093A5060E947C1B70EB70934106B9
:1003600070E17093450680ED8093C0088AE090E0CC
:100370000E94531B70E17093410680E08A938FEFD7
:100380008A938FEF8A938FEF8A9381E08A9381E03B
:100390008A9388EA8A9380EC8A9383E18A9381E046
:1003A0008A9388EA8A9380EC8A9382E38A9384E131
:1003B0008A938EE08A938CE08A9380E88A938CE01B
:1003C0008A9328C002020202020202020202020210
:1003D00002020202FF07FF07FF07FF07FF07FF07F1
:1003E000FF07FF07FF07FF07FF07FF07FF07FF07DD
:1003F000FF07FF0700000008001000180020002879
:10040000003000380000000800100018002000280C
:100410000030003868940E943D1C8AE090E00E9401
:10042000531B77E07093000884E89EE180932608D0
:100430009093270878ED74BF81E0A0EFB0E08C9333
:1004400082E08C9384608C93EF93FF93ECE3F6E06F
:100450000E94291BFF91EF918EE18C938091F10016
:1004600083FFFCCF0FEF13E020E030E0A8E2B4E020
:100470000D931D932D933C9300E010E020E030E0BD
:10048000ACE2B4E00D931D932D933C9371E0709317
:1004900020048091210480FDFCCF809122048C7F78
:1004A0008160809322047091200471607093200415
:1004B000AEE6B5E3E6E1FAE40E94B6200E946020D1
:1004C0000E94AB200E94C21EA3E5B6E2BA93AA9393
:1004D0000E94B616229684E190E00E94531BA3E589
:1004E000B6E2BA93AA930E94D119229678ED74BF0E
:1004F00075E27093800071E07093A200789480910F
:100500008000836078ED74BF8093800074E0709306
:10051000060672E07093060678E07093060670E1B6
:100520007093060670E270930606E0E2FAE40E9419
:10053000B62086E08A930E94771F0E94AB2086E057
:100540008A930E947F1FA8950E942C06A3E5B6E21D
:10055000BA93AA930E940F132296A3E5B6E20C91D8
:1005600000FB81E00EF080E08F93A3E5B6E20C91F2
:1005700001FB81E00EF080E09F91892B882311F42C
:100580000C94E602A3E5B6E2BA93AA930E94B616CB
:10059000229684E190E00E94531BA3E5B6E2BA9351
:1005A000AA930E94D119229684E190E00E94531BE5
:1005B000E6E2FAE40E94B62086E08A930E94771F62
:1005C0000E94AB2086E08A930E947F1FA3E5B6E2DB
:1005D000BA93AA93A8E5B6E2BA93AA930E944A13E3
:1005E000249600915335043B18F011F00C94FA0254
:1005F0000C94FF0270E1709305060C94020370E105
:1006000070930606009152350A3018F011F00C94E0
:100610000B030C94100372E0709305060C94130303
:1006200072E07093060600912A20003018F011F055
:100630000C941C030C94440480E080932A200091C5
:100640002B20003011F00C94380386E0E0E0F6E057
:100650000E94CF1F5CEC86E0E0E0F6E00E94F41F11
:1006600054E486E0E0E0F6E00E94F41F0C944404B9
:1006700086E0E0E0F6E00E94CF1F62FA16F40C94E8
:100680000C045CEC86E0E0E0F6E00E94F41F5EEB18
:1006900086E0E0E0F6E00E94F41FA7E1B0E286E029
:1006A000E0E0F6E021E02A930E942120A7E1B0E2F9
:1006B0008C9180932C20A7E1B0E286E0E0E0F6E0A8
:1006C00021E02A930E942120A7E1B0E28C9180933F
:1006D0002D2000912D20083F18F011F00C9472038A
:1006E0000C948A030FEF40912C20041BACE2B0E283
:1006F0000C930FEF40912D20041BADE2B0E20C9360
:10070000AEE2B0E2ECE2FAE40E94B6200E94602081
:100710000C949203AEE2B0E2EEE2FAE40E94B6205C
:100720000E946020E6E0FAE40E94B6200E94F624CF
:100730000E94AB20ECE2F0E2D080EE24FF24002700
:100740000E94D0230E940824A0E3B0E2DD92ED9243
:10075000FD920D9300912D2040E1049FA4E3B0E2AF
:100760000C920E94AB20E4E3F0E2D080EE24FF2460
:1007700000270E94D0230E9472230E94AB20E0E356
:10078000F0E20E9468230E94A824A0E3B0E2DD9278
:10079000ED92FD920D93AEE2B0E2ECE2FAE40E943B
:1007A000B6200E94172311F00C94EA03EAE0FAE461
:1007B0000E94B6200E94F6240E94AB20E0E3F0E203
:1007C0000E9468230E94A824A0E3B0E2DD92ED928B
:1007D000FD920D93EEE0FAE40E94B6200E94F6240A
:1007E0000E94AB20E0E3F0E20E9468230E946124B3
:1007F000DD2CEE2CFF2C002F0E947923A9E3B0E220
:10080000DD92EC920E94AB20E0E3F0E2A5E3B0E2DF
:100810000E9411230C941404A5E3B0E2E2E1FAE48F
:100820000E94B6200E9487200E94AB20E5E3F0E200
:100830000E947823A5E3B6E2DC9280E0809336261E
:1008400080E08093372680E08093382680E0809394
:10085000392680E080933A2680E080933B268AEA1E
:1008600080933C26A3E5B6E2BA93AA9389E690E08A
:10087000D2018D939C9382E00E9450200E94FE142E
:10088000249682E00E944C2000915326003018F0FC
:1008900011F00C944D040C94DB0580E080935235EC
:1008A0008AEF80930020A0E0BAE50E94AB20E8E543
:1008B000F6E20E94BC2286E08A930E946E1FECE260
:1008C000FAE40E94B62086E08A930E94771F0E9475
:1008D000AB20A0E0BAE50E94AB20EFE3F6E20E9475
:1008E000BA2286E08A930E946E1FE0E3FAE40E9437
:1008F000B62086E08A930E94771F0E94AB20A0E07A
:10090000BAE50E94AB20E0E4F6E20E94BA2286E05B
:100910008A930E946E1FE0E3FAE40E94B62086E00C
:100920008A930E94771F0E94AB20A0E0BAE50E9444
:10093000AB20E1E4F6E20E94BA2286E08A930E94AC
:100940006E1FE0E3FAE40E94B62086E08A930E94DC
:10095000771F0E94AB20A0E0BAE50E94AB20E2E442
:10096000F6E20E94BA2286E08A930E946E1FE0E3BC
:10097000FAE40E94B62086E08A930E94771F0E94C4
:10098000AB20A0E0BAE50E94AB20E3E4F6E20E94CF
:10099000BA2286E08A930E946E1FE0E3FAE40E9486
:1009A000B62086E08A930E94771F0E94AB20A0E0C9
:1009B000BAE50E94AB20E4E4F6E20E94BA2286E0A7
:1009C0008A930E946E1FE0E3FAE40E94B62086E05C
:1009D0008A930E94771F0E94AB20A0E0BAE50E9494
:1009E000AB20E5E4F6E20E94BA2286E08A930E94F8
:1009F0006E1FE0E3FAE40E94B62086E08A930E942C
:100A0000771F0E94AB20A0E0BAE50E94AB20E6E48D
:100A1000F6E20E94BA2286E08A930E946E1F86E068
:100A20008A930E947F1FA8E5B6E20D911C910333C3
:100A300050E0150711F00C94400580E08093543588
:100A400080913F2680931026809140268093122625
:100A500080914126809311268091422680930F2613
:100A60008091432680930E268091442680930D2604
:100A70008091452680930C268091462680931326EC
:100A8000A8E5B6E20D911C91033450E0150711F072
:100A90000C94520580913F2680931426809146261F
:100AA00080931326A8E5B6E20D911C91073452E01D
:100AB000150711F00C948E0580E080934635A0E474
:100AC000B6E28C91ACE4B5E38D9388278C9398E0E3
:100AD000ACE4B5E30E946620ACE4B5E30D911C9153
:100AE000A1E4B6E24D915527040F151FACE4B5E320
:100AF0000D931C9380913F2680934535809142262B
:100B000080934E358091462680934F3580914426C0
:100B1000809350358091452680935135A8E5B6E203
:100B20000D911C91013053E0150711F00C94DB0579
:100B300080E080935635809140268093583580918F
:100B40003F2680935935A1E4B6E20D91112740E08C
:100B500051E00E945620AAE5B5E30D931C93AAE547
:100B6000B5E30D911C91A2E4B6E24D915527040F17
:100B7000151FAAE5B5E30D931C93A3E4B6E20D910E
:100B8000112740E051E00E945620ACE5B5E30D93FB
:100B90001C93ACE5B5E30D911C91A4E4B6E24D9134
:100BA0005527040F151FACE5B5E30D931C938091F9
:100BB000452680935E3500910020003018F011F03A
:100BC0000C94E4050C94EE058091002081508093F4
:100BD000002074E0709305060C94F10574E07093A6
:100BE0000606009146350A3018F011F00C94FA050B
:100BF0000C94FF0581E0809347350C94020680E059
:100C000080934735009156350A3018F011F00C9456
:100C10000B060C94100681E0809357350C94130654
:100C200080E080935735009154350A3018F011F068
:100C30000C941C060C94210681E0809355350C948D
:100C4000240680E08093553571E07093070670E4C8
:100C50007093A7060C94A30280E08093E92A009188
:100C6000E92A073018F011F00C943B1180E08A93C8
:100C70008091E92A8A930E94D91CA7EEBAE20D93CB
:100C80001C93A7EEBAE20D911C91073150E01507B5
:100C900011F00C94F21082E08A938091E92A8A93F1
:100CA0000E94D91CA7EEBAE20D931C93A7EEBAE2FC
:100CB0000D911C91003050E0150718F011F00C94C4
:100CC00063060C94F01078E07093050680E0809342
:100CD0005335E89461F880E08A938091E92A8A93F9
:100CE000A6EEB6E2BA93AA930E948F1EA7EEBAE2CE
:100CF0008D9388278C93A6EEB6E20E94621B082F84
:100D0000192F013050E0150718F011F00C948A06E5
:100D10000C94E61082E094E00E94512081E090E083
:100D20000E94AB20E6EEF6E20AE010E00A931A9386
:100D3000AA81BB810E94691BA881B981E2E3FAE420
:100D40000E94B6200E9417230FB682E0481A84E062
:100D5000580A22960FBE11F00C947A0AE89461F8B2
:100D6000EEE3FAE40E94B62081E08A93FA93EA93D4
:100D70008091E92A8A9381E190E08A939A930E9474
:100D80003A1DA7EEBAE20D931C93E89461F8E0E5F2
:100D9000FAE40E94B62081E08A93FA93EA93809164
:100DA000E92A8A9389E190E08A939A930E943A1DF6
:100DB000A7EEBAE20D931C93ABEEBAE2EAE6FAE4D0
:100DC0000E94B6200E946020ABEEBAE20E94781A20
:100DD000E6E8FAE40E94B6200E946020ABEEBAE298
:100DE0000E94781AE6EEFAE40E94B6200E94602083
:100DF000A8E2B6E08C9180FBABEEBAE20E94781AD2
:100E00000E94A7208D9388278C93A8E2B6E08C914E
:100E100081FBABEEBAE20E94781A0E94A7208D9364
:100E200088278C93ABEEBAE20E94781AEEEEFAE4D1
:100E30000E94B6200E946020ABEEBAE20E94781AAF
:100E4000E8E1FBE40E94B6200E946020ABEEBAE22B
:100E50000E94781AE0E2FBE40E94B6200E94602023
:100E6000ABEEBAE20E94781AEAE4FBE40E94B620F4
:100E70000E9460200E94AB20ECE4F5E3ABEEBAE206
:100E80000E94781A0E943922ABEEBAE20E94781AC8
:100E9000EEE7FBE40E94B6200E946020ABEEBAE2CF
:100EA0000E94781AEAE8FBE40E94B6200E946020C3
:100EB000ABEEBAE20E94781A0E94AB20E5E4F5E3BB
:100EC0000E94D322ABEEBAE20E94781AEEE7FBE46E
:100ED0000E94B6200E946020ABEEBAE20E94781A0F
:100EE000E0ECFBE40E94B6200E9460200E94AB2050
:100EF000EEE4F5E3ABEEBAE20E94781A0E944922D2
:100F0000ABEEBAE20E94781AEEE7FBE40E94B6204C
:100F10000E946020ABEEBAE20E94781AE8EFFBE490
:100F20000E94B6200E9460200E94AB20EFE4F5E30F
:100F3000ABEEBAE20E94781A0E944922ABEEBAE206
:100F40000E94781AEEE7FBE40E94B6200E9460201F
:100F5000ABEEBAE20E94781AE0E3FCE40E94B6200D
:100F60000E9460200E94AB20E0E5F5E3ABEEBAE220
:100F70000E94781A0E944922ABEEBAE20E94781AC7
:100F8000EEE7FBE40E94B6200E946020ABEEBAE2DE
:100F90000E94781AE8E6FCE40E94B6200E946020D5
:100FA0000E94AB20E1E5F5E3ABEEBAE20E94781ACD
:100FB0000E944922ABEEBAE20E94781AEEE7FBE407
:100FC0000E94B6200E946020ABEEBAE20E94781A1E
:100FD000E0EAFCE40E94B6200E946020E4E9F4E329
:100FE0000E94B620A7E4B5E38C9199270E948F2038
:100FF000ABEEBAE20E94781A0E946020ABEEBAE231
:101000000E94781AECEEFCE40E94B6200E94602058
:101010000E94AB20E6E4F5E3ABEEBAE20E94781A58
:101020000E944922ABEEBAE20E94781AEEE7FBE496
:101030000E94B6200E946020ABEEBAE20E94781AAD
:10104000E0EFFCE40E94B6200E9460200E94AB20EA
:10105000E8E5F5E3ABEEBAE20E94781A0E94492275
:10106000ABEEBAE20E94781AEEE7FBE40E94B620EB
:101070000E946020ABEEBAE20E94781AE8E2FDE43A
:101080000E94B6200E9460200E94AB20E9E5F5E3B3
:10109000ABEEBAE20E94781A0E944922ABEEBAE2A5
:1010A0000E94781AEEE7FBE40E94B6200E946020BE
:1010B000ABEEBAE20E94781AEEE5FDE40E94B6209B
:1010C0000E9460200E94AB20EAE5F5E3ABEEBAE2B5
:1010D0000E94781A0E943922ABEEBAE20E94781A76
:1010E000EEE7FBE40E94B6200E946020ABEEBAE27D
:1010F0000E94781AE2E9FDE40E94B6200E94602076
:101100000E94AB20ECE5F5E3ABEEBAE20E94781A60
:101110000E943922ABEEBAE20E94781AEEE7FBE4B5
:101120000E94B6200E946020ABEEBAE20E94781ABC
:10113000EAECFDE40E94B6200E9460200E94AB20F1
:10114000EEE5F5E3ABEEBAE20E94781A0E9449227E
:10115000ABEEBAE20E94781AEEE7FBE40E94B620FA
:101160000E946020ABEEBAE20E94781AECEFFDE438
:101170000E94B6200E946020E4E9F4E30E94B620B9
:10118000A7E5B5E38C9199270E948F20ABEEBAE2D8
:101190000E94781A0E946020ABEEBAE20E94781A90
:1011A000ECEEFCE40E94B6200E9460200E94AB207E
:1011B000E6E5F5E3ABEEBAE20E94781A0E94492216
:1011C000ABEEBAE20E94781AEEE7FBE40E94B6208A
:1011D0000E946020ABEEBAE20E94781AE6E4FEE4D8
:1011E0000E94B6200E946020ABEEBAE20E94781AFC
:1011F000BA93AA9380E0D2018C9381E00E945020A0
:101200000E945412249681E00E944C20ABEEBAE278
:101210000E94781AEEE7FBE40E94B6200E9460204C
:10122000ABEEBAE20E94781AEEE7FEE40E94B62026
:101230000E946020ABEEBAE20E94781ABA93AA9399
:1012400081E0D2018C9381E00E9450200E945412D0
:10125000249681E00E944C20ABEEBAE20E94781AFC
:10126000EEE7FBE40E94B6200E946020ABEEBAE2FB
:101270000E94781AE6EBFEE40E94B6200E946020ED
:10128000ABEEBAE20E94781ABA93AA9382E0D20136
:101290008C9381E00E9450200E945412249681E099
:1012A0000E944C20ABEEBAE20E94781AEEE7FBE413
:1012B0000E94B6200E946020ABEEBAE20E94781A2B
:1012C000EEEEFEE40E94B6200E946020ABEEBAE291
:1012D0000E94781ABA93AA9383E0D2018C9381E09A
:1012E0000E9450200E945412249681E00E944C20BB
:1012F000ABEEBAE20E94781AEEE7FBE40E94B62059
:101300000E946020ABEEBAE20E94781AE8E2FFE4A5
:101310000E94B6200E946020ABEEBAE20E94781ACA
:10132000BA93AA9384E0D2018C9381E00E9450206A
:101330000E945412249681E00E944C20ABEEBAE247
:101340000E94781AEEE7FBE40E94B6200E9460201B
:10135000ABEEBAE20E94781AE0E6FFE40E94B62003
:101360000E946020ABEEBAE20E94781ABA93AA9368
:1013700085E0D2018C9381E00E9450200E9454129B
:10138000249681E00E944C20ABEEBAE20E94781ACB
:10139000EEE7FBE40E94B6200E946020ABEEBAE2CA
:1013A0000E94781AE8E9FFE40E94B6200E946020BB
:1013B000ABEEBAE20E94781ABA93AA9386E0D20101
:1013C0008C9381E00E9450200E945412249681E068
:1013D0000E944C20ABEEBAE20E94781AEEE7FBE4E2
:1013E0000E94B6200E946020ABEEBAE20E94781AFA
:1013F000E0EDFFE40E94B6200E9460200E94AB2036
:10140000E9E3F0E2ABEEBAE20E94781A0E943922D8
:10141000ABEEBAE20E94781AEEE7FBE40E94B62037
:101420000E946020ABEEBAE20E94781AE2E0F0E59A
:101430000E94B6200E946020ABEEBAE20E94621BBE
:10144000ADEEB2E38D939C93A6EEB6E2ECE1F0E54F
:101450000E94B6200E9460200E94AB20EDEEF2E3D5
:10146000A6EEB6E20E94781A0E943922A6EEB6E2F3
:101470000E94781AEEE2F0E50E94B6200E946020F9
:101480000E94AB20EDEEF2E3A0E0BAE50E94392223
:1014900086E08A930E946E1F86E08A930E947F1FD7
:1014A000E89461F8A6EEB6E280E08A93BA93AA9334
:1014B0008091E92A8A938FEF8A930E941F1DA7EEDD
:1014C000BAE20D931C93E89461F8ABEEBAE280E0C7
:1014D0008A93BA93AA938091E92A8A93ADEEB2E3F4
:1014E0008D919C918A939A930E943A1DA7EEBAE23D
:1014F0000D931C9382E094E00E9451200E94AB2047
:10150000E6EEF6E204E010E0A881B9810E94711BCA
:10151000A881B981E2E3F0E50E94B6200E9417237A
:101520000FB682E0481A84E0580A22960FBE11F0E6
:101530000C942A0BA6EEB6E286E08A930E94701FF6
:1015400086E08A930E947F1F0E94AB20E6EEF6E2BF
:101550009AE300E23AE0A0EFB2E30E943323AAE369
:10156000B4E32C93E8E3F0E50E94B62086E08A938A
:101570000E94771F0E94AB20A0EFB2E386E08A931F
:101580000E94701F86E08A930E947F1FEEE3F0E5C1
:101590000E94B62086E08A930E94771F0E94AB20AB
:1015A000A1E1B3E386E08A930E94701F86E08A93EC
:1015B0000E947F1FE4E4F0E50E94B62086E08A9353
:1015C0000E94771F0E94AB20A2E3B3E386E08A93D8
:1015D0000E94701F86E08A930E947F1FEAE4F0E574
:1015E0000E94B62086E08A930E94771F0E94AB205B
:1015F000A3E5B3E386E08A930E94701F86E08A9396
:101600000E947F1FE0E5F0E50E94B62086E08A9305
:101610000E94771F0E94AB20A4E7B3E386E08A9381
:101620000E94701F86E08A930E947F1FE6E5F0E526
:101630000E94B62086E08A930E94771F0E94AB200A
:10164000A5E9B3E386E08A930E94701F86E08A933F
:101650000E947F1F82E094E00E9451200E94AB20F4
:10166000E6EEF6E204E010E0A881B9810E94711B69
:10167000A881B981ECE5F0E50E94B6200E9417230D
:101680000FB682E0481A84E0580A22960FBE11F085
:101690000C94D00B0E94AB20E6EEF6E29AE300E257
:1016A0003AE0A0EFB2E30E943323AAE3B4E32C9321
:1016B000A1E1B3E30E94F222AFE3B4E30D931C93E4
:1016C00081E080933B3400913B34083018F011F0F6
:1016D0000C947C0B80E0ABE3B4E3AD90BB24A4E3BB
:1016E000B6E2AA0DBB1D8C93ABE3B4E38C918F5F84
:1016F0008C9310F40C94630B81E08093413481E06F
:1017000080933B34A2E3B3E30E94621B482F592F1E
:10171000ABE3B4E30D9111270417150718F011F08E
:101720000C94BC0BABE3B4E38D9199270E94AB20E2
:10173000E2E3F3E302E010E00A931A93ACE3B4E3CC
:101740000E94691BACE3B4E30E94F222A1E4B4E37B
:10175000AD90BB24A4E3B6E2AA0DBB1D0C93A1E49B
:10176000B4E38C918F5F8C93ABE3B4E38C918E5F89
:101770008C9310F40C94820BA3E5B6E2BA93AA936F
:10178000AFE3B4E38D919C91D2018D939C9382E061
:101790000E9450200E94FE14249682E00E944C2059
:1017A00082E094E00E9451200E94AB20E6EEF6E237
:1017B00007E010E0A881B9810E94711BA881B9815E
:1017C000E2E6F0E50E94B6200E9417230FB682E001
:1017D000481A84E0580A22960FBE11F00C949E0D10
:1017E000A6EEB6E286E08A930E94701F86E08A9396
:1017F0000E947F1F0E94AB20E6EEF6E29AE300E231
:101800003AE0A0EFB2E30E943323AAE3B4E32C93BF
:10181000E8E3F0E50E94B62086E08A930E94771FF5
:101820000E94AB20A0EFB2E386E08A930E94701F73
:1018300086E08A930E947F1FEEE3F0E50E94B620C7
:1018400086E08A930E94771F0E94AB20A1E1B3E358
:1018500086E08A930E94701F86E08A930E947F1F11
:10186000E4E4F0E50E94B62086E08A930E94771FA8
:101870000E94AB20A2E3B3E386E08A930E94701F2C
:1018800086E08A930E947F1FEAE4F0E50E94B6207A
:1018900086E08A930E94771F0E94AB20A3E5B3E302
:1018A00086E08A930E94701F86E08A930E947F1FC1
:1018B000E0E5F0E50E94B62086E08A930E94771F5B
:1018C0000E94AB20A4E7B3E386E08A930E94701FD6
:1018D00086E08A930E947F1FE6E5F0E50E94B6202D
:1018E00086E08A930E94771F0E94AB20A5E9B3E3AC
:1018F00086E08A930E94701F86E08A930E947F1F71
:10190000EAE6F0E50E94B62086E08A930E94771FFF
:101910000E94AB20A6EBB3E386E08A930E94701F7F
:1019200086E08A930E947F1FA1E1B3E3E0E7F0E540
:101930000E94B6200E94172311F00C94A40C80E0A2
:10194000809335260C94CC0CE6E7F0E50E94B62097
:101950000E94172311F00C94B20C82E0809335267C
:101960000C94CC0CEAE7F0E50E94B6200E94172305
:1019700011F00C94C00C81E0809335260C94CC0CB3
:10198000E2E8F0E50E94B6200E94172311F00C94C3
:10199000CC0C85E080933526A2E3B3E30E948B2232
:1019A000A6E3B6E20C93A3E5B3E30E948B22A7E380
:1019B000B6E20C93A4E7B3E30E948B22A8E3B6E25D
:1019C0000C93A5E9B3E30E948B22A9E3B6E20C9342
:1019D000A6EBB3E30E948B22AAE3B6E20C93A3E545
:1019E000B6E2BA93AA9388E492E0D2018D939C93D5
:1019F00082E00E9450200E94FE14249682E00E9401
:101A00004C200E94AB20ECE4F5E3ABEEBAE20E947E
:101A10003922ABEEBAE20E94781AE0E3FAE40E94BF
:101A2000B6200E946020ABEEBAE20E94781A0E94B3
:101A3000AB20E5E4F5E30E94D322ABEEBAE20E94CC
:101A4000781AE0E3FAE40E94B6200E9460200E9427
:101A5000AB20EEE4F5E3ABEEBAE20E94781A0E9406
:101A60004922ABEEBAE20E94781AE0E3FAE40E945F
:101A7000B6200E9460200E94AB20EFE4F5E3ABEEBD
:101A8000BAE20E94781A0E944922ABEEBAE20E94A2
:101A9000781AE0E3FAE40E94B6200E9460200E94D7
:101AA000AB20E0E5F5E3ABEEBAE20E94781A0E94C3
:101AB0004922ABEEBAE20E94781AE0E3FAE40E940F
:101AC000B6200E9460200E94AB20E1E5F5E3ABEE7A
:101AD000BAE20E94781A0E944922ABEEBAE20E9452
:101AE000781AE0E3FAE40E94B6200E9460200E9487
:101AF000AB20E6E4F5E3ABEEBAE20E94781A0E946E
:101B00004922ABEEBAE20E94781AEAE8F0E50E94B8
:101B1000B6200E946020E89461F8ABEEBAE280E063
:101B20008A93BA93AA938091E92A8A9380E08A9350
:101B30000E941F1DA7EEBAE20D931C9382E094E071
:101B40000E9451200E94AB20E6EEF6E205E010E094
:101B5000A881B9810E94711BA881B981EEE8F0E5E6
:101B60000E94B6200E9417230FB682E0481A84E034
:101B7000580A22960FBE11F00C94510EABEEBAE249
:101B8000E4E9F0E50E94B6200E9460200E94AB20AC
:101B9000E6E5F5E3ABEEBAE20E94781A0E9449222C
:101BA000ABEEBAE20E94781AE0E3FAE40E94B620B3
:101BB0000E9460200E94AB20E8E5F5E3ABEEBAE2BC
:101BC0000E94781A0E944922ABEEBAE20E94781A6B
:101BD000E0E3FAE40E94B6200E9460200E94AB205D
:101BE000E9E5F5E3ABEEBAE20E94781A0E944922D9
:101BF000ABEEBAE20E94781AE0E3FAE40E94B62063
:101C00000E9460200E94AB20EAE5F5E3ABEEBAE269
:101C10000E94781A0E943922ABEEBAE20E94781A2A
:101C2000E0E3FAE40E94B6200E9460200E94AB200C
:101C3000ECE5F5E3ABEEBAE20E94781A0E94392295
:101C4000ABEEBAE20E94781AE0E3FAE40E94B62012
:101C50000E9460200E94AB20EEE5F5E3ABEEBAE215
:101C60000E94781A0E944922ABEEBAE20E94781ACA
:101C7000E0E3FAE40E94B6200E946020E89461F854
:101C8000ABEEBAE280E08A93BA93AA938091E92AF4
:101C90008A9380E08A930E941F1DA7EEBAE20D93FB
:101CA0001C9382E094E00E9451200E94AB20E6EE5B
:101CB000F6E207E010E0A881B9810E94711BA881BB
:101CC000B981E2EAF0E50E94B6200E9417230FB620
:101CD00082E0481A84E0580A22960FBE11F00C9454
:101CE000F00F0E94AB20ECE4F5E3ABEEBAE20E9409
:101CF0003922ABEEBAE20E94781AE0E3FAE40E94DD
:101D0000B6200E946020ABEEBAE20E94781A0E94D0
:101D1000AB20E5E4F5E30E94D322ABEEBAE20E94E9
:101D2000781AE0E3FAE40E94B6200E9460200E9444
:101D3000AB20EEE4F5E3ABEEBAE20E94781A0E9423
:101D40004922ABEEBAE20E94781AE0E3FAE40E947C
:101D5000B6200E9460200E94AB20EFE4F5E3ABEEDA
:101D6000BAE20E94781A0E944922ABEEBAE20E94BF
:101D7000781AE0E3FAE40E94B6200E9460200E94F4
:101D8000AB20E0E5F5E3ABEEBAE20E94781A0E94E0
:101D90004922ABEEBAE20E94781AE0E3FAE40E942C
:101DA000B6200E9460200E94AB20E1E5F5E3ABEE97
:101DB000BAE20E94781A0E944922ABEEBAE20E946F
:101DC000781AE0E3FAE40E94B6200E9460200E94A4
:101DD000AB20E6E4F5E3ABEEBAE20E94781A0E948B
:101DE0004922ABEEBAE20E94781AE0E3FAE40E94DC
:101DF000B6200E946020ABEEBAE20E94781ABA9335
:101E0000AA9380E0D2018C9381E00E9450200E942E
:101E10005412249681E00E944C20ABEEBAE20E945C
:101E2000781AE0E3FAE40E94B6200E946020ABEE4C
:101E3000BAE20E94781ABA93AA9381E0D2018C93F5
:101E400081E00E9450200E945412249681E00E945A
:101E50004C20ABEEBAE20E94781AE0E3FAE40E946A
:101E6000B6200E946020ABEEBAE20E94781ABA93C4
:101E7000AA9382E0D2018C9381E00E9450200E94BC
:101E80005412249681E00E944C20ABEEBAE20E94EC
:101E9000781AE0E3FAE40E94B6200E946020ABEEDC
:101EA000BAE20E94781ABA93AA9383E0D2018C9383
:101EB00081E00E9450200E945412249681E00E94EA
:101EC0004C20ABEEBAE20E94781AE0E3FAE40E94FA
:101ED000B6200E946020ABEEBAE20E94781ABA9354
:101EE000AA9384E0D2018C9381E00E9450200E944A
:101EF0005412249681E00E944C20ABEEBAE20E947C
:101F0000781AE0E3FAE40E94B6200E946020ABEE6B
:101F1000BAE20E94781ABA93AA9385E0D2018C9310
:101F200081E00E9450200E945412249681E00E9479
:101F30004C20ABEEBAE20E94781AE0E3FAE40E9489
:101F4000B6200E946020ABEEBAE20E94781ABA93E3
:101F5000AA9386E0D2018C9381E00E9450200E94D7
:101F60005412249681E00E944C20ABEEBAE20E940B
:101F7000781AE0E3FAE40E94B6200E9460200E94F2
:101F8000AB20E9E3F0E2ABEEBAE20E94781A0E94DD
:101F90003922ABEEBAE20E94781AE0E3FAE40E943A
:101FA000B6200E946020ABEEBAE20E94781AEEE200
:101FB000F0E50E94B6200E946020E89461F8ABEE44
:101FC000BAE280E08A93BA93AA938091E92A8A932D
:101FD00080E08A930E941F1DA7EEBAE20D931C9326
:101FE00082E094E00E9451200E94AB20E6EEF6E2EF
:101FF00004E010E0A881B9810E94711BA881B98119
:10200000EAEAF0E50E94B6200E9417230FB682E0AC
:10201000481A84E0580A22960FBE11F00C948010E2
:102020000E94AB20E6EEF6E29AE300E23AE0A0EF8F
:10203000B2E30E943323AAE3B4E32C93A1E1B3E318
:10204000E0EBF0E50E94B6200E94172311F00C94FB
:10205000411081E08093352683E080933626A3E506
:10206000B6E2BA93AA9389E492E0D2018D939C934D
:1020700082E00E9450200E94FE14249682E00E947A
:102080004C20A1E1B3E3E2EBF0E50E94B6200E9410
:10209000172311F00C946510A2E3B3E30E94E3222E
:1020A000AFEEB2E30C93AFEEB2E38C9180FBA4E20F
:1020B000B6E08C9182F98C93AFEEB2E38C9181FB08
:1020C000A4E2B6E08C9183F98C93ABEEBAE2E4EB38
:1020D000F0E50E94B6200E946020E89461F8ABEE23
:1020E000BAE280E08A93BA93AA938091E92A8A930C
:1020F00080E08A930E941F1DA7EEBAE20D931C9305
:1021000082E094E00E9451200E94AB20E6EEF6E2CD
:1021100003E010E0A881B9810E94711BA881B981F8
:10212000ECEBF0E50E94B6200E9417230FB682E088
:10213000481A84E0580A22960FBE11F00C94CF1072
:10214000ABEEBAE2E0ECF0E50E94B6200E9460201F
:102150000E94AB20E3E5F6E2ABEEBAE20E94781A09
:102160000E944922ABEEBAE20E94781AEEE2F0E554
:102170000E94B6200E946020E89461F8ABEEBAE2BB
:1021800080E08A93BA93AA938091E92A8A9380E0A7
:102190008A930E941F1DA7EEBAE20D931C93E89448
:1021A00061F8ECECF0E50E94B62081E08A93FA93A6
:1021B000EA938091E92A8A9385E090E08A939A9342
:1021C0000E943A1DA7EEBAE20D931C93A6EEB6E26A
:1021D0008C91803011F00C94630678E070930606C1
:1021E0000C9433110C3150E0150711F00C94FE10D3
:1021F0008091E92A0E94B81E0C943311003050E0FF
:10220000150711F00C9433110091E92A033018F0EE
:1022100011F00C940D110C941F118091E92A8A93EE
:1022200081E08A9380E094E08A939A9380E08A9395
:102230000E948E1CA9EEBAE28C930C942F1180910F
:10224000E92A8A9381E08A9380E590E08A939A93C1
:1022500080E08A930E948E1CA9EEBAE28C93809152
:10226000E92A0E94F91DA9EEBAE28C918F5F8C9346
:1022700010F40C942F0608950F921F922F923F9204
:102280004F925F927F92AF92BF920F931F932F93C3
:102290003F934F935F936F937F938F939F93AF93EE
:1022A000BF93CF93DF93EF93FF938FB78F938BB74A
:1022B0008F9388278BBF8F918BBF8F918FBFFF919B
:1022C000EF91DF91CF91BF91AF919F918F917F91CE
:1022D0006F915F914F913F912F911F910F91BF90FF
:1022E000AF907F905F904F903F902F901F900F90F6
:1022F0001895089508950895009146350F3F10F000
:102300000C948711A6E4B5E38C918F5F8C930091B8
:1023100056350F3F10F00C949211A6E5B5E38C9161
:102320008F5F8C93009153350F3F10F00C949D11EB
:10233000A3E5B5E38C918F5F8C93009152350F3FED
:1023400010F00C94A811A2E5B5E38C918F5F8C93EB
:10235000009154350F3F10F00C94B311A4E5B5E390
:102360008C918F5F8C9381E080932A20ABE2B0E266
:102370008C9191E089278C9370E270930706089501
:1023800000E01AE628E130E0A2E8B5E30D931D93E2
:102390002D933C930E942E23AAE5B6E2E0E8F0E0FC
:1023A00081E38A9384E08A930E94F41E0E942B2387
:1023B0000E94AB20EAE5F6E2A881B9810E940C23D5
:1023C0000895E2EDF0E50E94B62086E08A930E942F
:1023D000771F0E94AB2086E08A930E947F1F08959A
:1023E000E0EEF0E50E94B62086E08A930E94771F17
:1023F0000E94AB2086E08A930E947F1F70913B2051
:10240000706870933B20089570913B2070687093C2
:102410003B20E6EEF0E50E94B62086E08A930E941B
:10242000771F0E94AB2086E08A930E947F1F089549
:1024300070913B20706870933B20ECEEF0E50E94B9
:10244000B62086E08A930E94771F0E94AB2086E028
:102450008A930E947F1F089570913B20706870934B
:102460003B20E2EFF0E50E94B62086E08A930E94CE
:10247000771F0E94AB2086E08A930E947F1F0895F9
:1024800070913B20706870933B20E8EFF0E50E946C
:10249000B62086E08A930E94771F0E94AB2086E0D8
:1024A0008A930E947F1F089585E00E945020A3E137
:1024B000B6E20C9100FB16F00C946812A881B98169
:1024C000EEEFF0E50E94B6200E9460200C9470129E
:1024D000A881B981E2E0F1E50E94B6200E94602067
:1024E000AA81BB810C91003011F00C9481120E94E2
:1024F000AB20E0E1F6E2AC81BD810E9449220C9460
:10250000E012013011F00C948F120E94AB20E1E137
:10251000F6E2AC81BD810E9442220C94E0120230AE
:1025200011F00C949D120E94AB20ECE0F6E2AC811D
:10253000BD810E943C220C94E012033011F00C94F7
:10254000AB120E94AB20E4E5F5E3AC81BD810E94B3
:1025500049220C94E012043011F00C94BC12A3E157
:10256000B6E28C9181FBAC81BD810E94A7208D9346
:1025700088278C930C94E012053011F00C94CA1249
:102580000E94AB20E4E1F6E2AC81BD810E944922C9
:102590000C94E012063011F00C94D8120E94AB207B
:1025A000E881F981AC81BD810E940C230C94E0127A
:1025B000AC81BD81E6E0F1E50E94B6200E9460207A
:1025C00085E0481A80E0580A2296089582E08093B8
:1025D000152680E68093162680E08093172672E009
:1025E0007093460693E0A5E1B6E20E94371B72E0C5
:1025F0007093450682E08093152680E78093162627
:1026000080E08093172672E07093460693E0A5E180
:10261000B6E20E94371B72E070934506089583E08E
:10262000809315268DE28093162680E080931726EE
:1026300072E07093460692E0A5E1B6E20E94371B75
:1026400091E0A5E2B6E20E942C1B72E07093450671
:1026500080912526A881B9818C93089583E0809389
:1026600015268CE28093162672E07093460692E05F
:10267000A5E1B6E20E94371B91E0A5E2B6E20E9416
:102680002C1B72E07093450680912526A881B981A4
:102690008C93089583E0809315268CE28093162610
:1026A00072E07093460692E0A5E1B6E20E94371B05
:1026B00092E0A5E2B6E20E942C1B72E07093450600
:1026C000A5E2B6E28C9183708C93009125260130AF
:1026D00011F00C94ED1383E08093152681E680932E
:1026E000162672E07093460692E0A5E1B6E20E94DB
:1026F000371B95E0A5E2B6E20E942C1B72E07093B6
:10270000450695E0A6E2B6E20E947120A5E2B6E297
:102710008C91A881B9818D9388278C9393E0A881AF
:10272000B9810E946620A881B9810D911C91A6E211
:10273000B6E24D915527040F151FA881B9810D935D
:102740001C9383E08093152680E68093162680E014
:102750008093162672E07093460693E0A5E1B6E2F8
:102760000E94371B92E0A5E2B6E20E942C1B72E0A9
:102770007093450683E08093152685E680931626A0
:1027800072E07093460693E0A5E1B6E20E94371B23
:1027900098E0AFE3B6E20E942C1B72E0709345060E
:1027A00085E0809315268CE28093162681E0809345
:1027B000172680E08093182672E07093460694E016
:1027C000A5E1B6E20E94371B72E07093450681E0F6
:1027D000AA81BB818C930C94FD14023011F00C94EF
:1027E000731483E08093152681E78093162672E0A8
:1027F0007093460692E0A5E1B6E20E94371B95E091
:10280000A5E2B6E20E942C1B72E07093450695E0AB
:10281000A6E2B6E20E947120A5E2B6E28C91A88100
:10282000B9818D9388278C9393E0A881B9810E9408
:102830006620A881B9810D911C91A6E2B6E24D9166
:102840005527040F151FA881B9810D931C9383E0B0
:102850008093152680E78093162680E080931626C5
:1028600072E07093460693E0A5E1B6E20E94371B42
:1028700092E0A5E2B6E20E942C1B72E0709345063E
:1028800083E08093152685E78093162672E0709387
:10289000460693E0A5E1B6E20E94371B98E0AFE35D
:1028A000B6E20E942C1B72E07093450685E080938F
:1028B00015268CE28093162682E08093172680E00E
:1028C0008093182672E07093460694E0A5E1B6E284
:1028D0000E94371B72E07093450682E0AA81BB819B
:1028E0008C930C94FD14033011F00C94F91483E0D4
:1028F0008093152681E78093162672E07093460632
:1029000092E0A5E1B6E20E94371B95E0A5E2B6E2AF
:102910000E942C1B72E07093450695E0A6E2B6E299
:102920000E947120A5E2B6E28C91A881B9818D93B5
:1029300088278C9393E0A881B9810E946620A881A2
:10294000B9810D911C91A6E2B6E24D915527040F75
:10295000151FA881B9810D931C9383E080931526E0
:1029600080E78093162680E08093162672E07093AD
:10297000460693E0A5E1B6E20E94371B92E0A5E28D
:10298000B6E20E942C1B72E07093450683E08093B0
:10299000152685E78093162672E07093460693E02D
:1029A000A5E1B6E20E94371B98E0AFE3B6E20E94D1
:1029B0002C1B72E07093450685E0809315268CE20F
:1029C0008093162682E08093172680E08093182655
:1029D00072E07093460694E0A5E1B6E20E94371BD0
:1029E00072E07093450681E0AA81BB818C930C94C0
:1029F000FD1480E0AA81BB818C93089583E08093CD
:102A0000152680E38093162672E07093460692E0C6
:102A1000A5E1B6E20E94371B91E0AFE3B6E20E9467
:102A20002C1B72E07093450682E00E945020AA8120
:102A3000BB8111968C91082F112740E051E00E9434
:102A40005620A881B9810D931C93A881B9810D915D
:102A50001C910F931F93AA81BB818C91482F5527FE
:102A60001F910F91040F151FA881B9810D931C931D
:102A700095E0A881B9810E94662082E080931526A6
:102A800081E380931626A881B98111968C91A7E1E4
:102A9000B6E28C93A881B9818C91A8E1B6E28C93BF
:102AA00080E08093192680E080931A2688E0809346
:102AB0001B268091352680931C2680913626809394
:102AC0001D268091372680931E268091382680937C
:102AD0001F26809139268093202680913A26809364
:102AE000212680913B268093222680913C2680934C
:102AF000232672E0709346069FE0A5E1B6E20E94AD
:102B0000371B72E07093450685E08093152680E3BD
:102B10008093162688E08093172688E080931826F5
:102B200072E07093460694E0A5E1B6E20E94371B7E
:102B300072E07093450683E08093152680E38093CE
:102B4000162672E07093460692E0A5E1B6E20E9476
:102B5000371B91E0AFE3B6E20E942C1B72E070934A
:102B6000450682E0481A80E0580A2296089582E0DD
:102B70000E94502081E00E94502081E3A881B98109
:102B80008C9383E08093152680E38093162672E071
:102B90007093460692E0A5E1B6E20E94371B91E0F1
:102BA000AFE3B6E20E942C1B72E070934506AFE3E0
:102BB000B6E20C9103FB16F00C94F81583E08093B9
:102BC000152680E48093162672E07093460692E004
:102BD000A5E1B6E20E94371B91E0AFE3B6E20E94A6
:102BE0002C1B72E07093450681E4A881B9818C9317
:102BF000AFE3B6E20C9103FB16F00C94191683E0D8
:102C00008093152680E58093162672E07093460621
:102C100092E0A5E1B6E20E94371B91E0AFE3B6E295
:102C20000E942C1B72E07093450681E5A881B98152
:102C30008C93AFE3B6E20C9103FB16F40C94AC1644
:102C4000AC81BD8111968C91082F112740E051E095
:102C50000E945620AA81BB810D931C93AA81BB813F
:102C60000D911C910F931F93AC81BD818C91482FC6
:102C700055271F910F91040F151FAA81BB810D933A
:102C80001C9395E0AA81BB810E94662082E080931C
:102C90001526A881B9818C9180931626AA81BB81C3
:102CA00011968C91A7E1B6E28C93AA81BB818C919D
:102CB000A8E1B6E28C9380E08093192680E08093AF
:102CC0001A2682E080931B268091352680931C264D
:102CD0008091362680931D268091372680931E266C
:102CE0008091382680931F26809139268093202654
:102CF00080913A268093212680913B26809322263C
:102D000080913C268093232672E0709346069FE0D4
:102D1000A5E1B6E20E94371B72E07093450685E09C
:102D20008093152680E38093162688E080931726EB
:102D300088E08093182672E07093460694E0A5E13F
:102D4000B6E20E94371B72E07093450680E0AE81C8
:102D5000BF818C930C94B01685E0AE81BF818C93BB
:102D600083E0481A80E0580A2496089580EC809306
:102D7000152672E07093460691E0A5E1B6E20E9446
:102D8000371BEF93FF93ECE3F0E00E94291BFF91C8
:102D9000EF9172E0709345068AE090E00E94531B29
:102DA00082E08093152680E38093162680E080934E
:102DB000172672E07093460693E0A5E1B6E20E9402
:102DC000371B72E07093450682E08093152680E4FD
:102DD0008093162680E08093172672E07093460653
:102DE00093E0A5E1B6E20E94371B72E070934506BE
:102DF00082E08093152680E58093162680E08093FC
:102E0000172672E07093460693E0A5E1B6E20E94B1
:102E1000371B72E07093450682E08093152680E6AA
:102E20008093162680E08093172672E07093460602
:102E300093E0A5E1B6E20E94371B72E0709345066D
:102E400082E08093152680E78093162680E08093A9
:102E5000172672E07093460693E0A5E1B6E20E9461
:102E6000371B72E07093450682E0809315268BE253
:102E70008093162683E08093172672E070934606AF
:102E800093E0A5E1B6E20E94371B72E0709345061D
:102E900085E08093152680E68093162687E680934A
:102EA000172684E08093182672E07093460694E01B
:102EB000A5E1B6E20E94371B72E07093450685E0FB
:102EC0008093152680E78093162687E68093172641
:102ED00081E08093182672E07093460694E0A5E1A5
:102EE000B6E20E94371B72E07093450685E080933E
:102EF00015268FE08093162680EE8093172680E8B3
:102F00008093182672E07093460694E0A5E1B6E23D
:102F10000E94371B72E070934506A881B981BA936D
:102F2000AA930E94B219229682E08093152680E02F
:102F30008093162680E08093172680E080931826E1
:102F400080E08093192680E080931A2672E07093C7
:102F5000460696E0A5E1B6E20E94371B72E0709348
:102F6000450685E0809315268FE08093162680EE37
:102F70008093172680E88093182672E070934606A7
:102F800094E0A5E1B6E20E94371B72E0709345061B
:102F9000A881B981BA93AA930E94B219229682E0BD
:102FA0008093152684E08093162680E08093172670
:102FB00088E08093182680E08093192680E0809333
:102FC0001A2672E07093460696E0A5E1B6E20E94EA
:102FD000371B72E07093450685E0809315268FE0DD
:102FE0008093162680EE8093172680E8809318261B
:102FF00072E07093460694E0A5E1B6E20E94371BAA
:1030000072E070934506A881B981BA93AA930E9491
:10301000B219229682E08093152688E080931626C6
:1030200080E08093172680E08093182680E08093CC
:10303000192680E080931A2672E07093460696E087
:10304000A5E1B6E20E94371B72E07093450685E069
:10305000809315268FE08093162680EE80931726A6
:1030600080E88093182672E07093460694E0A5E10C
:10307000B6E20E94371B72E07093450683E08093AE
:1030800015268EE08093162680E08093172672E046
:103090007093460692E0A5E1B6E20E94371B92E0EB
:1030A000A5E2B6E20E942C1B72E070934506EF93F6
:1030B000FF93ECE3F0E00E94291BFF91EF9182E087
:1030C0008093152680E18093162680E08093172652
:1030D00080E08093182680E08093192680E080931A
:1030E0001A2672E07093460696E0A5E1B6E20E94C9
:1030F000371B72E07093450685E0809315268FE0BC
:103100008093162680EE8093172680E880931826F9
:1031100072E07093460694E0A5E1B6E20E94371B88
:1031200072E070934506A881B981BA93AA930E9470
:10313000B219229682E08093152684E180931626A8
:1031400080E08093172680E08093182680E08093AB
:10315000192680E080931A2672E07093460696E066
:10316000A5E1B6E20E94371B72E07093450685E048
:10317000809315268FE08093162680EE8093172685
:1031800080E88093182672E07093460694E0A5E1EB
:10319000B6E20E94371B72E070934506A881B981A0
:1031A000BA93AA930E94B219229682E080931526C0
:1031B00088E18093162680E08093172680E0809334
:1031C000182680E08093192680E080931A2672E00A
:1031D0007093460696E0A5E1B6E20E94371B72E0C6
:1031E0007093450685E0809315268FE08093162620
:1031F00080EE8093172680E88093182672E0709303
:10320000460694E0A5E1B6E20E94371B72E0709397
:103210004506A881B981BA93AA930E94B219229651
:1032200082E08093152680E28093162680E08093CA
:10323000172688E08093182680E08093192680E086
:1032400080931A2672E07093460696E0A5E1B6E2F6
:103250000E94371B72E07093450685E08093152627
:103260008FE08093162680EE8093172680E8809367
:10327000182672E07093460694E0A5E1B6E20E943B
:10328000371B72E07093450683E0809315268EE02D
:103290008093162680E08093172672E0709346068E
:1032A00092E0A5E1B6E20E94371B92E0A5E2B6E209
:1032B0000E942C1B72E07093450682E080931526D5
:1032C00084E28093162680E08093172688E080931E
:1032D000182680E08093192680E080931A2672E0F9
:1032E0007093460696E0A5E1B6E20E94371B72E0B5
:1032F0007093450685E0809315268FE0809316260F
:1033000080EE8093172680E88093182672E07093F1
:10331000460694E0A5E1B6E20E94371B72E0709386
:10332000450682E0809315268CE0809316268FE078
:103330008093172672E07093460693E0A5E1B6E20B
:103340000E94371B72E070934506A881B981BA9339
:10335000AA930E94B219229680912526A881B9814C
:103360008C93089583E0809315268EE08093162633
:1033700080E08093172672E07093460692E0A5E104
:10338000B6E20E94371B91E0A5E2B6E20E942C1B38
:1033900072E07093450680912526A881B9818C93AF
:1033A000089585E0809315268FE08093162680EEA1
:1033B0008093172680E88093182672E07093460663
:1033C00094E0A5E1B6E20E94371B72E070934506D7
:1033D000A881B981BA93AA930E94B219229682E079
:1033E000809315268AE28093162680E08093172624
:1033F00072E07093460693E0A5E1B6E20E94371BA7
:1034000072E07093450682E08093152689E28093EE
:10341000162680EF8093172672E07093460693E09D
:10342000A5E1B6E20E94371B72E07093450682E088
:103430008093152688E28093162686E880931726C7
:1034400072E07093460693E0A5E1B6E20E94371B56
:1034500072E07093450685E0809315268FE0809397
:10346000162680EE8093172680E08093182672E05F
:103470007093460694E0A5E1B6E20E94371B72E025
:1034800070934506A881B981BA93AA930E94B21994
:103490002296089579656C6C6F77677265656E002A
:1034A0007265640079656C6C6F77000005D00E94CE
:1034B000562000FC0CD008950024E89457FF02C069
:1034C00009D0689400F80BD010F80124089502D0B8
:1034D00009D00895509540954F5F5F4F0895E89447
:1034E00017FF0895009510950F5F1F4F689408957A
:1034F0008F938D918823E9F711978F9108950F92FB
:103500009F93AF93BF937F930F931F932F933F93FB
:10351000A2E8B5E30D911D912D913C918827802B58
:10352000812B822B832BF1F0015010402040304042
:1035300080913D21882391F3F89480913D218A95D3
:1035400080933D2190913B21ACE3B0E2A90F002490
:10355000B01D8C9193959F3F09F4992790933B213F
:10356000789401C088273F912F911F910F917F91EF
:10357000BF91AF919F910F9008957F930F929F936A
:10358000AF93BF9380913E228823E1F3F89480911A
:103590003E228A9580933E2290913C22AEE3B1E296
:1035A000A90F0024B01D8C9193959E3F09F4992793
:1035B00090933C227894BF91AF919F910F907F910F
:1035C00008957F930F929F93AF93BF9380913F2372
:1035D0008823E1F3F89480913F238A9580933F23D9
:1035E00090913D23AFE3B2E2A90F0024B01D8C916E
:1035F00093959E3F09F4992790933D237894BF912A
:10360000AF919F910F907F9108957F930F929F9319
:10361000AF93BF93809140248823E1F3F894809185
:1036200040248A958093402490913E24A0E4B3E204
:10363000A90F0024B01D8C9193959E3F09F4992702
:1036400090933E247894BF91AF919F910F907F917A
:1036500008953197F1F708950E94421B8C910E94C2
:10366000441B8D939A95D1F70E94431B08950E94A5
:10367000421B8D910E94441B9A95D9F70E94431BCF
:1036800008950895089508958093C3088091C2080D
:1036900087FFFCCF8091C3080895689462F808956D
:1036A000E89462F80895EF93FF93EE27E82BE92B57
:1036B00031F0E0E4FFE13197F1F70197D1F7FF91A5
:1036C000EF9108959FEF8FEF01960D910023E1F7A1
:1036D0000895199109917191772359F00197D9F7BC
:1036E000319781918D930150104019F08823C9F7CB
:1036F000089588278D930895709180067E7F70933A
:103700008006709180067D7F70938006709184069C
:103710007E7F70938406709184067D7F709384060B
:103720000895709180067260709380067091800693
:103730007E7F709380060BD0709180067D7F7093A2
:10374000800605D070918006716070938006EF93BB
:10375000FF93ECE4F0E00E94291BFF91EF910895A4
:10376000709180067260709380067091800671601F
:1037700070938006ECDF709180067D7F70938006E9
:103780000090880601FEFCCFE2DF709180067E7F0C
:1037900070938006DCCF0894111F01C0110FF9F05F
:1037A0007091800672607093800638F4000070910A
:1037B00080067E7F7093800606C0709180067160DF
:1037C0007093800600C0C3DF709180067D7F709388
:1037D00080060090880601FEFCCFB9DFDFCF709134
:1037E0008006726070938006709180067E7F709371
:1037F0008006ADDF709180067D7F7093800600901B
:10380000880601FEFCCFE8940090880600FC6894CE
:1038100062F89DCF8F937D01D82E01C08F9380E1F8
:103820008093460621D08D2D21D080E180934506DE
:103830008F9108957D018F9380E18093460612D089
:10384000882714D0D090C30880E1809345068F91DB
:1038500008958F2D0BD08E2D09D08091E52682956D
:10386000880F0895F6DF02C0F4DF84608093C308F8
:103870008091C20887FFFCCF089588278093E526B2
:1038800080E180934506A3EEB6E280E58D9380E06B
:103890008C93AEF5A0E0B0E080E8BCDF92E00E943F
:1038A000531BC8DFD7FCFDCFE4ECF3E0AFE1B0E0A1
:1038B00040E44093E5262ED0802DACDF439548347C
:1038C000C1F7AEE1B0E040E44093E52623D0802D7F
:1038D000A1DF43954834C1F744274093E526A9E08A
:1038E000B0E096E011D0AFE0B0E094E00DD0A1E000
:1038F000B0E094E009D0A5E0B0E094E005D0A8E104
:10390000B0E08FEF87DF0895899184DF11969A9553
:10391000D9F70895C8953196002008954C814A93AF
:1039200037D06B817881672BA0E0B0E04064409392
:10393000E526862F6FDF9C968FEF6CDF98970A81C4
:10394000198100240030100531F0812F63DF1196BA
:10395000802F60DF0FC00E94AB20E3EEF6E2819182
:1039600091910196929382938F93892F53DF1196B1
:103970008F9150DFAF93A2E185E04CDF119680EC90
:1039800049DFAF91149791E053D08C81259608952B
:10399000899180648093E5269927A1E0B0E090E1C9
:1039A00047D0129647DF8D2D8030E1F711978FEFCA
:1039B00031CFBF93AF939F935F934F9349914064EF
:1039C0004093E5269991903031F4A3E0B0E032DFE6
:1039D0000D2D112727C0913009F012C0A0E2B0E0F0
:1039E00029DF1D2D119626DF0D2D119723DF5D2D6B
:1039F000119620DF4D2D04171507A1F08A01F5CF90
:103A0000A6E2B0E017DF1D2D119614DF0D2D1197E2
:103A100011DF5D2D11960EDF4D2D0417150711F0E6
:103A20008A01F5CF4F915F919F91AF91BF9108951A
:103A3000892FF0DEFFDE9D2D9030E1F70895AA81F9
:103A4000BB810E94621B9991992389F01197AF93D2
:103A5000BF939DE09D939AE09D938E5F8A93882704
:103A60008A9308D0BF91AF9188278C9308958A9349
:103A700088278A9390E08A8180648093E5269A93D0
:103A80008A9397DF61FC03C0073121F0AFC000309B
:103A900009F4ACC01A8081E08A931A928ADF4981C6
:103AA00058810417150728F4992781E00E94531BB9
:103AB000E1CFE4EDF3E08A81880FE80F8827F81F53
:103AC00029DF902D27DF702D73956627A4E2B0E0E3
:103AD000B1DE1D2D1196AEDE0D2D092310219801AA
:103AE000E4E0F4E08A81880FE80F8827F81F12DFEE
:103AF000402D10DF502D040F151FD801EB81FC81E4
:103B0000898198811D81123011F4E050F04F090134
:103B1000280F391F2617370760F059F08F939F93AE
:103B200060197109CB0107D09F918F91861B970B6C
:103B3000DA0101D024C07D01DC01803011F4903025
:103B400001F48F9380E1809346068F918A8180688B
:103B50008093E52689DE103041F0113011F005C068
:103B600005C00E947920802D01C081917FDE1197D0
:103B700091F78F9380E1809345068F910895A4E299
:103B8000B0E08A8180648093E52654DE1D2D119675
:103B900051DE0D2D4981040F5881151FAA95812FE3
:103BA00039DEA395802F36DEA25044DE6D2DA3951D
:103BB00041DE7D2DA1E0B0E080E22CDE3BDE8D2DEC
:103BC0008030E1F7A39536DE8D2D887121F022DE5D
:103BD00084FD08C00BC0A3952DDE8D2D803031F003
:103BE000AA95F1CF098118812696089500271127FB
:103BF000FBCF9927A1E0B0E080648093E52692E0B6
:103C000017CF1C801092E52682E08A931A92D1DEAB
:103C10004A815B810417150780F461FC09C090E0BC
:103C20009A931A92C6DE073119F081E0259608951D
:103C300081E099270E94531BE4CFA8E2B0E08C8179
:103C4000E4EEF3E08C81880FE80F8827F81F62DE2E
:103C5000902D60DE702D73956627ECDD1D2DA395EC
:103C6000E9DD0D2D092310219801E4EFF3E08C81AB
:103C7000880FE80F8827F81F4DDE402D4BDE502DB2
:103C8000040F151FF801A881B9818A819B81090160
:103C9000280F391F2617370760F059F08F939F932D
:103CA00060197109CB0107D09F918F91861B970BEB
:103CB000FA0101D018C07F01FC018F9380E180934D
:103CC00046068C81806C8093E526CCDD8F91CEDD1D
:103CD000D090C308DD923197D1F78F9380E1809324
:103CE00045068F910895A8E2B0E08C8180648093AE
:103CF000E526A0DD1D2DA3959DDD0D2D4A81040F28
:103D00004B81141FAA95812F85DDA395802F82DD1D
:103D1000A1E0B0E090E48CDE259688270895A88184
:103D2000B9818A818A9388278A9381E08A93BA939A
:103D3000AA9367DF803039F081E0A881B9819927A3
:103D40009C9324960895A881B9818C918D3009F4B3
:103D5000E6CF8A3011F480E0F0CFA881B9818D934D
:103D6000A883B9839B819A959B83C9F68827E5CF61
:103D7000A1E0B0E080648093E52698E059DEA39549
:103D80008FEF48CD0E94AB20EEE6F5E3AFE5B5E35B
:103D90000C94DA1E868197810E94C220D02E8381E6
:103DA00094810E94C220E02E808191810E94C220D5
:103DB000F02E0895868197810E94C2200D93838101
:103DC00094810E94C2200D93808191810E94C22023
:103DD0000D9308957991A0EA769508F4A0EBB8E0E8
:103DE000B70F0895A0E0BAE53DD08030B9F19981D0
:103DF0009F70913019F48D30D1F010C0923019F4C9
:103E00008A30A9F00BC0933029F48D3069F38A30E1
:103E100071F004C08A3041F38D3049F0FF2311F472
:103E2000EE2311F38D93319763FE6DD0DDCF63FCEC
:103E300015C09981907F903111F465D00FC09032F8
:103E400011F461D00BC0903329F48DE05CD08AE08E
:103E50005AD004C08AE057D08DE055D088278C9383
:103E60002296089578817A937881703019F4799147
:103E70000C947F1A713019F479910C94BD1A723038
:103E800019F479910C94E11A733019F479910C9426
:103E9000051BBF93AF930F931F932F933F93A2E8FC
:103EA000B5E30D911D912D913C9194DF11967C917C
:103EB00077FD0BC08827802B812B822B832B39F039
:103EC0000150104020403040F2CF11978C913F912B
:103ED0002F911F910F91AF91BF910895A0E0BAE586
:103EE0008D91882311F00FD0FBCF219608950E9469
:103EF0007920802D11F007D0FACF219608958DE01A
:103F000002D08AE002C078817A93BF93AF9362DFD8
:103F100011967C9175FFFDCF11978C93AF91BF9156
:103F200008958F939F93AF93BF93882790E2A2E069
:103F3000B0E28D939A95E9F7BF91AF919F918F91E0
:103F400008958F9380910220881F80930220809192
:103F50000320881F8093032080910420881F809372
:103F6000042080910520881F8093052080910620E1
:103F7000881F809306208F9108950090CF0107FC41
:103F8000FCCF08950081818314818683EF93FF9392
:103F9000ECE2F0E00E94291BFF91EF9108950E944E
:103FA000501B0E949D20EEDFEF93FF93ECEFFEE0AD
:103FB0000E94291BFF91EF9185838283EF93FF93EA
:103FC000ECE7F2E00E94291BFF91EF911085182386
:103FD00011F00E944D1BEF93FF93ECEFFEE00E9467
:103FE000291BFF91EF9108950E949D2021E048E058
:103FF00005C00E949D2029915D9148E0C3DF57953F
:1040000050F48583EF93FF93ECEFF1E00E94291BBE
:10401000FF91EF9111C0EF93FF93ECEDF1E00E945F
:10402000291BFF91EF918583EF93FF93ECE0F0E084
:104030000E94291BFF91EF914A9501F72A95E1F61D
:1040400008950E949D20299148E055279BDF828397
:10405000EF93FF93ECE5F0E00E94291BFF91EF91B5
:1040600088941085182309F008945795EF93FF93CF
:10407000ECE8F1E00E94291BFF91EF914A9531F79E
:104080005D932A9509F7089501911191219130814D
:104090000895481A590A0895481A8827580A089511
:1040A00099275A924A92480E591E08950F92B801C4
:1040B000469F8001479F100D569F100D0F90089549
:1040C0000E9479200D920020D9F70895903041F098
:1040D0000D911C91000F111F9A95E1F71C930E93FF
:1040E0000895903029F08C9186959A95E9F78C93F4
:1040F0000895D895319628F48F938BB783958BBF0D
:104100008F910020089591E005C092E003C094E0F3
:1041100001C098E0EEDF0D929A95E1F708950196BF
:10412000019721F00E947920E9F7FACF08958136AE
:1041300018F08B3708F48F7D089591E0882321F0E3
:104140008894991F8A95E9F7892F9095089580E3BF
:104150000EF4839508950F9200240BBE0F900895DE
:104160000F9301E00BBF0F91889408950F930027E0
:10417000F9CF0F9302E0F6CF0F9303E0F3CF0F9345
:1041800004E0F0CF805390530027813018F0065F91
:104190008A95FBCF090F0895AF93BF930F939F9319
:1041A0008F938FB78F93AFE5B5E38C9183958D9304
:1041B0008C3309F03DC088278E9311968C9183959E
:1041C0008D938C3309F034C088278E9311968C918F
:1041D00083958D93883161F588278E9311968C9104
:1041E00083958D939C910EE1943089F0963079F00F
:1041F000993069F09B3059F00CE1923039F4119606
:104200009C911197937019F4039501C00FE18017E9
:1042100078F071F081E08E9311968C9183958D9357
:104220008D3031F481E08E9311968C9183958C932F
:104230008F918FBF8F919F910F91BF91AF910F92EF
:104240001F922F923F924F925F927F92AF92BF92B6
:104250000F931F932F933F934F935F936F937F938E
:104260008F939F93AF93BF93CF93DF93EF93FF937E
:104270008FB78F938BB78F9388278BBF0E947C114A
:104280008F918BBF8F918FBFFF91EF91DF91CF9176
:10429000BF91AF919F918F917F916F915F914F915E
:1042A0003F912F911F910F91BF90AF907F905F90A2
:1042B0004F903F902F901F900F9018957F930F93E2
:1042C000AF93BF938F939F938FB78F9380913D212F
:1042D0000FEF081B29F49091A0080E944D1B13C0FA
:1042E00000913C21ACE3B0E277279091A008A00FA9
:1042F000B71F9C93839580933D2103950F3F09F44D
:10430000002700933C218F918FBF9F918F91BF9188
:10431000AF910F917F9118957F930F93AF93BF93B8
:104320008F939F938FB78F93E89480913E220EEFE7
:10433000081B29F49091B0080E944D1B14C00091F5
:104340003D22AEE3B1E277279091B008A00FB71FEE
:104350009C936894839580933E2203950E3F09F4C5
:10436000002700933D220E94E1118F918FBF9F9102
:104370008F91BF91AF910F917F9118957F930F937C
:10438000AF93BF938F939F938FB78F93E894809150
:104390003F230EEF081B29F49091A0090E944D1BAA
:1043A00014C000913E23AFE3B2E277279091A009B9
:1043B000A00FB71F9C936894839580933F23039528
:1043C0000E3F09F4002700933E239D3011F40E9414
:1043D0002C128F918FBF9F918F91BF91AF910F91B1
:1043E0007F9118957F930F93AF93BF938F939F9374
:1043F0008FB78F93E894809140240EEF081B29F427
:104400009091B0090E944D1B14C000913F24A0E47C
:10441000B3E277279091B009A00FB71F9C936894DF
:1044200083958093402403950E3F09F40027009361
:104430003F249D3011F40E9440128F918FBF9F91B5
:104440008F91BF91AF910F917F911895040F151F18
:10445000261F371F0895000F111F221F331F0895B5
:1044600000951095209530950F5F1F4F2F4F3F4FB0
:104470000895019110810FC00E9444200EC00E9437
:10448000442010C00191108117FF05C03FEF2FEFAE
:1044900004C0008111272227332737FF03C0E0DF44
:1044A0008DE28D930E94911F40E20E94AB20E2E0DA
:1044B000F0E255E093E38081890F87FD9F7083FDD3
:1044C000907F891B81935A95A9F7C5DF0E94A11F90
:1044D0004A9559F7E8940E94AB20E2E0F0E20E2EF4
:1044E0000394359682910AD0E015E0F726F068949F
:1044F0008091022007D088278D930895982F829568
:1045000001D0892F8F70805D26F0803309F40895E3
:1045100068948D93089500271127222733271DD0F3
:104520008A3328F4803318F005D015D0F9CF0EF473
:1045300097CF089580538F93402F512F622F732F61
:104540008ADF89DF83DF87DF8F919927080F191FA3
:10455000291F391F08958D910895E894FCDF80325A
:10456000E9F38B32D9F38930C9F38D3211F46894B1
:10457000F2CF089541E003C042E001C044E0E40FFF
:104580008827F81F8291982F829506D0892F04D012
:104590004A95C1F70C9409238F708A3008F0895F1F
:1045A000805D8D93089541E0E40F8827F81F829184
:1045B00038E098E1880F991F9D933A95D1F74A9575
:1045C000B1F70C94092300271127222733278D9157
:1045D000882339F08053000F111F221F331F080F4B
:1045E000F6CF089500271127222733278D9188239E
:1045F00079F031DF30DF2FDF2EDF99DD815408F4D1
:10460000895F865F080F8827181F281F381FEECF85
:10461000089588278D93089581918D938823E1F7DC
:10462000089594E081918D939A95E1F708956894A7
:1046300001C0E894AF93BF938D9116F0919103C0A0
:104640000E947920902D891718F011F48823A1F782
:10465000BF91AF910895E89463F80895689463F862
:104660000895689401C0E8942227102F231709F4B5
:10467000089526F40E947920802D01C08191803018
:1046800081F0891741F070E08D931A9591F7239589
:1046900071E01D93EACF01D0E8CF703011F0772799
:1046A0000895772331F42395882713958D931A95D0
:1046B000E9F70895B7FE089590E8B91611F4D0FE11
:1046C00008959FEFD91AE90AF90A09F403950895A4
:1046D000D190E190F1900191089521913191419112
:1046E00051910895502F2D2D3E2D4F2D612F08955E
:1046F000EFDF992711278F2D880F80E8F82A802F68
:10470000881F08F41FEF41F08F57082F07FD04C0E2
:10471000003240F08FEF01C08827982FD82EE82E66
:10472000F82E09C08FE1801B082FF694E794D794E8
:1047300097950A95D1F7112351F09095D094E09474
:10474000F09481E0980F8827D81EE81EF81E0F2DE0
:10475000FE2CED2CD92E0895D094E094F09491E0A5
:10476000D90E9927E91EF91E10950895652F90E836
:10477000440F551F5927990F47956078102F90E8DF
:10478000FF0C001F0927990FF7941078003808953F
:10479000FF0C90E89027110F9795F794092F089533
:1047A000102FBD2CDE2CEF2CF02E11234AF4B094E8
:1047B000D094E094F0949FEFB91AD90AE90AF90A63
:1047C0000EE1FF2039F4FE2CED2CDB2CBB2408502D
:1047D000C2F752C032F00A95BB0CDD1CEE1CFF1C68
:1047E000F9CF68DFD5CF2DEC3CEC4CEC5DE36627D0
:1047F0000FC06EDF77DFDD24EE2490E8F92E0FE3A3
:1048000007C06BDF05C02227332740E251E466274B
:10481000552351F1002381F1A9DF71F116270058CA
:1048200050580894050B18F407FD03C025C007FD78
:1048300023C0469537952795F694E794D79425D0CD
:10484000FF202AF0DD0CEE1CFF1C015073F09D2DA3
:10485000969548F0DD203AF4EE202AF491E0D90E46
:104860009927E91EF91E94CF07C09FE7092FF92A5F
:104870009FEFD92EE92E0895DD24EE24FF24002792
:10488000112708950FE79FEFF2CF9F929924AA2452
:10489000BB2488E1D216E306F40628F0D21AE30A14
:1048A000F40A089401C08894991CAA1CBB1CDD0C56
:1048B000EE1CFF1C8A9571F7D92CEA2CFB2C9F90DB
:1048C000089554DFD9F05038C9F016270058952FB5
:1048D00090580894091F12F418F40EC008F00EC086
:1048E0000FD0FF202AF0BB0CDD1CEE1CFF1C02C009
:1048F000039513F0DFDE4CCF0C9435240C943C244C
:104900009F92FF92EF928D2DFF24EE24DD24BB2495
:1049100093E0849F1001829FB00CD11CE21CF31C19
:10492000839FD00CE11C2224F21C9A9531F0BD2CFF
:10493000DE2CEF2CFF248F91ECCF9F9008950AF08E
:1049400045D026CF5FE322273327442701C0C5DEA9
:104950000DDF5038B1F3003899F3902F951B8BF38E
:1049600012F434D0FACF983118F022273327442795
:10497000983028F0232F342F44279850F9CF9923CB
:1049800029F04695379527959A95D9F7912F96272F
:1049900042F014D0B0F6F794E794D7940F5F8BF6FB
:1049A00064CF10D051F008F4D7DEFF2052F2DD0CB6
:1049B000EE1CFF1C0150CBF758CF5ECFD20EE31E8A
:1049C000F41E0895D21AE30AF40A0895DF92EF92D2
:1049D000FF920F931F93D22EE32EF42E052F162F46
:1049E0006F915F914F913F912F9108950E9479208F
:1049F000202D0E947920302D0E947920402D0E9488
:104A00007920502D0895000080410000803F000073
:104A1000C84200007F4331343A34303A303000002D
:104A2000535441525400696E697400002D002B00EC
:104A30003B00474554202F20485454500000485410
:104A400054502F312E3020323030204F4B0D0A0081
:104A5000436F6E74656E742D547970653A20746579
:104A600078742F68746D6C0D0A003C21444F4354D8
:104A70005950452068746D6C3E3C68746D6C3E3CCA
:104A8000686561643E003C7374796C653E74616274
:104A90006C652C2074682C207464207B626F7264B7
:104AA00065723A2031707820736F6C696420626C93
:104AB00061636B3B626F726465722D636F6C6C61D6
:104AC0007073653A20636F6C6C617073653B7D2019
:104AD0003C2F7374796C653E3C2F686561643E3C85
:104AE000626F64793E00696E707574733D003C625C
:104AF000723E6E65656420746F207573652064690D
:104B00007265637420736F636B657420636F6E6E80
:104B1000656374696F6E00003C7461626C653E0091
:104B20003C74723E3C74683E706172616D65746580
:104B3000723C2F74683E3C74683E76616C75653CCF
:104B40002F74683E3C2F74723E003C74723E3C747D
:104B5000643E4B6F74656C5F743C2F74643E3C74B0
:104B600064207374796C653D27746578742D616C6D
:104B700069676E3A63656E746572273E00003C2F6C
:104B800074643E3C2F74723E00003C74723E3C7470
:104B9000643E4B6F74656C5F737461743C2F746416
:104BA0003E3C7464207374796C653D277465787439
:104BB0002D616C69676E3A63656E746572273E009D
:104BC0003C74723E3C74643E6B6F74656C5F685FEE
:104BD0006C696D3C2F74643E3C7464207374796C12
:104BE000653D27746578742D616C69676E3A6365FD
:104BF0006E746572273E00003C74723E3C74643EE5
:104C00006B6F74656C5F64656C74613C2F74643E9B
:104C10003C7464207374796C653D27746578742DD9
:104C2000616C69676E3A63656E746572273E000059
:104C30003C74723E3C74643E6B6F74656C5F745F71
:104C400072756E3C2F74643E3C7464207374796C8E
:104C5000653D27746578742D616C69676E3A63658C
:104C60006E746572273E00003C74723E3C74643E74
:104C70006B6F74656C5F745F73746F703C2F7464DA
:104C80003E3C7464207374796C653D277465787458
:104C90002D616C69676E3A63656E746572273E00BC
:104CA0003C74723E3C74643E6B6F74656C5F64610F
:104CB00074615F76616C69645F74696D65723C2FC5
:104CC00074643E3C7464207374796C653D2774652C
:104CD00078742D616C69676E3A63656E74657227CE
:104CE000206267636F6C6F723D270000273E0000F3
:104CF0003C74723E3C74643E446967206F75747006
:104D00007574733C2F74643E3C7464207374796CC6
:104D1000653D27746578742D616C69676E3A6365CB
:104D20006E746572273E00003C74723E3C74643EB3
:104D300044696720696E707574733C2F74643E3CDF
:104D40007464207374796C653D27746578742D6183
:104D50006C69676E3A63656E746572273E003C74D9
:104D6000723E3C74643E50726573737572653C2F7D
:104D700074643E3C7464207374796C653D2774657B
:104D800078742D616C69676E3A63656E746572271D
:104D90003E003C74723E3C74643E507265737375A1
:104DA0007265206C696D3C2F74643E3C74642073A2
:104DB00074796C653D27746578742D616C69676ED4
:104DC0003A63656E746572273E003C74723E3C74B3
:104DD000643E64656C74613C2F74643E3C74642072
:104DE0007374796C653D27746578742D616C69679F
:104DF0006E3A63656E746572273E00003C74723EC5
:104E00003C74643E54616E6B5F646174615F766193
:104E10006C69645F74696D65723C2F74643E3C74A8
:104E200064207374796C653D27746578742D616CAA
:104E300069676E3A63656E74657227206267636F97
:104E40006C6F723D27003C74723E3C74643E42417C
:104E5000545F766F6C746167653C2F74643E3C747C
:104E600064207374796C653D27746578742D616C6A
:104E700069676E3A63656E746572273E00003C7424
:104E8000723E3C74643E4261745F63757272656E1B
:104E9000743C2F74643E3C7464207374796C653D7B
:104EA00027746578742D616C69676E3A63656E74FA
:104EB0006572273E00003C74723E3C74643E426161
:104EC000745F63617061636974793C2F74643E3C04
:104ED0007464207374796C653D27746578742D61F2
:104EE0006C69676E3A63656E746572273E003C7448
:104EF000723E3C74643E4261745F617661696C61CC
:104F0000626C653C2F74643E3C7464207374796CED
:104F1000653D27746578742D616C69676E3A6365C9
:104F20006E746572273E00003C74723E3C74643EB1
:104F300050756D705F7374617475733C2F74643E4B
:104F40003C7464207374796C653D27746578742DA6
:104F5000616C69676E3A63656E746572273E000026
:104F60003C74723E3C74643E50756D705F63757244
:104F700072656E743C2F74643E3C74642073747963
:104F80006C653D27746578742D616C69676E3A6352
:104F9000656E746572273E003C74723E3C74643EDC
:104FA000506F77657265642066726F6D3C2F746414
:104FB0003E3C7464207374796C653D277465787425
:104FC0002D616C69676E3A63656E746572273E0089
:104FD0003C74723E3C74643E64616C61733C2F743B
:104FE000643E3C7464207374796C653D2774657805
:104FF000742D616C69676E3A63656E746572273EE5
:1050000000003C2F7461626C653E3C2F626F6479D6
:105010003E3C2F68746D6C3E0D0A0000436F6E7449
:10502000656E742D4C656E6774683A2000000D0A39
:105030000000636D643A000031202D200000322012
:105040002D20000033202D20000034202D200000D2
:1050500035202D20000036202D20000043414E3AFF
:105060000000426F696C65723A0037202D20000005
:1050700073746F70000072756E0070726572756E79
:10508000000069676E6F726500003B0D0A00546195
:105090006E6B3F0054616E6B5F7374617475733B2C
:1050A0000000426F696C65723F0052656C3A000007
:1050B00072006C00646F6E650D0A0000543F3A0088
:1050C00043414E207374617475733A00656E640DCC
:1050D0000A00776520676F74206120636861720041
:1050E000696E74340000696E74300000696E74314A
:1050F0000000696E74320000696E74330000414331
:0A5100000000424154004E4100003F
:00000001FF
