:100000000C94FE001895000018950000189500004B
:10001000189500001895000018950000189500002C
:1000200018950000189500000C94B6221895000051
:1000300018950000189500000C94EC12189500001B
:1000400018950000189500001895000018950000FC
:1000500018950000189500001895000018950000EC
:10006000189500000C94482318950000189500007E
:100070000C94762318950000189500001895000040
:1000800018950000189500001895000018950000BC
:1000900018950000189500001895000018950000AC
:1000A000189500001895000018950000189500009C
:1000B000189500001895000018950000189500008C
:1000C000189500001895000018950000189500007C
:1000D000189500001895000018950000189500006C
:1000E000189500001895000018950000189500005C
:1000F000189500001895000018950000189500004C
:10010000189500001895000018950000189500003B
:10011000189500001895000018950000189500002B
:10012000189500001895000018950000189500001B
:10013000189500001895000018950000189500000B
:1001400018950000189500001895000018950000FB
:1001500018950000189500001895000018950000EB
:100160000C94A82318950000189500000C94DC232B
:1001700018950000189500001895000018950000CB
:1001800018950000189500001895000018950000BB
:1001900018950000189500001895000018950000AB
:1001A000189500001895000018950000189500009B
:1001B000189500001895000018950000189500008B
:1001C000189500001895000018950000189500007B
:1001D000189500001895000018950000189500006B
:1001E000189500001895000018950000189500005B
:1001F0001895000018950000189500008FEF8DBF2E
:10020000C0E0E8E14E2E8FE58EBFDEE5FAE55F2E19
:10021000009078008FE38093780081E078ED74BFE0
:1002200080938000EEEFFFE3A0E0B0E288278D939B
:100230003197E9F7662470E07093520087E0A0E5FB
:10024000B0E08D939C9197708917E1F780915100F0
:1002500081FFFCCF78ED74BF71E07093400078EDC2
:1002600074BF70E07093410070E47093A10671E078
:100270007093010674E07093010674E070930506B4
:1002800072E07093010672E07093050678E0709357
:10029000010678E07093050670E17093010670E145
:1002A0007093050670E27093010670E27093050684
:1002B00074E07093210678E07093210671E07093EA
:1002C000220672E07093220671E07093410671E09D
:1002D0007093450672E07093410672E07093450694
:1002E00074E07093420678E07093810688E1A4EA96
:1002F000BAE08D9383E08D9380E88D9383E98C93AE
:1003000078E07093A10688E1A4EABBE08D9383E0D6
:100310008D938EE28D9388E98C938091A3088F7CD6
:1003200080628093A3088091B3088F7C8062809361
:10033000B3088091A3098F7C80628093A309809188
:10034000B3098F7C80628093B30974E07093A50633
:1003500078E07093A5060E94371D70EB70934106FC
:1003600070E17093450680ED8093C0088AE090E0CC
:100370000E940E1D70E17093410680E08A938FEF1A
:100380008A938FEF8A938FEF8A9381E08A9381E03B
:100390008A9388EA8A9380EC8A9383E18A9381E046
:1003A0008A9388EA8A9380EC8A9382E38A9384E131
:1003B0008A938EE08A938CE08A9380E88A938CE01B
:1003C0008A9328C002020202020202020202020210
:1003D00002020202FF07FF07FF07FF07FF07FF07F1
:1003E000FF07FF07FF07FF07FF07FF07FF07FF07DD
:1003F000FF07FF0700000008001000180020002879
:10040000003000380000000800100018002000280C
:100410000030003868940E94F81D8AE090E00E9445
:100420000E1D77E07093000884E89EE18093260813
:100430009093270878ED74BF81E0A0EFB0E08C9333
:1004400082E08C9384608C93EF93FF93ECE3F6E06F
:100450000E94E41CFF91EF918EE18C938091F1005A
:1004600083FFFCCF0FEF13E020E030E0A8E2B4E020
:100470000D931D932D933C9300E010E020E030E0BD
:10048000ACE2B4E00D931D932D933C9371E0709317
:1004900020048091210480FDFCCF809122048C7F78
:1004A0008160809322047091200471607093200415
:1004B000A3E4B6E3E6E8FEE40E94A0220E943F2205
:1004C0000E9495220E947D20A7EAB6E2BA93AA93E1
:1004D0000E947118229684E190E00E940E1DA7EA06
:1004E000B6E2BA93AA930E948C1B229678ED74BF51
:1004F00075E27093800071E07093A200789480910F
:100500008000836078ED74BF8093800074E0709306
:10051000060672E07093060678E07093060670E1B6
:100520007093060670E270930606E0E9FEE40E940E
:10053000A02286E08A930E9456210E94952286E09E
:100540008A930E945E21A8950E94AA06A7EAB6E2B5
:10055000BA93AA930E94CA142296A7EAB6E20C9113
:1005600000FB81E00EF080E08F93A7EAB6E20C91E9
:1005700001FB81E00EF080E09F91892B882311F42C
:100580000C94E602A7EAB6E2BA93AA930E94711805
:10059000229684E190E00E940E1DA7EAB6E2BA938B
:1005A000AA930E948C1B229684E190E00E940E1D6B
:1005B000E6E9FEE40E94A02286E08A930E9456218A
:1005C0000E94952286E08A930E945E2174E07A93CD
:1005D0000E94ED20A2E1B0E28C9300911220013044
:1005E00011F00C94F803AFE2B7E2BA93AA930E9419
:1005F0007B1322960E949522EFE2F7E29BE304E050
:100600003AE0ADE0B6E20E940425AFE3B6E22C93F7
:1006100000913F26083081E009F080E08F93ADE043
:10062000B6E2ECE9FEE40E94A0220E94E82481E008
:1006300009F080E09F918923882311F40C944B03E7
:10064000A7E1B6E20E947524A0E4B6E20D931C93E4
:10065000ACE1B6E20E947524A2E4B6E20D931C93CD
:10066000A1E2B6E20E947524A4E4B6E20D931C93C5
:10067000A6E2B6E20E947524A6E4B6E20D931C93AE
:10068000ABE2B6E20E947524A8E4B6E20D931C9397
:1006900080E080934A2681E080935B2600915B2670
:1006A000033018F011F00C94AC03E2E7FEE40E9472
:1006B000A0220E94E0260E9495220E949522EBE54E
:1006C000F6E2A190BB24EEE3F6E2AA0CBB1CEA0D15
:1006D000FB1DD190E0808FEFE7FE8827F82E082FD2
:1006E0000E94BA250E94F225ACE5B6E2DD92ED92B9
:1006F000FD920D9300915B26003018F011F00C94E0
:1007000083030C949A030E949522ECE5F6E20E9482
:100710003027DD2CEE2CFF2C002F0E946325ABE54B
:10072000B6E2AD90BB24ABE4B6E2AA0DBB1DDC92F1
:100730000C94A4038FEFABE5B6E2AD90BB24ABE421
:10074000B6E2AA0DBB1D8C93ABE5B6E28C918F5F30
:100750008C9310F40C944E03A6E4B6E28D919C9118
:10076000A1E5B6E28D939C9392E0A1E5B6E20E94EA
:100770005822A1E5B6E20D911C910F3F50E01507FC
:1007800018F011F00C94C6030C94CC038FEF90E09A
:10079000A1E5B6E28D939C93A1E5B6E28C91AFE41E
:1007A000B6E28C93A8E4B6E28D919C91A3E5B6E203
:1007B0008D939C9392E0A3E5B6E20E945822A3E5B4
:1007C000B6E20D911C910F3F50E0150718F011F0A3
:1007D0000C94EC030C94F2038FEF90E0A3E5B6E2E7
:1007E0008D939C93A3E5B6E28C91A0E5B6E28C9341
:1007F00000914B26013011F00C940D048FEF809383
:100800004C268FEF80934D268FEF80934E268FEFEF
:1008100080934F268FEF8093502600912836043B1B
:1008200018F011F00C9416040C941B0470E17093F2
:1008300005060C941E0470E170930606009127369D
:100840000A3018F011F00C9427040C942C0472E078
:10085000709305060C942F0472E0709306060091C5
:100860002A20003018F011F00C9438040C9466051E
:1008700080E080932A2000912B20003011F00C940E
:10088000540486E0E0E0F6E00E94AE215CEC86E0F5
:10089000E0E0F6E00E94D32154E486E0E0E0F6E0F8
:1008A0000E94D3210C94660586E0E0E0F6E00E9409
:1008B000AE2162FA16F40C9428055CEC86E0E0E0C8
:1008C000F6E00E94D3215EEB86E0E0E0F6E00E94D5
:1008D000D321A7E1B0E286E0E0E0F6E021E02A9350
:1008E0000E940022A7E1B0E28C9180932C20A7E126
:1008F000B0E286E0E0E0F6E021E02A930E940022E8
:10090000A7E1B0E28C9180932D2000912D20083F2B
:1009100018F011F00C948E040C94A6040FEF409183
:100920002C20041BACE2B0E20C930FEF40912D2081
:10093000041BADE2B0E20C93AEE2B0E2E0EAFEE40A
:100940000E94A0220E943F220C94AE04AEE2B0E2CC
:10095000E2EAFEE40E94A0220E943F22E6E7FEE4D3
:100960000E94A0220E94E0260E949522ECE2F0E282
:10097000D080EE24FF2400270E94BA250E94F22591
:10098000A0E3B0E2DD92ED92FD920D9300912D2057
:1009900040E1049FA4E3B0E20C920E949522E4E3BC
:1009A000F0E2D080EE24FF2400270E94BA250E94A6
:1009B0005C250E949522E0E3F0E20E9452250E940D
:1009C0009226A0E3B0E2DD92ED92FD920D93AEE2AD
:1009D000B0E2E0EAFEE40E94A0220E94E82411F0C6
:1009E0000C940605EAE7FEE40E94A0220E94E0269D
:1009F0000E949522E0E3F0E20E9452250E94922696
:100A0000A0E3B0E2DD92ED92FD920D93EEE7FEE4FD
:100A10000E94A0220E94E0260E949522E0E3F0E2DC
:100A20000E9452250E944B26DD2CEE2CFF2C002F1D
:100A30000E946325A9E3B0E2DD92EC920E94952228
:100A4000E0E3F0E2A5E3B0E20E94E2240C9430057A
:100A5000A5E3B0E2E2E8FEE40E94A0220E94712237
:100A60000E949522E5E3F0E20E946225A9E8B6E241
:100A7000DC9280914C2680938A2680914D2680932B
:100A80008B2680914E2680938C2680914F268093D2
:100A90008D268091502680938E2680910C268093FF
:100AA0008F268AEA80939026A7EAB6E2BA93AA93A1
:100AB00089E690E0D2018D939C9382E00E942F22E0
:100AC0000E94B916249682E00E942B22A7EAB6E281
:100AD000BA93AA93ACEAB6E2BA93AA930E94051518
:100AE00024960091A726003018F011F00C947A0596
:100AF0000C94480680E0809327368AEF809300208C
:100B0000ACEAB6E20D911C91033350E0150711F0E9
:100B10000C94AD0580E080932936809193268093D4
:100B200064268091942680936626809195268093F2
:100B300065268091962680936326809197268093E0
:100B400062268091982680936126809199268093D1
:100B5000602680919A2680936726ACEAB6E20D91D2
:100B60001C91033450E0150711F00C94BF058091DF
:100B700093268093682680919A2680936726ACEA14
:100B8000B6E20D911C91073452E0150711F00C9458
:100B9000FB0580E080931B36A4E9B6E28C91A1E2CC
:100BA000B6E38D9388278C9398E0A1E2B6E30E9488
:100BB0004522A1E2B6E30D911C91A5E9B6E24D9163
:100BC0005527040F151FA1E2B6E30D931C938091E6
:100BD000932680931A3680919626809323368091AF
:100BE0009A2680932436809198268093253680918A
:100BF000992680932636ACEAB6E20D911C9101301D
:100C000053E0150711F00C94480680E080932B36D2
:100C10008091942680932D368091932680932E3652
:100C2000A5E9B6E20D91112740E051E00E9435227E
:100C3000AFE2B6E30D931C93AFE2B6E30D911C91C6
:100C4000A6E9B6E24D915527040F151FAFE2B6E3B2
:100C50000D931C93A7E9B6E20D91112740E051E0F6
:100C60000E943522A1E3B6E30D931C93A1E3B6E302
:100C70000D911C91A8E9B6E24D915527040F151F5F
:100C8000A1E3B6E30D931C938091992680933336AC
:100C900000910020003018F011F00C9451060C94D3
:100CA0005B068091002081508093002074E0709357
:100CB00005060C945E0674E07093060600911B36E0
:100CC000083218F011F00C9467060C946C0681E061
:100CD00080931C360C946F0680E080931C36009144
:100CE0002B36083218F011F00C9478060C947D061F
:100CF00081E080932C360C94800680E080932C3623
:100D000000912936083218F011F00C9489060C94E1
:100D10008E0681E080932A360C94910680E08093C1
:100D20002A3600914A26083218F011F00C949A06DF
:100D30000C949F0681E080934B260C94A20680E0E1
:100D400080934B2671E07093070670E47093A706BA
:100D50000C94A30280E08093BE2B0091BE2B073041
:100D600018F011F00C94EB1280E08A938091BE2B66
:100D70008A930E94941EACEBBBE20D931C93ACEBE8
:100D8000BBE20D911C91073150E0150711F00C9456
:100D9000A21282E08A938091BE2B8A930E94941EB5
:100DA000ACEBBBE20D931C93ACEBBBE20D911C9141
:100DB000003050E0150718F011F00C94E1060C9487
:100DC000A01278E07093050680E080932836E894BE
:100DD00061F880E08A938091BE2B8A93ABEBB7E2F7
:100DE000BA93AA930E944A20ACEBBBE28D9388276A
:100DF0008C93ABEBB7E20E941D1D082F192F013019
:100E000050E0150718F011F00C9408070C94961296
:100E100082E094E00E94302281E090E00E949522DE
:100E2000EBEBF7E20AE010E00A931A93AA81BB8188
:100E30000E94241DA881B981E4EAFEE40E94A02258
:100E40000E94E8240FB682E0481A84E0580A2296ED
:100E50000FBE11F00C94C60BE89461F8E0EBFEE4D1
:100E60000E94A02281E08A93FA93EA938091BE2B9C
:100E70008A9381E190E08A939A930E94F51EACEBED
:100E8000BBE20D931C93E89461F8E2ECFEE40E944F
:100E9000A02281E08A93FA93EA938091BE2B8A93F1
:100EA00089E190E08A939A930E94F51EACEBBBE235
:100EB0000D931C93A0ECBBE2ECEDFEE40E94A0229B
:100EC0000E943F22A0ECBBE20E94331CE8EFFEE44C
:100ED0000E94A0220E943F22A0ECBBE20E94331C91
:100EE000E8E5FFE40E94A0220E943F22A8E2B6E0CB
:100EF0008C9180FBA0ECBBE20E94331C0E949122EB
:100F00008D9388278C93A8E2B6E08C9181FBA0ECAE
:100F1000BBE20E94331C0E9491228D9388278C9300
:100F2000A0ECBBE20E94331CE0E6FFE40E94A0229A
:100F30000E943F22A0ECBBE20E94331CEAE8FFE4DF
:100F40000E94A0220E943F22A0ECBBE20E94331C20
:100F5000E2E9FFE40E94A0220E943F22A0ECBBE253
:100F60000E94331CECEBFFE40E94A0220E943F226F
:100F70000E949522E1E2F6E3A0ECBBE20E94331C62
:100F80000E942324A0ECBBE20E94331CE6EDFFE4A8
:100F90000E94A0220E943F22A0ECBBE20E94331CD0
:100FA000E2EEFFE40E94A0220E943F22A0ECBBE2FE
:100FB0000E94331C0E949522EAE1F6E30E94A424D9
:100FC000A0ECBBE20E94331CE6EDFFE40E94A022ED
:100FD0000E943F22A0ECBBE20E94331CEEEFFFE434
:100FE0000E94A0220E943F220E949522E3E2F6E3A3
:100FF000A0ECBBE20E94331C0E943324A0ECBBE2B5
:101000000E94331CE6EDFFE40E94A0220E943F22D2
:10101000A0ECBBE20E94331CECE1F0E50E94A022B0
:101020000E943F220E949522E4E2F6E3A0ECBBE29C
:101030000E94331C0E943324A0ECBBE20E94331CAC
:10104000E6EDFFE40E94A0220E943F22A0ECBBE25A
:101050000E94331CEAE3F0E50E94A0220E943F2296
:101060000E949522E5E2F6E3A0ECBBE20E94331C6D
:101070000E943324A0ECBBE20E94331CE6EDFFE4A7
:101080000E94A0220E943F22A0ECBBE20E94331CDF
:10109000E8E5F0E50E94A0220E943F220E949522EE
:1010A000E6E2F6E3A0ECBBE20E94331C0E9433248C
:1010B000A0ECBBE20E94331CE6EDFFE40E94A022FC
:1010C0000E943F22A0ECBBE20E94331CE6E7F0E561
:1010D0000E94A0220E943F22EAE0F8E30E94A022A0
:1010E000ACE1B6E38C9199270E947922A0ECBBE297
:1010F0000E94331C0E943F22A0ECBBE20E94331CE2
:10110000E8EAF0E50E94A0220E943F220E94952278
:10111000EBE1F6E3A0ECBBE20E94331C0E94332417
:10112000A0ECBBE20E94331CE6EDFFE40E94A0228B
:101130000E943F22A0ECBBE20E94331CECEAF0E5E7
:101140000E94A0220E943F220E949522EDE2F6E337
:10115000A0ECBBE20E94331C0E943324A0ECBBE253
:101160000E94331CE6EDFFE40E94A0220E943F2271
:10117000A0ECBBE20E94331CEAECF0E50E94A02246
:101180000E943F220E949522EEE2F6E3A0ECBBE231
:101190000E94331C0E943324A0ECBBE20E94331C4B
:1011A000E6EDFFE40E94A0220E943F22A0ECBBE2F9
:1011B0000E94331CE6EEF0E50E94A0220E943F222E
:1011C0000E949522EFE2F6E3A0ECBBE20E94331C02
:1011D0000E942324A0ECBBE20E94331CE6EDFFE456
:1011E0000E94A0220E943F22A0ECBBE20E94331C7E
:1011F000E0E0F1E50E94A0220E943F220E94952299
:10120000E1E3F6E3A0ECBBE20E94331C0E9423243E
:10121000A0ECBBE20E94331CE6EDFFE40E94A0229A
:101220000E943F22A0ECBBE20E94331CEEE1F1E5FC
:101230000E94A0220E943F220E949522E3E3F6E34F
:10124000A0ECBBE20E94331C0E943324A0ECBBE262
:101250000E94331CE6EDFFE40E94A0220E943F2280
:10126000A0ECBBE20E94331CE6E3F1E50E94A02261
:101270000E943F22EAE0F8E30E94A022ACE2B6E33B
:101280008C9199270E947922A0ECBBE20E94331C2A
:101290000E943F22A0ECBBE20E94331CE8EAF0E58A
:1012A0000E94A0220E943F220E949522EBE2F6E3D8
:1012B000A0ECBBE20E94331C0E943324A0ECBBE2F2
:1012C0000E94331CE6EDFFE40E94A0220E943F2210
:1012D000A0ECBBE20E94331CE6E6F1E50E94A022EE
:1012E0000E943F22A0ECBBE20E94331CBA93AA9357
:1012F00080E0D2018C9381E00E942F220E940F1483
:10130000249681E00E942B22A0ECBBE20E94331CB9
:10131000E6EDFFE40E94A0220E943F22A0ECBBE287
:101320000E94331CE4E8F1E50E94A0220E943F22C3
:10133000A0ECBBE20E94331CBA93AA9381E0D201D5
:101340008C9381E00E942F220E940F14249681E04A
:101350000E942B22A0ECBBE20E94331CE6EDFFE4CE
:101360000E94A0220E943F22A0ECBBE20E94331CFC
:10137000E2EAF1E50E94A0220E943F22A0ECBBE23B
:101380000E94331CBA93AA9382E0D2018C9381E02D
:101390000E942F220E940F14249681E00E942B228B
:1013A000A0ECBBE20E94331CE6EDFFE40E94A02209
:1013B0000E943F22A0ECBBE20E94331CE0ECF1E56E
:1013C0000E94A0220E943F22A0ECBBE20E94331C9C
:1013D000BA93AA9383E0D2018C9381E00E942F22DA
:1013E0000E940F14249681E00E942B22A0ECBBE205
:1013F0000E94331CE6EDFFE40E94A0220E943F22DF
:10140000A0ECBBE20E94331CE0EEF1E50E94A022BA
:101410000E943F22A0ECBBE20E94331CBA93AA9325
:1014200084E0D2018C9381E00E942F220E940F144D
:10143000249681E00E942B22A0ECBBE20E94331C88
:10144000E6EDFFE40E94A0220E943F22A0ECBBE256
:101450000E94331CEEEFF1E50E94A0220E943F2281
:10146000A0ECBBE20E94331CBA93AA9385E0D201A0
:101470008C9381E00E942F220E940F14249681E019
:101480000E942B22A0ECBBE20E94331CE6EDFFE49D
:101490000E94A0220E943F22A0ECBBE20E94331CCB
:1014A000ECE1F2E50E94A0220E943F22A0ECBBE208
:1014B0000E94331CBA93AA9386E0D2018C9381E0F8
:1014C0000E942F220E940F14249681E00E942B225A
:1014D000A0ECBBE20E94331CE6EDFFE40E94A022D8
:1014E0000E943F22A0ECBBE20E94331CEAE3F2E53B
:1014F0000E94A0220E943F220E949522E9E3F0E28E
:10150000A0ECBBE20E94331C0E942324A0ECBBE2AF
:101510000E94331CE6EDFFE40E94A0220E943F22BD
:10152000A0ECBBE20E94331CE2E5F2E50E94A0229F
:101530000E943F22EAE0F8E30E94A022ABE4B6E278
:101540008C9199270E947922A0ECBBE20E94331C67
:101550000E943F22A0ECBBE20E94331CE8EAF0E5C7
:101560000E94A0220E943F220E949522EAE4F6E215
:10157000A0ECBBE20E94331C0E943324A0ECBBE22F
:101580000E94331CE6EDFFE40E94A0220E943F224D
:10159000A0ECBBE20E94331CE0E8F2E50E94A0222E
:1015A0000E943F220E949522E0E4F6E2A0ECBBE21A
:1015B0000E94331C0E942C24A0ECBBE20E94331C2E
:1015C000E6EDFFE40E94A0220E943F22A0ECBBE2D5
:1015D0000E94331CE8E9F2E50E94A0220E943F220B
:1015E0000E949522E2E4F6E2A0ECBBE20E94331CEA
:1015F0000E942C24A0ECBBE20E94331CE6EDFFE429
:101600000E94A0220E943F22A0ECBBE20E94331C59
:10161000E0EBF2E50E94A0220E943F220E94952268
:10162000E4E4F6E2A0ECBBE20E94331C0E942C240E
:10163000A0ECBBE20E94331CE6EDFFE40E94A02276
:101640000E943F22A0ECBBE20E94331CE8ECF2E5D2
:101650000E94A0220E943F220E949522E6E4F6E228
:10166000A0ECBBE20E94331C0E942324A0ECBBE24E
:101670000E94331CE6EDFFE40E94A0220E943F225C
:10168000A0ECBBE20E94331CE0EEF2E50E94A02237
:101690000E943F220E949522E8E4F6E2A0ECBBE221
:1016A0000E94331C0E942324A0ECBBE20E94331C46
:1016B000E6EDFFE40E94A0220E943F22A0ECBBE2E4
:1016C0000E94331CE8EFF2E50E94A0220E943F2214
:1016D000A0ECBBE20E941D1DA2ECB3E38D939C9392
:1016E000ABEBB7E2E2E1F3E50E94A0220E943F22C9
:1016F0000E949522E2ECF3E3ABEBB7E20E94331CCD
:101700000E942324ABEBB7E20E94331CE4E2F3E532
:101710000E94A0220E943F220E949522E2ECF3E365
:10172000A0E0BAE50E94232486E08A930E944D211E
:1017300086E08A930E945E21E89461F8ABEBB7E201
:1017400080E08A93BA93AA938091BE2B8A938FEFFD
:101750008A930E94DA1EACEBBBE20D931C93E894D3
:1017600061F8A0ECBBE280E08A93BA93AA938091DF
:10177000BE2B8A93A2ECB3E38D919C918A939A93AA
:101780000E94F51EACEBBBE20D931C9382E094E04B
:101790000E9430220E949522EBEBF7E204E010E079
:1017A000A881B9810E942C1DA881B981E8E2F3E5E6
:1017B0000E94A0220E94E8240FB682E0481A84E02A
:1017C000580A22960FBE11F00C94760CABEBB7E2E0
:1017D00086E08A930E944F2186E08A930E945E21D0
:1017E0000E949522EBEBF7E29AE300E23AE0A5ECE7
:1017F000B3E30E940425AFE0B5E32C93EEE2F3E5FA
:101800000E94A02286E08A930E9456210E9495227F
:10181000A5ECB3E386E08A930E944F2186E08A9389
:101820000E945E21E4E3F3E50E94A02286E08A9311
:101830000E9456210E949522A6EEB3E386E08A9389
:101840000E944F2186E08A930E945E21EAE3F3E53D
:101850000E94A02286E08A930E9456210E9495222F
:10186000A7E0B4E386E08A930E944F2186E08A9342
:101870000E945E21E0E4F3E50E94A02286E08A93C4
:101880000E9456210E949522A8E2B4E386E08A9342
:101890000E944F2186E08A930E945E21E6E4F3E5F0
:1018A0000E94A02286E08A930E9456210E949522DF
:1018B000A9E4B4E386E08A930E944F2186E08A93EC
:1018C0000E945E21ECE4F3E50E94A02286E08A9368
:1018D0000E9456210E949522AAE6B4E386E08A93EC
:1018E0000E944F2186E08A930E945E2182E094E06C
:1018F0000E9430220E949522EBEBF7E204E010E018
:10190000A881B9810E942C1DA881B981E2E5F3E587
:101910000E94A0220E94E8240FB682E0481A84E0C8
:10192000580A22960FBE11F00C941C0D0E949522AD
:10193000EBEBF7E29AE300E23AE0A5ECB3E30E94B6
:101940000425AFE0B5E32C93A6EEB3E30E94C324D5
:10195000A4E1B5E30D931C9381E0809310350091D1
:101960001035083018F011F00C94C80C80E0A0E19C
:10197000B5E3AD90BB24A8E8B6E2AA0DBB1D8C93DD
:10198000A0E1B5E38C918F5F8C9310F40C94AF0CB5
:1019900081E08093163581E080931035A7E0B4E3B1
:1019A0000E941D1D482F592FA0E1B5E30D9111276D
:1019B0000417150718F011F00C94080DA0E1B5E319
:1019C0008D9199270E949522E7E0F4E302E010E070
:1019D0000A931A93A1E1B5E30E94241DA1E1B5E3A6
:1019E0000E94C324A6E1B5E3AD90BB24A8E8B6E20B
:1019F000AA0DBB1D0C93A6E1B5E38C918F5F8C9370
:101A0000A0E1B5E38C918E5F8C9310F40C94CE0C16
:101A1000A7EAB6E2BA93AA93A4E1B5E38D919C91AB
:101A2000D2018D939C9382E00E942F220E94B916CE
:101A3000249682E00E942B2282E094E00E943022D1
:101A40000E949522EBEBF7E207E010E0A881B98154
:101A50000E942C1DA881B981E8E5F3E50E94A0222F
:101A60000E94E8240FB682E0481A84E0580A2296C1
:101A70000FBE11F00C94EA0EABEBB7E286E08A934E
:101A80000E944F2186E08A930E945E210E94952247
:101A9000EBEBF7E29AE300E23AE0A5ECB3E30E9455
:101AA0000425AFE0B5E32C93EEE2F3E50E94A0221B
:101AB00086E08A930E9456210E949522A5ECB3E30A
:101AC00086E08A930E944F2186E08A930E945E21DD
:101AD000E4E3F3E50E94A02286E08A930E94562167
:101AE0000E949522A6EEB3E386E08A930E944F21DE
:101AF00086E08A930E945E21EAE3F3E50E94A02239
:101B000086E08A930E9456210E949522A7E0B4E3C2
:101B100086E08A930E944F2186E08A930E945E218C
:101B2000E0E4F3E50E94A02286E08A930E94562119
:101B30000E949522A8E2B4E386E08A930E944F2196
:101B400086E08A930E945E21E6E4F3E50E94A022EB
:101B500086E08A930E9456210E949522A9E4B4E36C
:101B600086E08A930E944F2186E08A930E945E213C
:101B7000ECE4F3E50E94A02286E08A930E945621BD
:101B80000E949522AAE6B4E386E08A930E944F2140
:101B900086E08A930E945E21E0E6F3E50E94A0229F
:101BA00086E08A930E9456210E949522ABE8B4E316
:101BB00086E08A930E944F2186E08A930E945E21EC
:101BC000A6EEB3E3E6E6F3E50E94A0220E94E82435
:101BD00011F00C94F00D80E0809389260C94180E7F
:101BE000ECE6F3E50E94A0220E94E82411F00C9498
:101BF000FE0D82E0809389260C94180EE0E7F3E551
:101C00000E94A0220E94E82411F00C940C0E81E0A6
:101C1000809389260C94180EE8E7F3E50E94A02231
:101C20000E94E82411F00C94180E85E08093892618
:101C3000A7E0B4E30E947524AAE8B6E20C93A8E2F8
:101C4000B4E30E947524ABE8B6E20C93A9E4B4E3D4
:101C50000E947524ACE8B6E20C93AAE6B4E30E94B5
:101C60007524ADE8B6E20C93ABE8B4E30E947524AA
:101C7000AEE8B6E20C93A7EAB6E2BA93AA9388E478
:101C800092E0D2018D939C9382E00E942F220E94C9
:101C9000B916249682E00E942B220E949522E1E24E
:101CA000F6E3A0ECBBE20E942324A0ECBBE20E947E
:101CB000331CE0E8F3E50E94A0220E943F22A0EC42
:101CC000BBE20E94331C0E949522EAE1F6E30E94E7
:101CD000A424A0ECBBE20E94331CE0E8F3E50E94E0
:101CE000A0220E943F220E949522E3E2F6E3A0ECAC
:101CF000BBE20E94331C0E943324A0ECBBE20E9492
:101D0000331CE0E8F3E50E94A0220E943F220E94DB
:101D10009522E4E2F6E3A0ECBBE20E94331C0E94B1
:101D20003324A0ECBBE20E94331CE0E8F3E50E9400
:101D3000A0220E943F220E949522E5E2F6E3A0EC59
:101D4000BBE20E94331C0E943324A0ECBBE20E9441
:101D5000331CE0E8F3E50E94A0220E943F220E948B
:101D60009522E6E2F6E3A0ECBBE20E94331C0E945F
:101D70003324A0ECBBE20E94331CE0E8F3E50E94B0
:101D8000A0220E943F220E949522EBE1F6E3A0EC04
:101D9000BBE20E94331C0E943324A0ECBBE20E94F1
:101DA000331CE2E8F3E50E94A0220E943F22E8945F
:101DB00061F8A0ECBBE280E08A93BA93AA93809189
:101DC000BE2B8A9380E08A930E94DA1EACEBBBE2C2
:101DD0000D931C9382E094E00E9430220E94952291
:101DE000EBEBF7E205E010E0A881B9810E942C1D21
:101DF000A881B981E6E8F3E50E94A0220E94E824C8
:101E00000FB682E0481A84E0580A22960FBE11F0FD
:101E10000C949D0FA0ECBBE2ECE8F3E50E94A0223D
:101E20000E943F220E949522EBE2F6E3A0ECBBE287
:101E30000E94331C0E943324A0ECBBE20E94331C9E
:101E4000E0E8F3E50E94A0220E943F220E94952232
:101E5000EDE2F6E3A0ECBBE20E94331C0E943324C7
:101E6000A0ECBBE20E94331CE0E8F3E50E94A02254
:101E70000E943F220E949522EEE2F6E3A0ECBBE234
:101E80000E94331C0E943324A0ECBBE20E94331C4E
:101E9000E0E8F3E50E94A0220E943F220E949522E2
:101EA000EFE2F6E3A0ECBBE20E94331C0E94232485
:101EB000A0ECBBE20E94331CE0E8F3E50E94A02204
:101EC0000E943F220E949522E1E3F6E3A0ECBBE2F0
:101ED0000E94331C0E942324A0ECBBE20E94331C0E
:101EE000E0E8F3E50E94A0220E943F220E94952292
:101EF000E3E3F6E3A0ECBBE20E94331C0E94332430
:101F0000A0ECBBE20E94331CE0E8F3E50E94A022B3
:101F10000E943F22E89461F8A0ECBBE280E08A9343
:101F2000BA93AA938091BE2B8A9380E08A930E94F1
:101F3000DA1EACEBBBE20D931C9382E094E00E94AE
:101F400030220E949522EBEBF7E207E010E0A88137
:101F5000B9810E942C1DA881B981EAE9F3E50E94AC
:101F6000A0220E94E8240FB682E0481A84E0580AB2
:101F700022960FBE11F00C94A0110E949522E1E26E
:101F8000F6E3A0ECBBE20E942324A0ECBBE20E949B
:101F9000331CE0E8F3E50E94A0220E943F22A0EC5F
:101FA000BBE20E94331C0E949522EAE1F6E30E9404
:101FB000A424A0ECBBE20E94331CE0E8F3E50E94FD
:101FC000A0220E943F220E949522E3E2F6E3A0ECC9
:101FD000BBE20E94331C0E943324A0ECBBE20E94AF
:101FE000331CE0E8F3E50E94A0220E943F220E94F9
:101FF0009522E4E2F6E3A0ECBBE20E94331C0E94CF
:102000003324A0ECBBE20E94331CE0E8F3E50E941D
:10201000A0220E943F220E949522E5E2F6E3A0EC76
:10202000BBE20E94331C0E943324A0ECBBE20E945E
:10203000331CE0E8F3E50E94A0220E943F220E94A8
:102040009522E6E2F6E3A0ECBBE20E94331C0E947C
:102050003324A0ECBBE20E94331CE0E8F3E50E94CD
:10206000A0220E943F220E949522EBE1F6E3A0EC21
:10207000BBE20E94331C0E943324A0ECBBE20E940E
:10208000331CE0E8F3E50E94A0220E943F22A0EC6E
:10209000BBE20E94331CBA93AA9380E0D2018C93D6
:1020A00081E00E942F220E940F14249681E00E945A
:1020B0002B22A0ECBBE20E94331CE0E8F3E50E9477
:1020C000A0220E943F22A0ECBBE20E94331CBA93E4
:1020D000AA9381E0D2018C9381E00E942F220E947A
:1020E0000F14249681E00E942B22A0ECBBE20E94F8
:1020F000331CE0E8F3E50E94A0220E943F22A0ECFE
:10210000BBE20E94331CBA93AA9382E0D2018C9363
:1021100081E00E942F220E940F14249681E00E94E9
:102120002B22A0ECBBE20E94331CE0E8F3E50E9406
:10213000A0220E943F22A0ECBBE20E94331CBA9373
:10214000AA9383E0D2018C9381E00E942F220E9407
:102150000F14249681E00E942B22A0ECBBE20E9487
:10216000331CE0E8F3E50E94A0220E943F22A0EC8D
:10217000BBE20E94331CBA93AA9384E0D2018C93F1
:1021800081E00E942F220E940F14249681E00E9479
:102190002B22A0ECBBE20E94331CE0E8F3E50E9496
:1021A000A0220E943F22A0ECBBE20E94331CBA9303
:1021B000AA9385E0D2018C9381E00E942F220E9495
:1021C0000F14249681E00E942B22A0ECBBE20E9417
:1021D000331CE0E8F3E50E94A0220E943F22A0EC1D
:1021E000BBE20E94331CBA93AA9386E0D2018C937F
:1021F00081E00E942F220E940F14249681E00E9409
:102200002B22A0ECBBE20E94331CE0E8F3E50E9425
:10221000A0220E943F220E949522E9E3F0E2A0EC76
:10222000BBE20E94331C0E942324A0ECBBE20E946C
:10223000331CE0E8F3E50E94A0220E943F220E94A6
:102240009522E0E4F6E2A0ECBBE20E94331C0E947F
:102250002C24A0ECBBE20E94331CE0E8F3E50E94D2
:10226000A0220E943F220E949522E2E4F6E2A0EC26
:10227000BBE20E94331C0E942C24A0ECBBE20E9413
:10228000331CE0E8F3E50E94A0220E943F220E9456
:102290009522E4E4F6E2A0ECBBE20E94331C0E942B
:1022A0002C24A0ECBBE20E94331CE0E8F3E50E9482
:1022B000A0220E943F220E949522E6E4F6E2A0ECD2
:1022C000BBE20E94331C0E942324A0ECBBE20E94CC
:1022D000331CE0E8F3E50E94A0220E943F220E9406
:1022E0009522E8E4F6E2A0ECBBE20E94331C0E94D7
:1022F0002324A0ECBBE20E94331CE0E8F3E50E943B
:10230000A0220E943F22A0ECBBE20E94331CE4E228
:10231000F3E50E94A0220E943F22E89461F8A0EC1D
:10232000BBE280E08A93BA93AA938091BE2B8A93F2
:1023300080E08A930E94DA1EACEBBBE20D931C9303
:1023400082E094E00E9430220E949522EBEBF7E2BB
:1023500004E010E0A881B9810E942C1DA881B981F8
:10236000E2EAF3E50E94A0220E94E8240FB682E090
:10237000481A84E0580A22960FBE11F00C943012CD
:102380000E949522EBEBF7E29AE300E23AE0A5EC3B
:10239000B3E30E940425AFE0B5E32C93A6EEB3E3CC
:1023A000E8EAF3E50E94A0220E94E82411F00C94D0
:1023B000F11181E08093892683E080938A26A7EA41
:1023C000B6E2BA93AA9389E492E0D2018D939C93EA
:1023D00082E00E942F220E94B916249682E00E9479
:1023E0002B22A6EEB3E3EAEAF3E50E94A0220E94C4
:1023F000E82411F00C941512A7E0B4E30E94B42471
:10240000A4ECB3E30C93A4ECB3E38C9180FBA4E2C3
:10241000B6E08C9182F98C93A4ECB3E38C9181FBB0
:10242000A4E2B6E08C9183F98C93A0ECBBE2ECEAD9
:10243000F3E50E94A0220E943F22E89461F8A0ECFC
:10244000BBE280E08A93BA93AA938091BE2B8A93D1
:1024500080E08A930E94DA1EACEBBBE20D931C93E2
:1024600082E094E00E9430220E949522EBEBF7E29A
:1024700003E010E0A881B9810E942C1DA881B981D8
:10248000E4EBF3E50E94A0220E94E8240FB682E06C
:10249000481A84E0580A22960FBE11F00C947F125D
:1024A000A0ECBBE2E8EBF3E50E94A0220E943F22F1
:1024B0000E949522E7EAF6E2A0ECBBE20E94331C00
:1024C0000E943324A0ECBBE20E94331CE4E2F3E55B
:1024D0000E94A0220E943F22E89461F8A0ECBBE297
:1024E00080E08A93BA93AA938091BE2B8A9380E06E
:1024F0008A930E94DA1EACEBBBE20D931C93E89426
:1025000061F8E4ECF3E50E94A02281E08A93FA935B
:10251000EA938091BE2B8A9385E090E08A939A9308
:102520000E94F51EACEBBBE20D931C93ABEBB7E244
:102530008C91803011F00C94E10678E070930606DF
:102540000C94E3120C3150E0150711F00C94AE120C
:102550008091BE2B0E9473200C94E312003050E057
:10256000150711F00C94E3120091BE2B033018F004
:1025700011F00C94BD120C94CF128091BE2B8A9353
:1025800081E08A9380E094E08A939A9380E08A9332
:102590000E94491EAEEBBBE28C930C94DF1280913B
:1025A000BE2B8A9381E08A9380E590E08A939A9388
:1025B00080E08A930E94491EAEEBBBE28C9380912F
:1025C000BE2B0E94B41FAEEBBBE28C918F5F8C934D
:1025D00010F40C94AD0608950F921F922F923F9223
:1025E0004F925F927F92AF92BF920F931F932F9360
:1025F0003F934F935F936F937F938F939F93AF938B
:10260000BF93CF93DF93EF93FF938FB78F938BB7E6
:102610008F9388278BBF8F918BBF8F918FBFFF9137
:10262000EF91DF91CF91BF91AF919F918F917F916A
:102630006F915F914F913F912F911F910F91BF909B
:10264000AF907F905F904F903F902F901F900F9092
:10265000189508950895089500911B360F3F10F0C6
:102660000C943713ABE1B6E38C918F5F8C930091A0
:102670002B360F3F10F00C944213ABE2B6E38C9173
:102680008F5F8C93009128360F3F10F00C944D1300
:10269000A8E2B6E38C918F5F8C93009127360F3FB1
:1026A00010F00C945813A7E2B6E38C918F5F8C93D3
:1026B000009129360F3F10F00C946313A9E2B6E3A2
:1026C0008C918F5F8C9300914A260F3F10F00C94F1
:1026D0006E13AAE4B6E28C918F5F8C9381E08093B5
:1026E0002A20ABE2B0E28C9191E089278C9370E2D2
:1026F00070930706089500E01AE628E130E0A7E5A8
:10270000B6E30D931D932D933C930E94FF24AEEAF4
:10271000B6E2E0E8F0E081E38A9384E08A930E94E5
:10272000AF200E94FC240E949522EEEAF6E2A881E6
:10273000B9810E94DD240895EAECF3E50E94A0220D
:1027400086E08A930E9456210E94952286E08A9311
:102750000E945E210895E8EDF3E50E94A02286E044
:102760008A930E9456210E94952286E08A930E94B5
:102770005E2170913B20706870933B2008957091AA
:102780003B20706870933B20EEEDF3E50E94A022A1
:1027900086E08A930E9456210E94952286E08A93C1
:1027A0000E945E21089570913B20706870933B20D9
:1027B000E4EEF3E50E94A02286E08A930E9456216F
:1027C0000E94952286E08A930E945E21089570916E
:1027D0003B20706870933B20EAEEF3E50E94A02254
:1027E00086E08A930E9456210E94952286E08A9371
:1027F0000E945E21089570913B20706870933B2089
:10280000E0EFF3E50E94A02286E08A930E94562121
:102810000E94952286E08A930E945E21089585E0B9
:102820000E942F22A7E6B6E20C9100FB16F00C9452
:102830002314A881B981E6EFF3E50E94A0220E944B
:102840003F220C942B14A881B981EAEFF3E50E9492
:10285000A0220E943F22AA81BB810C91003011F07E
:102860000C943C140E949522E4E6F6E2AC81BD8112
:102870000E9433240C949B14013011F00C944A14E0
:102880000E949522E5E6F6E2AC81BD810E942C24EF
:102890000C949B14023011F00C9458140E94952251
:1028A000E0E6F6E2AC81BD810E9426240C949B14E4
:1028B000033011F00C9466140E949522E9E2F6E3CD
:1028C000AC81BD810E9433240C949B14043011F020
:1028D0000C947714A7E6B6E28C9181FBAC81BD81A4
:1028E0000E9491228D9388278C930C949B14053021
:1028F00011F00C9485140E949522E8E6F6E2AC8172
:10290000BD810E9433240C949B14063011F00C946A
:1029100093140E949522E881F981AC81BD810E94C7
:10292000DD240C949B14AC81BD81EEEFF3E50E9495
:10293000A0220E943F2285E0481A80E0580A229691
:10294000089582E08093692680E680936A2680E07D
:1029500080936B2672E07093460693E0A9E6B6E298
:102960000E94F21C72E07093450682E08093692613
:1029700080E780936A2680E080936B2672E07093F4
:10298000460693E0A9E6B6E20E94F21C72E070935C
:102990004506089583E0809369268DE280936A2638
:1029A00080E080936B2672E07093460692E0A9E681
:1029B000B6E20E94F21C91E0A9E7B6E20E94E71C91
:1029C00072E07093450680917926A881B9818C9335
:1029D000089583E0809369268CE280936A2672E0F2
:1029E0007093460692E0A9E6B6E20E94F21C91E0DE
:1029F000A9E7B6E20E94E71C72E070934506809159
:102A00007926A881B9818C93089583E08093692603
:102A10008CE280936A2672E07093460692E0A9E603
:102A2000B6E20E94F21C92E0A9E7B6E20E94E71C1F
:102A300072E070934506A9E7B6E28C9183708C939F
:102A400000917926013011F00C94A81583E0809351
:102A5000692681E680936A2672E07093460692E0CA
:102A6000A9E6B6E20E94F21C95E0A9E7B6E20E9450
:102A7000E71C72E07093450695E0AAE7B6E20E9473
:102A80005022A9E7B6E28C91A881B9818D9388275D
:102A90008C9393E0A881B9810E944522A881B981D5
:102AA0000D911C91AAE7B6E24D915527040F151F11
:102AB000A881B9810D931C9383E08093692680E6F9
:102AC00080936A2680E080936A2672E070934606BF
:102AD00093E0A9E6B6E20E94F21C92E0A9E7B6E212
:102AE0000E94E71C72E07093450683E0809369269C
:102AF00085E680936A2672E07093460693E0A9E625
:102B0000B6E20E94F21C98E0A3E9B6E20E94E71C3C
:102B100072E07093450685E0809369268CE280938D
:102B20006A2681E080936B2680E080936C2672E0B9
:102B30007093460694E0A9E6B6E20E94F21C72E0A9
:102B40007093450681E0AA81BB818C930C94B816E2
:102B5000023011F00C942E1683E08093692681E7F1
:102B600080936A2672E07093460692E0A9E6B6E288
:102B70000E94F21C95E0A9E7B6E20E94E71C72E011
:102B80007093450695E0AAE7B6E20E945022A9E7B5
:102B9000B6E28C91A881B9818D9388278C9393E0BC
:102BA000A881B9810E944522A881B9810D911C910B
:102BB000AAE7B6E24D915527040F151FA881B981E8
:102BC0000D931C9383E08093692680E780936A26A7
:102BD00080E080936A2672E07093460693E0A9E64F
:102BE000B6E20E94F21C92E0A9E7B6E20E94E71C5E
:102BF00072E07093450683E08093692685E78093B1
:102C00006A2672E07093460693E0A9E6B6E20E9457
:102C1000F21C98E0A3E9B6E20E94E71C72E0709310
:102C2000450685E0809369268CE280936A2682E0DF
:102C300080936B2680E080936C2672E0709346064A
:102C400094E0A9E6B6E20E94F21C72E07093450699
:102C500082E0AA81BB818C930C94B816033011F0EA
:102C60000C94B41683E08093692681E780936A26EA
:102C700072E07093460692E0A9E6B6E20E94F21C6A
:102C800095E0A9E7B6E20E94E71C72E07093450662
:102C900095E0AAE7B6E20E945022A9E7B6E28C913D
:102CA000A881B9818D9388278C9393E0A881B981FD
:102CB0000E944522A881B9810D911C91AAE7B6E234
:102CC0004D915527040F151FA881B9810D931C93B1
:102CD00083E08093692680E780936A2680E0809372
:102CE0006A2672E07093460693E0A9E6B6E20E9477
:102CF000F21C92E0A9E7B6E20E94E71C72E0709332
:102D0000450683E08093692685E780936A2672E012
:102D10007093460693E0A9E6B6E20E94F21C98E0A2
:102D2000A3E9B6E20E94E71C72E07093450685E0D5
:102D3000809369268CE280936A2682E080936B26DA
:102D400080E080936C2672E07093460694E0A9E6DA
:102D5000B6E20E94F21C72E07093450681E0AA81FF
:102D6000BB818C930C94B81680E0AA81BB818C93B4
:102D7000089583E08093692680E380936A2672E059
:102D80007093460692E0A9E6B6E20E94F21C91E03A
:102D9000A3E9B6E20E94E71C72E07093450682E068
:102DA0000E942F22AA81BB8111968C91082F112796
:102DB00040E051E00E943522A881B9810D931C9317
:102DC000A881B9810D911C910F931F93AA81BB819A
:102DD0008C91482F55271F910F91040F151FA88123
:102DE000B9810D931C9395E0A881B9810E94452279
:102DF00082E08093692681E380936A26A881B98165
:102E000011968C91ABE6B6E28C93A881B9818C9136
:102E1000ACE6B6E28C9380E080936D2680E08093F0
:102E20006E2688E080936F26809189268093702695
:102E300080918A268093712680918B2680937226BA
:102E400080918C268093732680918D2680937426A2
:102E500080918E268093752680918F26809376268A
:102E6000809190268093772672E0709346069FE0CB
:102E7000A9E6B6E20E94F21C72E07093450685E076
:102E80008093692680E380936A2688E080936B268E
:102E900088E080936C2672E07093460694E0A9E681
:102EA000B6E20E94F21C72E07093450683E08093C4
:102EB000692680E380936A2672E07093460692E06A
:102EC000A9E6B6E20E94F21C91E0A3E9B6E20E94F4
:102ED000E71C72E07093450682E0481A80E0580AC9
:102EE0002296089582E00E942F2281E00E942F22E4
:102EF00081E3A881B9818C9383E08093692680E384
:102F000080936A2672E07093460692E0A9E6B6E2E4
:102F10000E94F21C91E0A3E9B6E20E94E71C72E075
:102F200070934506A3E9B6E20C9103FB16F00C94EE
:102F3000B31783E08093692680E480936A2672E069
:102F40007093460692E0A9E6B6E20E94F21C91E078
:102F5000A3E9B6E20E94E71C72E07093450681E4A3
:102F6000A881B9818C93A3E9B6E20C9103FB16F01A
:102F70000C94D41783E08093692680E580936A26B9
:102F800072E07093460692E0A9E6B6E20E94F21C57
:102F900091E0A3E9B6E20E94E71C72E07093450657
:102FA00081E5A881B9818C93A3E9B6E20C9103FB7A
:102FB00016F40C946718AC81BD8111968C91082F82
:102FC000112740E051E00E943522AA81BB810D9378
:102FD0001C93AA81BB810D911C910F931F93AC810F
:102FE000BD818C91482F55271F910F91040F151FFC
:102FF000AA81BB810D931C9395E0AA81BB810E949D
:10300000452282E080936926A881B9818C918093C2
:103010006A26AA81BB8111968C91ABE6B6E28C93AD
:10302000AA81BB818C91ACE6B6E28C9380E0809360
:103030006D2680E080936E2682E080936F268091DB
:1030400089268093702680918A26809371268091AC
:103050008B268093722680918C2680937326809194
:103060008D268093742680918E268093752680917C
:103070008F2680937626809190268093772672E023
:10308000709346069FE0A9E6B6E20E94F21C72E049
:103090007093450685E08093692680E380936A26D5
:1030A00088E080936B2688E080936C2672E07093B2
:1030B000460694E0A9E6B6E20E94F21C72E0709324
:1030C000450680E0AE81BF818C930C946B1885E03F
:1030D000AE81BF818C9383E0481A80E0580A249621
:1030E000089580EC8093692672E07093460691E023
:1030F000A9E6B6E20E94F21CEF93FF93ECE3F0E046
:103100000E94E41CFF91EF9172E0709345068AE003
:1031100090E00E940E1D82E08093692680E38093F8
:103120006A2680E080936B2672E07093460693E0F7
:10313000A9E6B6E20E94F21C72E07093450682E0B6
:103140008093692680E480936A2680E080936B26D2
:1031500072E07093460693E0A9E6B6E20E94F21C84
:1031600072E07093450682E08093692680E5809343
:103170006A2680E080936B2672E07093460693E0A7
:10318000A9E6B6E20E94F21C72E07093450682E066
:103190008093692680E680936A2680E080936B2680
:1031A00072E07093460693E0A9E6B6E20E94F21C34
:1031B00072E07093450682E08093692680E78093F1
:1031C0006A2680E080936B2672E07093460693E057
:1031D000A9E6B6E20E94F21C72E07093450682E016
:1031E000809369268BE280936A2683E080936B2626
:1031F00072E07093460693E0A9E6B6E20E94F21CE4
:1032000072E07093450685E08093692680E680939E
:103210006A2687E680936B2684E080936C2672E0B2
:103220007093460694E0A9E6B6E20E94F21C72E0B2
:103230007093450685E08093692680E780936A262F
:1032400087E680936B2681E080936C2672E0709312
:10325000460694E0A9E6B6E20E94F21C72E0709382
:10326000450685E0809369268FE080936A2680EE8C
:1032700080936B2680E880936C2672E070934606FC
:1032800094E0A9E6B6E20E94F21C72E07093450653
:10329000A881B981BA93AA930E946D1B229682E0FD
:1032A0008093692680E080936A2680E080936B2675
:1032B00080E080936C2680E080936D2680E0809390
:1032C0006E2672E07093460696E0A9E6B6E20E948A
:1032D000F21C72E07093450685E0809369268FE0CA
:1032E00080936A2680EE80936B2680E880936C261C
:1032F00072E07093460694E0A9E6B6E20E94F21CE2
:1033000072E070934506A881B981BA93AA930E948E
:103310006D1B229682E08093692684E080936A2662
:1033200080E080936B2688E080936C2680E0809319
:103330006D2680E080936E2672E07093460696E0DC
:10334000A9E6B6E20E94F21C72E07093450685E0A1
:10335000809369268FE080936A2680EE80936B26A7
:1033600080E880936C2672E07093460694E0A9E6AC
:10337000B6E20E94F21C72E070934506A881B98102
:10338000BA93AA930E946D1B229682E080936926CD
:1033900088E080936A2680E080936B2680E08093AB
:1033A0006C2680E080936D2680E080936E2672E02C
:1033B0007093460696E0A9E6B6E20E94F21C72E01F
:1033C0007093450685E0809369268FE080936A2696
:1033D00080EE80936B2680E880936C2672E0709379
:1033E000460694E0A9E6B6E20E94F21C72E07093F1
:1033F000450683E0809369268EE080936A2680E00C
:1034000080936B2672E07093460692E0A9E6B6E2DE
:103410000E94F21C92E0A9E7B6E20E94E71C72E06B
:1034200070934506EF93FF93ECE3F0E00E94E41CF9
:10343000FF91EF9182E08093692680E180936A2674
:1034400080E080936B2680E080936C2680E0809300
:103450006D2680E080936E2672E07093460696E0BB
:10346000A9E6B6E20E94F21C72E07093450685E080
:10347000809369268FE080936A2680EE80936B2686
:1034800080E880936C2672E07093460694E0A9E68B
:10349000B6E20E94F21C72E070934506A881B981E1
:1034A000BA93AA930E946D1B229682E080936926AC
:1034B00084E180936A2680E080936B2680E080938D
:1034C0006C2680E080936D2680E080936E2672E00B
:1034D0007093460696E0A9E6B6E20E94F21C72E0FE
:1034E0007093450685E0809369268FE080936A2675
:1034F00080EE80936B2680E880936C2672E0709358
:10350000460694E0A9E6B6E20E94F21C72E07093CF
:103510004506A881B981BA93AA930E946D1B229691
:1035200082E08093692688E180936A2680E0809318
:103530006B2680E080936C2680E080936D2680E08F
:1035400080936E2672E07093460696E0A9E6B6E296
:103550000E94F21C72E07093450685E08093692614
:103560008FE080936A2680EE80936B2680E88093BC
:103570006C2672E07093460694E0A9E6B6E20E94DB
:10358000F21C72E070934506A881B981BA93AA93A0
:103590000E946D1B229682E08093692680E28093D0
:1035A0006A2680E080936B2688E080936C2680E01A
:1035B00080936D2680E080936E2672E070934606BD
:1035C00096E0A9E6B6E20E94F21C72E0709345060E
:1035D00085E0809369268FE080936A2680EE809351
:1035E0006B2680E880936C2672E07093460694E028
:1035F000A9E6B6E20E94F21C72E07093450683E0F1
:10360000809369268EE080936A2680E080936B2603
:1036100072E07093460692E0A9E6B6E20E94F21CC0
:1036200092E0A9E7B6E20E94E71C72E070934506BB
:1036300082E08093692684E280936A2680E080930A
:103640006B2688E080936C2680E080936D2680E076
:1036500080936E2672E07093460696E0A9E6B6E285
:103660000E94F21C72E07093450685E08093692603
:103670008FE080936A2680EE80936B2680E88093AB
:103680006C2672E07093460694E0A9E6B6E20E94CA
:10369000F21C72E07093450682E0809369268CE00C
:1036A00080936A268FE080936B2672E070934606C3
:1036B00093E0A9E6B6E20E94F21C72E07093450620
:1036C000A881B981BA93AA930E946D1B229680911A
:1036D0007926A881B9818C93089583E08093692627
:1036E0008EE080936A2680E080936B2672E0709370
:1036F000460692E0A9E6B6E20E94F21C91E0A9E734
:10370000B6E20E94E71C72E070934506809179262C
:10371000A881B9818C93089585E0809369268FE014
:1037200080936A2680EE80936B2680E880936C26D7
:1037300072E07093460694E0A9E6B6E20E94F21C9D
:1037400072E070934506A881B981BA93AA930E944A
:103750006D1B229682E0809369268AE280936A2616
:1037600080E080936B2672E07093460693E0A9E6B2
:10377000B6E20E94F21C72E07093450682E08093EC
:10378000692689E280936A2680EF80936B2672E037
:103790007093460693E0A9E6B6E20E94F21C72E03E
:1037A0007093450682E08093692688E280936A26BA
:1037B00086E880936B2672E07093460693E0A9E654
:1037C000B6E20E94F21C72E07093450685E0809399
:1037D00069268FE080936A2680EE80936B2680E0D6
:1037E00080936C2672E07093460694E0A9E6B6E2F8
:1037F0000E94F21C72E070934506A881B981BA93C9
:10380000AA930E946D1B2296089579656C6C6F7760
:10381000677265656E007265640079656C6C6F77C0
:10382000000005D00E94352200FC0CD00895002431
:10383000E89457FF02C009D0689400F80BD010F844
:103840000124089502D009D00895509540954F5F06
:103850005F4F0895E89417FF0895009510950F5F46
:103860001F4F689408958F938D918823E9F71197DE
:103870008F9108950F929F93AF93BF937F930F9370
:103880001F932F933F93A7E5B6E30D911D912D91C3
:103890003C918827802B812B822B832BF1F00150C8
:1038A00010402040304080913D21882391F3F894CE
:1038B00080913D218A9580933D2190913B21ACE3FD
:1038C000B0E2A90F0024B01D8C9193959F3F09F49D
:1038D000992790933B21789401C088273F912F919D
:1038E0001F910F917F91BF91AF919F910F9008957C
:1038F0007F930F929F93AF93BF9380913E22882333
:10390000E1F3F89480913E228A9580933E22909133
:103910003C22AEE3B1E2A90F0024B01D8C91939537
:103920009E3F09F4992790933C227894BF91AF91E0
:103930009F910F907F9108957F930F929F93AF93E4
:10394000BF9380913F238823E1F3F89480913F2334
:103950008A9580933F2390913D23AFE3B2E2A90F74
:103960000024B01D8C9193959E3F09F49927909364
:103970003D237894BF91AF919F910F907F910895CF
:103980007F930F929F93AF93BF938091402488239E
:10399000E1F3F894809140248A958093402490919B
:1039A0003E24A0E4B3E2A90F0024B01D8C919395AE
:1039B0009E3F09F4992790933E247894BF91AF914C
:1039C0009F910F907F9108953197F1F708950E948C
:1039D000FD1C8C910E94FF1C8D939A95D1F70E943B
:1039E000FE1C08950E94FD1C8D910E94FF1C9A955B
:1039F000D9F70E94FE1C08950895089508958093B4
:103A0000C3088091C20887FFFCCF8091C308089546
:103A1000689462F80895E89462F80895EF93FF932C
:103A2000EE27E82BE92B31F0E0E4FFE13197F1F7E5
:103A30000197D1F7FF91EF9108959FEF8FEF0196D6
:103A40000D910023E1F70895199109917191772360
:103A500059F00197D9F7319781918D93015010401A
:103A600019F08823C9F7089588278D9308957091D8
:103A700080067E7F70938006709180067D7F7093B4
:103A80008006709184067E7F709384067091840610
:103A90007D7F7093840608957091800672607093A4
:103AA0008006709180067E7F709380060BD07091A7
:103AB00080067D7F7093800605D0709180067160CE
:103AC00070938006EF93FF93ECE4F0E00E94E41C17
:103AD000FF91EF9108957091800672607093800657
:103AE00070918006716070938006ECDF70918006A3
:103AF0007D7F709380060090880601FEFCCFE2DF98
:103B0000709180067E7F70938006DCCF0894111F31
:103B100001C0110FF9F070918006726070938006F9
:103B200038F40000709180067E7F7093800606C096
:103B30007091800671607093800600C0C3DF709141
:103B400080067D7F709380060090880601FEFCCF82
:103B5000B9DFDFCF7091800672607093800670913C
:103B600080067E7F70938006ADDF709180067D7F3A
:103B7000709380060090880601FEFCCFE8940090C8
:103B8000880600FC689462F89DCF8F937D01D82E43
:103B900001C08F9380E18093460621D08D2D21D0E6
:103BA00080E1809345068F9108957D018F9380E198
:103BB0008093460612D0882714D0D090C30880E1A5
:103BC000809345068F9108958F2D0BD08E2D09D0AF
:103BD0008091BA278295880F0895F6DF02C0F4DF3E
:103BE00084608093C3088091C20887FFFCCF08954A
:103BF00088278093BA2780E180934506A8EBB7E237
:103C000080E58D9380E08C93AEF5A0E0B0E080E895
:103C1000BCDF92E00E940E1DC8DFD7FCFDCFE4ECB4
:103C2000F3E0AFE1B0E040E44093BA272ED0802D1E
:103C3000ACDF43954834C1F7AEE1B0E040E44093D7
:103C4000BA2723D0802DA1DF43954834C1F74427FC
:103C50004093BA27A9E0B0E096E011D0AFE0B0E021
:103C600094E00DD0A1E0B0E094E009D0A5E0B0E090
:103C700094E005D0A8E1B0E08FEF87DF0895899147
:103C800084DF11969A95D9F70895C895319600204A
:103C900008954C814A9337D06B817881672BA0E0DF
:103CA000B0E040644093BA27862F6FDF9C968FEF79
:103CB0006CDF98970A81198100240030100531F0DB
:103CC000812F63DF1196802F60DF0FC00E94952245
:103CD000E8EBF7E2819191910196929382938F9311
:103CE000892F53DF11968F9150DFAF93A2E185E0CA
:103CF0004CDF119680EC49DFAF91149791E053D0DF
:103D00008C8125960895899180648093BA2799279C
:103D1000A1E0B0E090E147D0129647DF8D2D8030D2
:103D2000E1F711978FEF31CFBF93AF939F935F93DD
:103D30004F93499140644093BA279991903031F460
:103D4000A3E0B0E032DF0D2D112727C0913009F03C
:103D500012C0A0E2B0E029DF1D2D119626DF0D2D47
:103D6000119723DF5D2D119620DF4D2D04171507C8
:103D7000A1F08A01F5CFA6E2B0E017DF1D2D119664
:103D800014DF0D2D119711DF5D2D11960EDF4D2DD6
:103D90000417150711F08A01F5CF4F915F919F919C
:103DA000AF91BF910895892FF0DEFFDE9D2D9030F9
:103DB000E1F70895AA81BB810E941D1D9991992365
:103DC00089F01197AF93BF939DE09D939AE09D93E7
:103DD0008E5F8A9388278A9308D0BF91AF918827F6
:103DE0008C9308958A9388278A9390E08A818064CF
:103DF0008093BA279A938A9397DF61FC03C00731B7
:103E000021F0AFC0003009F4ACC01A8081E08A9381
:103E10001A928ADF498158810417150728F49927D7
:103E200081E00E940E1DE1CFE4EDF3E08A81880F6E
:103E3000E80F8827F81F29DF902D27DF702D739555
:103E40006627A4E2B0E0B1DE1D2D1196AEDE0D2D89
:103E5000092310219801E4E0F4E08A81880FE80F3B
:103E60008827F81F12DF402D10DF502D040F151F7B
:103E7000D801EB81FC81898198811D81123011F478
:103E8000E050F04F0901280F391F2617370760F05F
:103E900059F08F939F9360197109CB0107D09F91BF
:103EA0008F91861B970BDA0101D024C07D01DC01C4
:103EB000803011F4903001F48F9380E180934606B6
:103EC0008F918A8180688093BA2789DE103041F013
:103ED000113011F005C005C00E946322802D01C081
:103EE00081917FDE119791F78F9380E18093450652
:103EF0008F910895A4E2B0E08A8180648093BA270C
:103F000054DE1D2D119651DE0D2D4981040F58816F
:103F1000151FAA95812F39DEA395802F36DEA2507A
:103F200044DE6D2DA39541DE7D2DA1E0B0E080E261
:103F30002CDE3BDE8D2D8030E1F7A39536DE8D2D16
:103F4000887121F022DE84FD08C00BC0A3952DDE10
:103F50008D2D803031F0AA95F1CF098118812696F8
:103F6000089500271127FBCF9927A1E0B0E08064D6
:103F70008093BA2792E017CF1C801092BA2782E074
:103F80008A931A92D1DE4A815B810417150780F467
:103F900061FC09C090E09A931A92C6DE073119F0CD
:103FA00081E02596089581E099270E940E1DE4CFB7
:103FB000A8E2B0E08C81E4EEF3E08C81880FE80F9A
:103FC0008827F81F62DE902D60DE702D73956627BE
:103FD000ECDD1D2DA395E9DD0D2D092310219801A0
:103FE000E4EFF3E08C81880FE80F8827F81F4DDE9F
:103FF000402D4BDE502D040F151FF801A881B9810B
:104000008A819B810901280F391F2617370760F025
:1040100059F08F939F9360197109CB0107D09F913D
:104020008F91861B970BFA0101D018C07F01FC010C
:104030008F9380E1809346068C81806C8093BA27B1
:10404000CCDD8F91CEDDD090C308DD923197D1F7D2
:104050008F9380E1809345068F910895A8E2B0E0A8
:104060008C8180648093BA27A0DD1D2DA3959DDDF2
:104070000D2D4A81040F4B81141FAA95812F85DDD8
:10408000A395802F82DDA1E0B0E090E48CDE259640
:1040900088270895A881B9818A818A9388278A937D
:1040A00081E08A93BA93AA9367DF803039F081E088
:1040B000A881B98199279C9324960895A881B981F4
:1040C0008C918D3009F4E6CF8A3011F480E0F0CF86
:1040D000A881B9818D93A883B9839B819A959B838D
:1040E000C9F68827E5CFA1E0B0E080648093BA27C5
:1040F00098E059DEA3958FEF48CD0E949522E3E426
:10410000F6E3A4E3B6E30C949520868197810E94A0
:10411000AC22D02E838194810E94AC22E02E80813B
:1041200091810E94AC22F02E0895868197810E9491
:10413000AC220D93838194810E94AC220D938081E7
:1041400091810E94AC220D9308957991A0EA769511
:1041500008F4A0EBB8E0B70F0895A0E0BAE561D08D
:104160008030B9F199819F70913019F48D30D1F080
:1041700010C0923019F48A30A9F00BC0933029F4A2
:104180008D3069F38A3071F004C08A3041F38D308C
:1041900049F0FF2311F4EE2311F38D93319763FE61
:1041A00091D0DDCF63FC15C09981907F903111F4DF
:1041B00089D00FC0903211F485D00BC0903329F410
:1041C0008DE080D08AE07ED004C08AE07BD08DE094
:1041D00079D088278C9322960895703021F4099025
:1041E00070913D2119C0713021F4099070913E22E7
:1041F00013C0723021F4099070913F230DC07330C9
:1042000021F409907091402407C09FDF119681E04E
:104210007C9177FF8827089581E0772309F4882728
:10422000089578817A937881703019F479910C949B
:104230003A1C713019F479910C94781C723019F48D
:1042400079910C949C1C733019F479910C94C01CD6
:10425000BF93AF930F931F932F933F93A7E5B6E3BD
:104260000D911D912D913C9170DF11967C9177FD00
:104270000BC08827802B812B822B832B39F0015098
:10428000104020403040F2CF11978C913F912F91F8
:104290001F910F91AF91BF910895A0E0BAE58D9164
:1042A000882311F00FD0FBCF219608950E9463223E
:1042B000802D11F007D0FACF219608958DE002D01D
:1042C0008AE002C078817A93BF93AF933EDF119664
:1042D0007C9175FFFDCF11978C93AF91BF9108959D
:1042E0008F939F93AF93BF93882790E2A2E0B0E2B1
:1042F0008D939A95E9F7BF91AF919F918F91089512
:104300008F9380910220881F809302208091032048
:10431000881F8093032080910420881F80930420AD
:1043200080910520881F8093052080910620881F9A
:10433000809306208F9108950090CF0107FCFCCF59
:1043400008950081818314818683EF93FF93ECE2CB
:10435000F0E00E94E41CFF91EF9108950E940B1D74
:104360000E948722EEDFEF93FF93ECEFFEE00E94C6
:10437000E41CFF91EF9185838283EF93FF93ECE739
:10438000F2E00E94E41CFF91EF911085182311F0D8
:104390000E94081DEF93FF93ECEFFEE00E94E41CE7
:1043A000FF91EF9108950E94872221E048E005C027
:1043B0000E94872229915D9148E0C3DF579550F410
:1043C0008583EF93FF93ECEFF1E00E94E41CFF91F3
:1043D000EF9111C0EF93FF93ECEDF1E00E94E41C2C
:1043E000FF91EF918583EF93FF93ECE0F0E00E9463
:1043F000E41CFF91EF914A9501F72A95E1F60895A3
:104400000E948722299148E055279BDF8283EF9302
:10441000FF93ECE5F0E00E94E41CFF91EF9188949B
:104420001085182309F008945795EF93FF93ECE853
:10443000F1E00E94E41CFF91EF914A9531F75D9302
:104440002A9509F7089501911191219130810895DC
:10445000481A590A0895481A8827580A089599272A
:104460005A924A92480E591E08950F92B801469FDB
:104470008001479F100D569F100D0F9008950E94C8
:1044800063220D920020D9F70895903041F00D91EC
:104490001C91000F111F9A95E1F71C930E9308953C
:1044A000903029F08C9186959A95E9F78C93089530
:1044B000903041F00D911C91169507959A95E1F772
:1044C0001C930E930895D895319628F48F938BB74B
:1044D00083958BBF8F910020089591E005C092E0F5
:1044E00003C094E001C098E0EEDF0D929A95E1F7E9
:1044F00008950196019721F00E946322E9F7FACF0F
:104500000895813618F08B3708F48F7D089591E077
:10451000882321F08894991F8A95E9F7892F90952F
:10452000089580E30EF4839508950F9200240BBE46
:104530000F9008950F9301E00BBF0F918894089599
:104540000F930027F9CF0F9302E0F6CF0F9303E00C
:10455000F3CF0F9304E0F0CF8053905300278130C6
:1045600018F0065F8A95FBCF090F0895AF93BF93AC
:104570000F939F938F938FB78F93A4E3B6E38C91A0
:1045800083958D938C3309F03DC088278E931196C7
:104590008C9183958D938C3309F034C088278E934A
:1045A00011968C9183958D93883161F588278E9330
:1045B00011968C9183958D939C910EE1943089F0A6
:1045C000963079F0993069F09B3059F00CE19230D7
:1045D00039F411969C911197937019F4039501C0C9
:1045E0000FE1801778F071F081E08E9311968C9135
:1045F00083958D938D3031F481E08E9311968C915B
:1046000083958C938F918FBF8F919F910F91BF91C5
:10461000AF910F921F922F923F924F925F927F9293
:10462000AF92BF920F931F932F933F934F935F933C
:104630006F937F938F939F93AF93BF93CF93DF93AA
:10464000EF93FF938FB78F938BB78F9388278BBF91
:104650000E942C138F918BBF8F918FBFFF91EF9191
:10466000DF91CF91BF91AF919F918F917F916F918A
:104670005F914F913F912F911F910F91BF90AF90FC
:104680007F905F904F903F902F901F900F901895C4
:104690007F930F93AF93BF938F939F938FB78F9316
:1046A00080913D210FEF081B29F49091A0080E94F2
:1046B000081D13C000913C21ACE3B0E27727909134
:1046C000A008A00FB71F9C93839580933D2103956D
:1046D0000F3F09F4002700933C218F918FBF9F91DA
:1046E0008F91BF91AF910F917F9118957F930F9309
:1046F000AF93BF938F939F938FB78F93E8948091DD
:104700003E220EEF081B29F49091B0080E94081D6C
:1047100014C000913D22AEE3B1E277279091B0083A
:10472000A00FB71F9C936894839580933E220395B6
:104730000E3F09F4002700933D220E949C138F91A5
:104740008FBF9F918F91BF91AF910F917F911895DE
:104750007F930F93AF93BF938F939F938FB78F9355
:10476000E89480913F230EEF081B29F49091A00953
:104770000E94081D14C000913E23AFE3B2E27727E8
:104780009091A009A00FB71F9C9368948395809384
:104790003F2303950E3F09F4002700933E239D30ED
:1047A00011F40E94E7138F918FBF9F918F91BF915A
:1047B000AF910F917F9118957F930F93AF93BF9314
:1047C0008F939F938FB78F93E894809140240EEF3F
:1047D000081B29F49091B0090E94081D14C0009193
:1047E0003F24A0E4B3E277279091B009A00FB71F50
:1047F0009C93689483958093402403950E3F09F41D
:10480000002700933F249D3011F40E94FB138F91E9
:104810008FBF9F918F91BF91AF910F917F9118950D
:10482000040F151F261F371F0895000F111F221F89
:10483000331F089500951095209530950F5F1F4FF9
:104840002F4F3F4F0895019110810FC00E942322E6
:104850000EC00E94232210C00191108117FF05C0D5
:104860003FEF2FEF04C0008111272227332737FFA6
:1048700003C0E0DF8DE28D930E94702140E20E9430
:104880009522E2E0F0E255E093E38081890F87FD15
:104890009F7083FD907F891B81935A95A9F7C5DF8F
:1048A0000E9480214A9559F7E8940E949522E2E0FF
:1048B000F0E20E2E0394359682910AD0E015E0F7CF
:1048C00026F068948091022007D088278D93089560
:1048D000982F829501D0892F8F70805D26F08033CC
:1048E00009F4089568948D930895002711272227CD
:1048F00033271DD08A3328F4803318F005D015D023
:10490000F9CF0EF497CF089580538F93402F512FF6
:10491000622F732F8ADF89DF83DF87DF8F919927EB
:10492000080F191F291F391F08958D910895E894C4
:10493000FCDF8032E9F38B32D9F38930C9F38D3251
:1049400011F46894F2CF089541E0E40F8827F81F2E
:10495000829138E098E1880F991F9D933A95D1F79D
:104960004A95B1F70C94DA24002711272227332720
:104970008D91882339F08053000F111F221F331FA0
:10498000080FF6CF089500271127222733278D918E
:10499000882379F04ADF49DF48DF47DFB2DD815401
:1049A00008F4895F865F080F8827181F281F381FA3
:1049B000EECF089588278D93089581918D93882354
:1049C000E1F7089594E081918D939A95E1F7089528
:1049D000689401C0E894AF93BF938D9116F09191C4
:1049E00003C00E946322902D891718F011F48823C8
:1049F000A1F7BF91AF910895E89463F80895689482
:104A000063F80895689401C0E8942227102F2317B3
:104A100009F4089526F40E946322802D01C081913B
:104A2000803081F0891741F070E08D931A9591F7ED
:104A3000239571E01D93EACF01D0E8CF703011F0DB
:104A400077270895772331F42395882713958D933D
:104A50001A95E9F70895B7FE089590E8B91611F48C
:104A6000D0FE08959FEFD91AE90AF90A09F40395CF
:104A700008950F928F939F93D216E306F4060FB614
:104A800080E890E8802795270FBE890739F00FB698
:104A9000892B87FD02C081E008260FBE9F918F9170
:104AA0000F900895D190E190F19001910895219196
:104AB0003191419151910895502F2D2D3E2D4F2D23
:104AC000612F0895EFDF992711278F2D880F80E838
:104AD000F82A802F881F08F41FEF41F08F57082F06
:104AE00007FD04C0003240F08FEF01C08827982FE7
:104AF000D82EE82EF82E09C08FE1801B082FF694DF
:104B0000E794D79497950A95D1F7112351F0909592
:104B1000D094E094F09481E0980F8827D81EE81E86
:104B2000F81E0F2DFE2CED2CD92E0895D094E09474
:104B3000F09491E0D90E9927E91EF91E1095089579
:104B4000652F90E8440F551F5927990F47956078B6
:104B5000102F90E8FF0C001F0927990FF794107889
:104B600000380895FF0C90E89027110F9795F7945F
:104B7000092F0895102FBD2CDE2CEF2CF02E1123C1
:104B80004AF4B094D094E094F0949FEFB91AD90A03
:104B9000E90AF90A0EE1FF2039F4FE2CED2CDB2C9A
:104BA000BB240850C2F752C032F00A95BB0CDD1C82
:104BB000EE1CFF1CF9CF4FDFD5CF2DEC3CEC4CECBD
:104BC0005DE366270FC06EDF77DFDD24EE2490E81B
:104BD000F92E0FE307C06BDF05C02227332740E221
:104BE00051E46627552351F1002381F1A9DF71F1CA
:104BF0001627005850580894050B18F407FD03C0F9
:104C000025C007FD23C0469537952795F694E79470
:104C1000D79425D0FF202AF0DD0CEE1CFF1C01509C
:104C200073F09D2D969548F0DD203AF4EE202AF49D
:104C300091E0D90E9927E91EF91E94CF07C09FE78E
:104C4000092FF92A9FEFD92EE92E0895DD24EE24AD
:104C5000FF240027112708950FE79FEFF2CF9F92BF
:104C60009924AA24BB2488E1D216E306F40628F08E
:104C7000D21AE30AF40A089401C08894991CAA1C69
:104C8000BB1CDD0CEE1CFF1C8A9571F7D92CEA2C9D
:104C9000FB2C9F90089554DFD9F05038C9F01627A7
:104CA0000058952F90580894091F12F418F40EC05C
:104CB00008F00EC00FD0FF202AF0BB0CDD1CEE1C4C
:104CC000FF1C02C0039513F0C6DE4CCF0C941F26C8
:104CD0000C9426269F92FF92EF928D2DFF24EE24B6
:104CE000DD24BB2493E0849F1001829FB00CD11C73
:104CF000E21CF31C839FD00CE11C2224F21C9A9529
:104D000031F0BD2CDE2CEF2CFF248F91ECCF9F9047
:104D100008950AF045D026CF5FE3222733274427A2
:104D200001C0C5DE0DDF5038B1F3003899F3902F84
:104D3000951B8BF312F434D0FACF983118F0222758
:104D400033274427983028F0232F342F44279850B6
:104D5000F9CF992329F04695379527959A95D9F754
:104D6000912F962742F014D0B0F6F794E794D79499
:104D70000F5F8BF664CF10D051F008F4D7DEFF2020
:104D800052F2DD0CEE1CFF1C0150CBF758CF5ECF6A
:104D9000D20EE31EF41E0895D21AE30AF40A08950F
:104DA000DF92EF92FF920F931F93D22EE32EF42EF9
:104DB000052F162F6F915F914F913F912F9108957D
:104DC0000E946322202D0E946322302D0E946322C4
:104DD000402D0E946322502D089564DE80E003C0C0
:104DE00061DE802F8078882321F0DF92EF92FF929E
:104DF0000F938F930E94A025802F839512F426DFB6
:104E00001BC080958A95885E0AF415C088501AF4F4
:104E10000CD0D92210C0DD2488501AF406D0E92223
:104E20000AC0EE2402D0F92206C09FEF8770990FC6
:104E30008A95EAF7089596DE8F918823D9F35F91DA
:104E40004F913F912F910F9314DE0F9199F390F3AF
:104E500002D0506867CF5FE340E8332722270895E8
:104E600021DE0F930F7758DFBCDF8F918078082BFE
:104E7000089500002041000080410000803F0000B4
:104E8000C84200007F4331343A34303A30300000B9
:104E9000535441525400696E69740000533000004D
:104EA0002D002B00474554202F204854545000001B
:104EB000485454502F312E3020323030204F4B0D7B
:104EC0000A00436F6E74656E742D547970653A20D4
:104ED000746578742F68746D6C0D0A003C21444F22
:104EE00043545950452068746D6C3E3C68746D6C39
:104EF0003E3C686561643E003C7374796C653E7449
:104F000061626C652C2074682C207464207B626F55
:104F1000726465723A2031707820736F6C69642016
:104F2000626C61636B3B626F726465722D636F6C60
:104F30006C617073653A20636F6C6C617073653B74
:104F40007D203C2F7374796C653E3C2F68656164ED
:104F50003E3C626F64793E00696E707574733D000B
:104F60003C62723E6E65656420746F2075736520C7
:104F700064697265637420736F636B657420636F1B
:104F80006E6E656374696F6E00003C7461626C657F
:104F90003E003C74723E3C74683E706172616D65A7
:104FA0007465723C2F74683E3C74683E76616C7523
:104FB000653C2F74683E3C2F74723E003C74723E18
:104FC0003C74643E4B6F74656C5F743C2F74643E3C
:104FD0003C74643E00003C2F74643E3C2F74723E6F
:104FE00000003C74723E3C74643E4B6F74656C5FB1
:104FF000737461743C2F74643E3C74643E003C7472
:10500000723E3C74643E6B6F74656C5F685F6C6984
:105010006D3C2F74643E3C74643E00003C74723EF0
:105020003C74643E6B6F74656C5F64656C74613C6A
:105030002F74643E3C74643E00003C74723E3C74C9
:10504000643E6B6F74656C5F745F72756E3C2F7439
:10505000643E3C74643E00003C74723E3C74643EAA
:105060006B6F74656C5F745F73746F703C2F7464E6
:105070003E3C74643E003C74723E3C74643E6B6F14
:1050800074656C5F646174615F76616C69645F74A0
:10509000696D65723C2F74643E3C74642062676382
:1050A0006F6C6F723D270000273E00003C74723E1B
:1050B0003C74643E446967206F7574707574733C0A
:1050C0002F74643E3C74643E00003C74723E3C7439
:1050D000643E44696720696E707574733C2F746414
:1050E0003E3C74643E003C74723E3C74643E5072BC
:1050F0006573737572653C2F74643E3C74643E0046
:105100003C74723E3C74643E507265737375726594
:10511000206C696D3C2F74643E3C74643E003C74AA
:10512000723E3C74643E64656C74613C2F74643EF2
:105130003C74643E00003C74723E3C74643E5461B6
:105140006E6B5F646174615F76616C69645F7469E2
:105150006D65723C2F74643E3C7464206267636FBB
:105160006C6F723D27003C74723E3C74643E424159
:10517000545F766F6C746167653C2F74643E3C7459
:10518000643E00003C74723E3C74643E4261745F55
:1051900063757272656E743C2F74643E3C74643E39
:1051A00000003C74723E3C74643E4261745F636113
:1051B0007061636974793C2F74643E3C74643E0092
:1051C0003C74723E3C74643E4261745F6176616916
:1051D0006C61626C653C2F74643E3C74643E0000FC
:1051E0003C74723E3C74643E50756D705F737461C4
:1051F0007475733C2F74643E3C74643E00003C74D0
:10520000723E3C74643E50756D705F63757272657A
:105210006E743C2F74643E3C74643E003C74723E79
:105220003C74643E506F77657265642066726F6D82
:105230003C2F74643E3C74643E003C74723E3C748B
:10524000643E64616C61733C2F74643E3C74643EE4
:1052500000003C74723E3C74643E73656E736F7202
:10526000556E69744461746156616C69643C2F7455
:10527000643E3C7464206267636F6C6F723D27000C
:105280003C74723E3C74643E745A6F6E65313C2FC0
:1052900074643E3C74643E003C74723E3C74643EF4
:1052A000745A6F6E65323C2F74643E3C74643E00E9
:1052B0003C74723E3C74643E745A6F6E65333C2F8E
:1052C00074643E3C74643E003C74723E3C74643EC4
:1052D000734C696768743C2F74643E3C74643E0090
:1052E0003C74723E3C74643E6164634348353C2FB9
:1052F00074643E3C74643E003C2F7461626C653E95
:105300003C2F626F64793E3C2F68746D6C3E0D0AD1
:105310000000436F6E74656E742D4C656E67746823
:105320003A2000000D0A0000636D643A000031204D
:105330002D20000032202D20000033202D200000E1
:1053400034202D20000035202D20000036202D2077
:10535000000043414E3A0000426F696C65723A00AA
:1053600037202D20000073746F70000072756E007E
:1053700070726572756E000069676E6F726500000D
:105380003B003B0D0A0054616E6B3F0054616E6B35
:105390005F7374617475733B0000426F696C657272
:1053A0003F0052656C3A000072006C00646F6E65DD
:1053B0000D0A0000543F3A0043414E20737461745B
:1053C00075733A00656E640D0A00776520676F7427
:1053D0002061206368617200696E74340000696E38
:1053E00074300000696E74310000696E7432000020
:1053F000696E7433000041430000424154004E4145
:025400000000AA
:00000001FF
