:100000000C94FE001895000018950000189500004B
:10001000189500001895000018950000189500002C
:10002000189500001895000018950000189500001C
:1000300018950000189500000C94C902189500004E
:1000400018950000189500001895000018950000FC
:1000500018950000189500001895000018950000EC
:1000600018950000189500001895000018950000DC
:1000700018950000189500001895000018950000CC
:1000800018950000189500001895000018950000BC
:1000900018950000189500001895000018950000AC
:1000A000189500001895000018950000189500009C
:1000B000189500001895000018950000189500008C
:1000C000189500001895000018950000189500007C
:1000D000189500001895000018950000189500006C
:1000E000189500001895000018950000189500005C
:1000F000189500001895000018950000189500004C
:10010000189500001895000018950000189500003B
:10011000189500001895000018950000189500002B
:10012000189500001895000018950000189500001B
:10013000189500001895000018950000189500000B
:1001400018950000189500001895000018950000FB
:1001500018950000189500001895000018950000EB
:1001600018950000189500001895000018950000DB
:1001700018950000189500001895000018950000CB
:1001800018950000189500001895000018950000BB
:1001900018950000189500001895000018950000AB
:1001A000189500001895000018950000189500009B
:1001B000189500001895000018950000189500008B
:1001C000189500001895000018950000189500007B
:1001D000189500001895000018950000189500006B
:1001E000189500001895000018950000189500005B
:1001F0001895000018950000189500008FEF8DBF2E
:10020000C0E0E8E14E2E8FE58EBFDEE5FAE55F2E19
:10021000009078008FE38093780081E078ED74BFE0
:1002200080938000EEEFFFE3A0E0B0E288278D939B
:100230003197E9F7662470E07093520083E0A0E5FF
:10024000B0E08D939C9193708917E1F780915100F4
:1002500081FFFCCF78ED74BF71E07093400078EDC2
:1002600074BF70E070934100E1E0F0E00E94AA0AE0
:1002700070E47093010670E47093050670E8709363
:10028000010670E87093060672E07093210672E032
:100290007093250672E07093610672E070936606B3
:1002A00074E07093010674E07093050678E0709333
:1002B000010678E07093050672E07093010672E023
:1002C0007093050670E27093810671E070932206C8
:1002D00071E07093220671E07093410671E07093B3
:1002E000450672E07093410672E07093450674E033
:1002F0007093420670EB7093410670E1709345066F
:1003000080ED8093C008A0E0B2E081E08D9384E0AE
:100310008D9380E18D9380E08D9383E08D9381E0D8
:100320008093200278E07093810688E1A4EABAE025
:100330008D9383E08D938EE28D9388E98C9378E0A2
:100340007093A10688E1A4EABBE08D9383E08D93CE
:100350008EE28D9388E98C9377E07093000888E1B2
:100360009FE18093260890932708809106088C7F50
:10037000816080930608A7E6B0E2BA93AA930E9430
:10038000F406229684E190E00E94DA0AA7E6B0E241
:10039000BA93AA930E940F0A229678ED74BF75E271
:1003A0007093800071E07093A20078948091800037
:1003B000836078ED74BF80938000A895A7E6B0E2D3
:1003C000BA93AA930E944D03229600916F200A3F90
:1003D00018F011F00C94EE010C94110280E080935F
:1003E0006F20A7E6B0E2BA93AA930E94F406229681
:1003F000E0E4F7E10E94780B86E08A930E94FA0A13
:100400000E946D0B86E08A930E94020B84E190E0CB
:100410000E94DA0AA7E6B0E2BA93AA930E940F0AF2
:100420002296A7E6B0E2BA93AA93ADE6B0E2BA93F9
:10043000AA930E948803249600916720003018F048
:1004400011F00C9425020C94C70280E080936F2079
:10045000ADE6B0E20D911C91053553E0150781E042
:1004600009F080E08F93ADE6B0E20D911C91063566
:1004700053E0150781E009F080E09F91892B8823E4
:1004800011F40C94C702ECE4F7E10E94780B86E0CB
:100490008A930E94FA0A0E946D0BA0E0BAE50E94BE
:1004A0006D0BEDE6F0E20E94860B86E08A930E94D7
:1004B000F10AE2E5F7E10E94780B86E08A930E9458
:1004C000FA0A0E946D0BA0E0BAE50E946D0BE3E50D
:1004D000F0E20E94840B86E08A930E94F10AA0E079
:1004E000BAE50E946D0BE4E5F0E20E94840B86E021
:1004F0008A930E94F10AA0E0BAE50E946D0BE5E53F
:10050000F0E20E94840B86E08A930E94F10AA0E048
:10051000BAE50E946D0BE6E5F0E20E94840B86E0EE
:100520008A930E94F10AA0E0BAE50E946D0BE7E50C
:10053000F0E20E94840B86E08A930E94F10AA0E018
:10054000BAE50E946D0BE8E5F0E20E94840B86E0BC
:100550008A930E94F10AA0E0BAE50E946D0BE9E5DA
:10056000F0E20E94840B86E08A930E94F10AA0E0E8
:10057000BAE50E946D0BEAE5F0E20E94840B86E08A
:100580008A930E94F10A86E08A930E94020B0C94DF
:10059000DD010F921F922F923F924F925F927F92B6
:1005A000AF92BF920F931F932F933F934F935F93FD
:1005B0006F937F938F939F93AF93BF93CF93DF936B
:1005C000EF93FF938FB78F938BB78F9388278BBF52
:1005D00088E19FE1809326089093270800916F207F
:1005E0000F3F10F00C94F902AFE6B0E28C918F5FF0
:1005F0008C9370E27093870678E0709307068F9172
:100600008BBF8F918FBFFF91EF91DF91CF91BF9102
:10061000AF919F918F917F916F915F914F913F919A
:100620002F911F910F91BF90AF907F905F904F904F
:100630003F902F901F900F9018950895089508955A
:1006400078E070930706089582E08093002080E6AA
:100650008093012080E08093022072E07093460630
:1006600093E0A0E0B0E20E94BE0A72E070934506FB
:1006700082E08093002080E78093012080E08093D7
:10068000022072E07093460693E0A0E0B0E20E9480
:10069000BE0A72E070934506089583E080930020BF
:1006A0008DE28093012080E08093022072E07093BD
:1006B000460692E0A0E0B0E20E94BE0A91E0A9E303
:1006C000B0E20E94B30A72E070934506809139202F
:1006D000A881B9818C93089583E0809300208CE2F7
:1006E0008093012072E07093460692E0A0E0B0E2B1
:1006F0000E94BE0A91E0A9E3B0E20E94B30A72E050
:100700007093450680913920A881B9818C93089512
:1007100083E0809300208CE28093012072E070934C
:10072000460692E0A0E0B0E20E94BE0A92E0A9E391
:10073000B0E20E94B30A72E070934506A9E3B0E20A
:100740008C9183708C9300913920013011F00C94BE
:100750002B0483E08093002081E68093012072E0E7
:100760007093460692E0A0E0B0E20E94BE0A95E0D7
:10077000A9E3B0E20E94B30A72E07093450695E0E7
:10078000AAE3B0E20E945B0BA9E3B0E28C91A881DE
:10079000B9818D9388278C9393E0A881B9810E94B9
:1007A000500BA881B9810D911C91AAE3B0E24D9143
:1007B0005527040F151FA881B9810D931C9383E061
:1007C0008093002080E68093012080E080930120C8
:1007D00072E07093460693E0A0E0B0E20E94BE0A89
:1007E00092E0A9E3B0E20E94B30A72E0709345067A
:1007F00083E08093002085E68093012072E070936F
:10080000460693E0A0E0B0E20E94BE0A98E0A3E5AD
:10081000B0E20E94B30A72E07093450685E08093CF
:1008200000208CE28093012081E08093022080E010
:100830008093032072E07093460694E0A0E0B0E25B
:100840000E94BE0A72E07093450681E0AA81BB81D6
:100850008C930C943B05023011F00C94B10483E0AE
:100860008093002081E78093012072E07093460618
:1008700092E0A0E0B0E20E94BE0A95E0A9E3B0E2F7
:100880000E94B30A72E07093450695E0AAE3B0E2D5
:100890000E945B0BA9E3B0E28C91A881B9818D9392
:1008A00088278C9393E0A881B9810E94500BA8817E
:1008B000B9810D911C91AAE3B0E24D915527040F27
:1008C000151FA881B9810D931C9383E080930020AC
:1008D00080E78093012080E08093012072E0709394
:1008E000460693E0A0E0B0E20E94BE0A92E0A9E3CF
:1008F000B0E20E94B30A72E07093450683E08093F1
:10090000002085E78093012072E07093460693E013
:10091000A0E0B0E20E94BE0A98E0A3E5B0E20E9427
:10092000B30A72E07093450685E0809300208CE264
:100930008093012082E08093022080E08093032056
:1009400072E07093460694E0A0E0B0E20E94BE0A16
:1009500072E07093450682E0AA81BB818C930C946F
:100960003B05033011F00C94370583E080930020A1
:1009700081E78093012072E07093460692E0A0E048
:10098000B0E20E94BE0A95E0A9E3B0E20E94B30A79
:1009900072E07093450695E0AAE3B0E20E945B0B1B
:1009A000A9E3B0E28C91A881B9818D9388278C93BB
:1009B00093E0A881B9810E94500BA881B9810D9163
:1009C0001C91AAE3B0E24D915527040F151FA88191
:1009D000B9810D931C9383E08093002080E780937E
:1009E000012080E08093012072E07093460693E03E
:1009F000A0E0B0E20E94BE0A92E0A9E3B0E20E9449
:100A0000B30A72E07093450683E08093002085E787
:100A10008093012072E07093460693E0A0E0B0E27C
:100A20000E94BE0A98E0A3E5B0E20E94B30A72E019
:100A30007093450685E0809300208CE2809301202E
:100A400082E08093022080E08093032072E0709324
:100A5000460694E0A0E0B0E20E94BE0A72E0709305
:100A6000450681E0AA81BB818C930C943B0580E014
:100A7000AA81BB818C93089583E08093002080E35A
:100A80008093012072E07093460692E0A0E0B0E20D
:100A90000E94BE0A91E0A3E5B0E20E94B30A72E0B0
:100AA0007093450682E00E94400BAA81BB8111969B
:100AB0008C91082F112740E051E00E94460BA8813D
:100AC000B9810D931C93A881B9810D911C910F934D
:100AD0001F93AA81BB818C91482F55271F910F919D
:100AE000040F151FA881B9810D931C9395E0A8816F
:100AF000B9810E94500B82E08093002081E38093B3
:100B00000120A881B98111968C91A2E0B0E28C936A
:100B1000A881B9818C91A3E0B0E28C9380E08093AE
:100B2000042080E08093052088E080930620809157
:100B300049208093072080914A208093082080914B
:100B40004B208093092080914C2080930A20809133
:100B50004D2080930B2080914E2080930C2080911B
:100B60004F2080930D208091502080930E2072E0C2
:100B7000709346069FE0A0E0B0E20E94BE0A72E0D9
:100B80007093450685E08093002080E380930120E8
:100B900088E08093022088E08093032072E07093C5
:100BA000460694E0A0E0B0E20E94BE0A72E07093B4
:100BB000450683E08093002080E38093012072E06B
:100BC0007093460692E0A0E0B0E20E94BE0A91E077
:100BD000A3E5B0E20E94B30A72E07093450682E09A
:100BE000481A80E0580A2296089582E00E94400B3D
:100BF00081E00E94400B81E3A881B9818C9383E05E
:100C00008093002080E38093012072E07093460679
:100C100092E0A0E0B0E20E94BE0A91E0A3E5B0E25B
:100C20000E94B30A72E070934506A3E5B0E20C910E
:100C300003FB16F00C94360683E08093002080E4DA
:100C40008093012072E07093460692E0A0E0B0E24B
:100C50000E94BE0A91E0A3E5B0E20E94B30A72E0EE
:100C60007093450681E4A881B9818C93A3E5B0E235
:100C70000C9103FB16F00C94570683E08093002040
:100C800080E58093012072E07093460692E0A0E038
:100C9000B0E20E94BE0A91E0A3E5B0E20E94B30A6E
:100CA00072E07093450681E5A881B9818C93A3E534
:100CB000B0E20C9103FB16F40C94EA06AC81BD8102
:100CC00011968C91082F112740E051E00E94460BAD
:100CD000AA81BB810D931C93AA81BB810D911C91AC
:100CE0000F931F93AC81BD818C91482F55271F9185
:100CF0000F91040F151FAA81BB810D931C9395E0E2
:100D0000AA81BB810E94500B82E080930020A881C1
:100D1000B9818C9180930120AA81BB8111968C911D
:100D2000A2E0B0E28C93AA81BB818C91A3E0B0E2F7
:100D30008C9380E08093042080E08093052082E003
:100D400080930620809149208093072080914A203B
:100D50008093082080914B208093092080914C2023
:100D600080930A2080914D2080930B2080914E200B
:100D700080930C2080914F2080930D2080915020F3
:100D800080930E2072E0709346069FE0A0E0B0E2F0
:100D90000E94BE0A72E07093450685E080930020B1
:100DA00080E38093012088E08093022088E0809394
:100DB000032072E07093460694E0A0E0B0E20E9447
:100DC000BE0A72E07093450680E0AE81BF818C93CD
:100DD0000C94EE0685E0AE81BF818C9383E0481AC7
:100DE00080E0580A2496089580EC8093002072E0F9
:100DF0007093460691E0A0E0B0E20E94BE0AEF9335
:100E0000FF93ECE3F0E00E94B00AFF91EF9172E0F3
:100E1000709345068AE090E00E94DA0A82E08093AF
:100E2000002080E38093012080E08093022072E024
:100E30007093460693E0A0E0B0E20E94BE0A72E022
:100E40007093450682E08093002080E48093012027
:100E500080E08093022072E07093460693E0A0E069
:100E6000B0E20E94BE0A72E07093450682E0809371
:100E7000002080E58093012080E08093022072E0D2
:100E80007093460693E0A0E0B0E20E94BE0A72E0D2
:100E90007093450682E08093002080E680930120D5
:100EA00080E08093022072E07093460693E0A0E019
:100EB000B0E20E94BE0A72E07093450682E0809321
:100EC000002080E78093012080E08093022072E080
:100ED0007093460693E0A0E0B0E20E94BE0A72E082
:100EE0007093450682E0809300208BE2809301207E
:100EF00083E08093022072E07093460693E0A0E0C6
:100F0000B0E20E94BE0A72E07093450685E08093CD
:100F1000002080E68093012087E68093022084E011
:100F20008093032072E07093460694E0A0E0B0E264
:100F30000E94BE0A72E07093450685E0809300200F
:100F400080E78093012087E68093022081E08093F0
:100F5000032072E07093460694E0A0E0B0E20E94A5
:100F6000BE0A72E07093450685E0809300208FE012
:100F70008093012080EE8093022080E880930320FC
:100F800072E07093460694E0A0E0B0E20E94BE0AD0
:100F900072E070934506A881B981BA93AA930E9422
:100FA000F009229682E08093002080E08093012067
:100FB00080E08093022080E08093032080E0809393
:100FC000042080E08093052072E07093460696E04E
:100FD000A0E0B0E20E94BE0A72E07093450685E090
:100FE000809300208FE08093012080EE8093022088
:100FF00080E88093032072E07093460694E0A0E0BE
:10100000B0E20E94BE0A72E070934506A881B981E1
:10101000BA93AA930E94F009229682E0809300205E
:1010200084E08093012080E08093022088E0809318
:10103000032080E08093042080E08093052072E00C
:101040007093460696E0A0E0B0E20E94BE0A72E00D
:101050007093450685E0809300208FE08093012007
:1010600080EE8093022080E88093032072E07093EA
:10107000460694E0A0E0B0E20E94BE0A72E07093DF
:101080004506A881B981BA93AA930E94F0092296D5
:1010900082E08093002088E08093012080E08093AC
:1010A000022080E08093032080E08093042080E091
:1010B0008093052072E07093460696E0A0E0B0E2CF
:1010C0000E94BE0A72E07093450685E0809300207E
:1010D0008FE08093012080EE8093022080E880934F
:1010E000032072E07093460694E0A0E0B0E20E9414
:1010F000BE0A72E07093450683E0809300208EE084
:101100008093012080E08093022072E07093460675
:1011100092E0A0E0B0E20E94BE0A92E0A9E3B0E251
:101120000E94B30A72E070934506EF93FF93ECE3DD
:10113000F0E00E94B00AFF91EF9182E080930020DE
:1011400080E18093012080E08093022080E0809302
:10115000032080E08093042080E08093052072E0EB
:101160007093460696E0A0E0B0E20E94BE0A72E0EC
:101170007093450685E0809300208FE080930120E6
:1011800080EE8093022080E88093032072E07093C9
:10119000460694E0A0E0B0E20E94BE0A72E07093BE
:1011A0004506A881B981BA93AA930E94F0092296B4
:1011B00082E08093002084E18093012080E080938E
:1011C000022080E08093032080E08093042080E070
:1011D0008093052072E07093460696E0A0E0B0E2AE
:1011E0000E94BE0A72E07093450685E0809300205D
:1011F0008FE08093012080EE8093022080E880932E
:10120000032072E07093460694E0A0E0B0E20E94F2
:10121000BE0A72E070934506A881B981BA93AA9379
:101220000E94F009229682E08093002088E180935A
:10123000012080E08093022080E08093032080E002
:101240008093042080E08093052072E0709346062E
:1012500096E0A0E0B0E20E94BE0A72E070934506FC
:1012600085E0809300208FE08093012080EE8093C2
:10127000022080E88093032072E07093460694E099
:10128000A0E0B0E20E94BE0A72E070934506A88119
:10129000B981BA93AA930E94F009229682E08093C2
:1012A000002080E28093012080E08093022088E08B
:1012B0008093032080E08093042080E080930520C9
:1012C00072E07093460696E0A0E0B0E20E94BE0A8B
:1012D00072E07093450685E0809300208FE0809354
:1012E000012080EE8093022080E88093032072E04A
:1012F0007093460694E0A0E0B0E20E94BE0A72E05D
:101300007093450683E0809300208EE08093012057
:1013100080E08093022072E07093460692E0A0E0A5
:10132000B0E20E94BE0A92E0A9E3B0E20E94B30AD2
:1013300072E07093450682E08093002084E28093FF
:10134000012080E08093022088E08093032080E0E9
:101350008093042080E08093052072E0709346061D
:1013600096E0A0E0B0E20E94BE0A72E070934506EB
:1013700085E0809300208FE08093012080EE8093B1
:10138000022080E88093032072E07093460694E088
:10139000A0E0B0E20E94BE0A72E07093450682E0CF
:1013A000809300208CE0809301208FE080930220C6
:1013B00072E07093460693E0A0E0B0E20E94BE0A9D
:1013C00072E070934506A881B981BA93AA930E94EE
:1013D000F009229680913920A881B9818C930895D3
:1013E00083E0809300208EE08093012080E0809352
:1013F000022072E07093460692E0A0E0B0E20E9404
:10140000BE0A91E0A9E3B0E20E94B30A72E07093D1
:10141000450680913920A881B9818C93089585E093
:10142000809300208FE08093012080EE8093022043
:1014300080E88093032072E07093460694E0A0E079
:10144000B0E20E94BE0A72E070934506A881B9819D
:10145000BA93AA930E94F009229682E0809300201A
:101460008AE28093012080E08093022072E07093F2
:10147000460693E0A0E0B0E20E94BE0A72E07093DC
:10148000450682E08093002089E28093012080EF6E
:101490008093022072E07093460693E0A0E0B0E2F1
:1014A0000E94BE0A72E07093450682E0809300209D
:1014B00088E28093012086E88093022072E0709396
:1014C000460693E0A0E0B0E20E94BE0A72E070938C
:1014D000450685E0809300208FE08093012080EE18
:1014E0008093022080E08093032072E07093460690
:1014F00094E0A0E0B0E20E94BE0A72E0709345065C
:10150000A881B981BA93AA930E94F00922960895FE
:1015100005D00E94460B00FC0CD008950024E894EE
:1015200057FF02C009D0689400F80BD010F80124CE
:10153000089502D009D00895509540954F5F5F4FB0
:101540000895E89417FF0895009510950F5F1F4FB9
:101550006894089588EE93E02DD03197D9F70895D7
:101560003197F1F708950E94C90A8C910E94CB0A25
:101570008D939A95D1F70E94CA0A08950E94C90ACC
:101580008D910E94CB0A9A95D9F70E94CA0A0895B4
:101590000895089508958093C3088091C20887FF35
:1015A000FCCF8091C3080895689462F80895E89488
:1015B00062F80895EF93FF93EE27E82BE92B31F0C3
:1015C000E0E4FFE13197F1F70197D1F7FF91EF9157
:1015D00008957991A0EA769508F4A0EBB8E0B70FEA
:1015E0000895A0E0BAE58D91882311F00FD0FBCFCC
:1015F000219608950E94630B802D11F007D0FACF39
:10160000219608958DE002D08AE002C078817A9315
:10161000BF93AF93DEDF11967C9175FFFDCF1197DD
:101620008C93AF91BF9108958F939F93AF93BF9386
:10163000882790E2A1E1B0E28D939A95E9F7BF91F6
:10164000AF919F918F9108958F9380911120881F62
:101650008093112080911220881F80931220809106
:101660001320881F8093132080911420881F80935B
:10167000142080911520881F809315208F91089544
:1016800099275A924A92480E591E08950F92B8010E
:10169000469F8001479F100D569F100D0F90089593
:1016A000903041F00D911C91000F111F9A95E1F7B8
:1016B0001C930E930895903029F08C9186959A95FD
:1016C000E9F78C930895D895319628F48F938BB7CA
:1016D00083958BBF8F91002008950F9200240BBE3D
:1016E0000F9008950F9301E00BBF0F918894089518
:1016F0000F930027F9CF0F9302E0F6CF0F9303E08B
:10170000F3CF0F9304E0F0CF41E003C042E001C00B
:1017100044E0E40F8827F81F8291982F829506D025
:10172000892F04D04A95C1F70C949D0B8F708A3095
:1017300008F0895F805D8D93089588278D930895C3
:1017400043414E207265696E6974000043414E3A10
:0617500000003A383A00E7
:00000001FF
