S01700005646445F323078325F6D61737465722E73726563D7
S113000012C02CC02BC02AC029C028C027C0AFC032
S1130010A4C024C023C072C121C0A6C11FC01EC079
S11300201DC0FBC01BC011241FBECFE5D4E0DEBF42
S1130030CDBF10E0A0E6B0E0E4E6F8E002C0059031
S11300400D92A63CB107D9F721E0A6ECB0E001C0BF
S11300501D92A93CB207E1F7BFD202C4D1CF6623F7
S113006099F0DC01ED91FC91119721E030E0A901B8
S113007012960C9002C0440F551F0A94E2F7CA016D
S11300809081892B80830895DC01ED91FC91119777
S113009021E030E0A90112960C9002C0440F551FD4
S11300A00A94E2F7CA018095908189238083089598
S11300B0FC0130812181613099F018F06230F1F057
S11300C0089581E090E0028002C0880F991F0A948D
S11300D0E2F7E32FF22F809592918923808308958C
S11300E081E090E0028002C0880F991F0A94E2F731
S11300F0E32FF22F9291892B8083089581E090E081
S1130100AC01028002C0440F551F0A94E2F7A32FEA
S1130110B22F40952E9142234C93A081B18102804D
S113012002C0880F991F0A94E2F780959C91892355
S11301308C930895DC01ED91FC91119721E030E05E
S1130140A90112960C9002C0440F551F0A94E2F7BD
S1130150CA0190818927808308951F920F920FB658
S11301600F9211240F900FBE0F901F9018951F929D
S11301700F920FB60F9211240F900FBE0F901F9085
S11301801895789487B3866087BB87E790E09BBD1A
S11301908ABD87E890E099BD88BD8FB5816B8FBD1E
S11301A08EB581608EBD089585EA86BF80E090E0BB
S11301B005C00196803426E0920730F42091600057
S11301C02830B9F780E0089581E0089585E986BF75
S11301D0089585E886BF80E090E005C001968034EC
S11301E026E0920730F4209160002831B9F780E0CE
S11301F0089581E0089585E886BF80E090E005C019
S11302000196803426E0920730F420916000283271
S1130210B9F780E0089581E008951F920F920FB618
S11302200F9211248F9381B1887F809360008F9106
S11302300F900FBE0F901F901895CF92DF92EF9200
S1130240FF920F931F93CF93182F062F6A01790102
S1130250ABDFC82F882319F0B9DF8C2F27C0110F0B
S113026013B9B7DFC82F882319F0B0DF8C2F1EC055
S113027003B9C1DFC82F882391F0A8DF8C2F16C0E3
S1130280F601E00FF11F808183B9B5DFC82F882301
S113029019F09CDF8C2F0AC00F5F1F4F02C000E0D3
S11302A010E00E151F0560F391DF8C2FCF911F9185
S11302B00F91FF90EF90DF90CF9008959B01AC01D8
S11302C060E074E284EF90E038D2DA01C90140972B
S11302D0A109B109B695A7959795879580B985E049
S11302E086BF089580916100089510926100109274
S11302F0C7011092C60186EC90E008951F920F92F8
S11303000FB60F9211248F939F93EF93FF93E09175
S1130310C601F091C7018CB1EA53FF4F8083E0918D
S1130320C601F091C701EA53FF4F80818D3051F42B
S113033081E080936100E091C601F091C701E95327
S1130340FF4F10828091C6019091C701019690934E
S1130350C7018093C601FF91EF919F918F910F90F8
S11303600FBE0F901F9018951F920F920FB60F9209
S113037011248F9381E0809362008F910F900FBEC0
S11303800F901F901895442329F02BB122602BB9AC
S1130390A8E001C0A0E1B0E09B01AC01F0D19B0159
S11303A0AC0160E074E284EF90E0C7D1BA01A90126
S11303B04150510961097109DB01CA0188279F7005
S11303C0AA27BB27892F9A2FAB2FBB2780BD49B9FA
S11303D08AB1886D8AB986E880BD08950F931F930A
S11303E0CF93DF9300D0CDB7DEB78B019A83898397
S11303F0AE014F5F5F4F63EC70E003D2009739F0BA
S11304004FE150E0BC01C801EDD1F801178EAE01F7
S11304104F5F5F4F63EC70E089819A81F2D100975E
S113042041F04FE150E0BC01C8018096DBD1F801F6
S113043017AEAE014F5F5F4F63EC70E089819A8124
S1130440E0D1009729F0B1D1F801E05CFF4F80833F
S1130450AE014F5F5F4F63EC70E089819A81D1D127
S1130460009729F0A2D1F801EF5BFF4F8083AE0122
S11304704F5F5F4F63EC70E089819A81C2D100972E
S113048029F093D1F801EE5BFF4F80830F900F901A
S1130490DF91CF911F910F91089598E01DC028B36B
S11304A02F7D28BB492F50E041505109282F30E0BF
S11304B002C0359527954A95E2F720FF04C028B37A
S11304C0286028BB03C028B3277F28BB000028B3BB
S11304D0206228BB000091509111E1CF0895CF9381
S11304E0C82F88B3816088BB000088B38E7F88BB27
S11304F088EFD3DF8C2FD1DF88B3816088BB000005
S113050088B38E7F88BBCF910895CF93C82F88B3CB
S1130510816088BB000088B38E7F88BB8AEFBDDF13
S11305208C2FBBDF88B3816088BB000088B38E7FCB
S113053088BBCF910895CF93DF9385B38E7F85BB1E
S11305408FE39CE90197F1F700C0000085B3816057
S113055085BB85B38D7F85BB88E3C1DF81E0BFDFC9
S113056080E0D3DF8CE0BBDF80E8B9DFC0E0D0E01F
S113057003C08FEFCADF2196C034D105D4F381E0E4
S1130580AEDF85B3826085BBDF91CF910895823061
S113059009F4605C85B38D7F85BB862F80689FDFFF
S11305A085B3826085BB08950F931F93CF93DF9328
S11305B08C01C0E0D0E0F801EC0FFD1F8081A5DFC5
S11305C02196F801EC0FFD1F80818111F4CFDF919A
S11305D0CF911F910F910895789440E060E076E9FF
S11305E080E090E0D0DE60E87AE186E090E066DECC
S11305F061E08EEB90E05CDD60E08EEB90E02FDD5F
S113060061E08BEB90E054DD61E08BEB90E027DD63
S113061061E088EB90E04CDD60E088EB90E01FDD6A
S113062061E085EB90E044DD60E085EB90E017DD70
S113063061E082EB90E03CDD61E082EB90E00FDD75
S113064061E08FEA90E034DD61E08FEA90E007DD5D
S11306502FEF89E698E1215080409040E1F700C0F7
S1130660000080E090E08DDD66DFC0E03BDE8823A3
S113067021F03BDE63E670E0B1DE2FE788E391E032
S1130680215080409040E1F700C00000CF5FCF30A0
S113069068F360E081E07BDF83E690E085DF60E083
S11306A082E075DF83E890E07FDF8091A5008130F0
S11306B019F0823031F009C060E086EA90E0CFDCC6
S11306C008C086EA90E036DD04C061E086EA90E086
S11306D0C6DC8091A400813019F0823031F009C069
S11306E060E08CEA90E0BBDC08C08CEA90E022DD9C
S11306F004C061E08CEA90E0B2DC8091A300813018
S113070019F0823031F009C060E089EA90E0A7DC9A
S113071008C089EA90E00EDD04C061E089EA90E057
S11307209EDC8091C8018093C10022E030E041EC5E
S113073050E060E082E281DD98CFA1E21A2EAA1B8C
S1130740BB1BFD010DC0AA1FBB1FEE1FFF1FA2177D
S1130750B307E407F50720F0A21BB30BE40BF50B7A
S1130760661F771F881F991F1A9469F76095709503
S1130770809590959B01AC01BD01CF01089509D0EE
S1130780A59F900DB49F900DA49F800D911D1124E1
S11307900895A29FB001B39FC001A39F01D0B29F4F
S11307A0700D811D1124911D0895FC01882799273E
S11307B0E89421912032E9F3293010F02E30C8F367
S11307C02B3239F02D3231F4689403C041D0820FBA
S11307D0911D219120532A30C8F31EF490958195E0
S11307E09F4F0895FB01DC014150504048F00190B7
S11307F00D920020C9F701C01D9241505040E0F70E
S11308000895FA01A191B081009719F41097E1F0CD
S1130810CD01DC01CD010D90002011F4C00113C005
S1130820FB012191222319F02015D9F7F3CFFB0105
S11308302191201519F41E92119606C02223C1F7A6
S11308400D900020A1F7D001FA01A193B08308957F
S11308507AE0979F902D879F802D910D1124089504
S1070860F894FFCF36
S1130864F801016E6F7420696E697469616C697A48
S11308746564202020202000000000000000000007
S113088400000030332F30372F3230323320202011
S11308947B33383430307D00000000000000000059
S11308A4000000020202C80102C80101C8010032AA
S11308B40005380005380003380000350000350011
S10908C40100AA2F000050
S9030000FC
